{
  "contractName": "InspectorRole",
  "abi": [
    {
      "inputs": [],
      "stateMutability": "nonpayable",
      "type": "constructor"
    },
    {
      "anonymous": false,
      "inputs": [
        {
          "indexed": true,
          "internalType": "address",
          "name": "account",
          "type": "address"
        }
      ],
      "name": "InspectorAdded",
      "type": "event"
    },
    {
      "anonymous": false,
      "inputs": [
        {
          "indexed": true,
          "internalType": "address",
          "name": "account",
          "type": "address"
        }
      ],
      "name": "InspectorRemoved",
      "type": "event"
    },
    {
      "inputs": [
        {
          "internalType": "address",
          "name": "account",
          "type": "address"
        }
      ],
      "name": "isInspector",
      "outputs": [
        {
          "internalType": "bool",
          "name": "",
          "type": "bool"
        }
      ],
      "stateMutability": "view",
      "type": "function"
    },
    {
      "inputs": [
        {
          "internalType": "address",
          "name": "account",
          "type": "address"
        }
      ],
      "name": "addInspector",
      "outputs": [],
      "stateMutability": "nonpayable",
      "type": "function"
    },
    {
      "inputs": [],
      "name": "renounceInspector",
      "outputs": [],
      "stateMutability": "nonpayable",
      "type": "function"
    }
  ],
  "bytecode": "0x608060405234801561001057600080fd5b506100203361002560201b60201c565b610308565b61003d81600061008360201b6101181790919060201c565b8073ffffffffffffffffffffffffffffffffffffffff167f9ca2a3611f65b351a79d20d5314a16e37fe9b947d2a36232e101bd615994450360405160405180910390a250565b610093828261013160201b60201c565b156100d3576040517f08c379a00000000000000000000000000000000000000000000000000000000081526004016100ca90610256565b60405180910390fd5b60018260000160008373ffffffffffffffffffffffffffffffffffffffff1673ffffffffffffffffffffffffffffffffffffffff16815260200190815260200160002060006101000a81548160ff0219169083151502179055505050565b60008073ffffffffffffffffffffffffffffffffffffffff168273ffffffffffffffffffffffffffffffffffffffff1614156101a2576040517f08c379a0000000000000000000000000000000000000000000000000000000008152600401610199906102e8565b60405180910390fd5b8260000160008373ffffffffffffffffffffffffffffffffffffffff1673ffffffffffffffffffffffffffffffffffffffff16815260200190815260200160002060009054906101000a900460ff16905092915050565b600082825260208201905092915050565b7f526f6c65733a206163636f756e7420616c72656164792068617320726f6c6500600082015250565b6000610240601f836101f9565b915061024b8261020a565b602082019050919050565b6000602082019050818103600083015261026f81610233565b9050919050565b7f526f6c65733a206163636f756e7420697320746865207a65726f20616464726560008201527f7373000000000000000000000000000000000000000000000000000000000000602082015250565b60006102d26022836101f9565b91506102dd82610276565b604082019050919050565b60006020820190508181036000830152610301816102c5565b9050919050565b610712806103176000396000f3fe608060405234801561001057600080fd5b50600436106100415760003560e01c80630b20dbbe146100465780632cdad41c146100505780637e45849214610080575b600080fd5b61004e61009c565b005b61006a60048036038101906100659190610446565b6100a7565b604051610077919061048e565b60405180910390f35b61009a60048036038101906100959190610446565b6100c4565b005b6100a5336101c0565b565b60006100bd82600061021a90919063ffffffff16565b9050919050565b6100cd336100a7565b61010c576040517f08c379a00000000000000000000000000000000000000000000000000000000081526004016101039061052c565b60405180910390fd5b610115816102e2565b50565b610122828261021a565b15610162576040517f08c379a000000000000000000000000000000000000000000000000000000000815260040161015990610598565b60405180910390fd5b60018260000160008373ffffffffffffffffffffffffffffffffffffffff1673ffffffffffffffffffffffffffffffffffffffff16815260200190815260200160002060006101000a81548160ff0219169083151502179055505050565b6101d481600061033c90919063ffffffff16565b8073ffffffffffffffffffffffffffffffffffffffff167f737c9e54b555afb1794817809534974cb61ead2136d82d4a8fecb34d0932922060405160405180910390a250565b60008073ffffffffffffffffffffffffffffffffffffffff168273ffffffffffffffffffffffffffffffffffffffff16141561028b576040517f08c379a00000000000000000000000000000000000000000000000000000000081526004016102829061062a565b60405180910390fd5b8260000160008373ffffffffffffffffffffffffffffffffffffffff1673ffffffffffffffffffffffffffffffffffffffff16815260200190815260200160002060009054906101000a900460ff16905092915050565b6102f681600061011890919063ffffffff16565b8073ffffffffffffffffffffffffffffffffffffffff167f9ca2a3611f65b351a79d20d5314a16e37fe9b947d2a36232e101bd615994450360405160405180910390a250565b610346828261021a565b610385576040517f08c379a000000000000000000000000000000000000000000000000000000000815260040161037c906106bc565b60405180910390fd5b60008260000160008373ffffffffffffffffffffffffffffffffffffffff1673ffffffffffffffffffffffffffffffffffffffff16815260200190815260200160002060006101000a81548160ff0219169083151502179055505050565b600080fd5b600073ffffffffffffffffffffffffffffffffffffffff82169050919050565b6000610413826103e8565b9050919050565b61042381610408565b811461042e57600080fd5b50565b6000813590506104408161041a565b92915050565b60006020828403121561045c5761045b6103e3565b5b600061046a84828501610431565b91505092915050565b60008115159050919050565b61048881610473565b82525050565b60006020820190506104a3600083018461047f565b92915050565b600082825260208201905092915050565b7f496e73706563746f72526f6c653a2063616c6c657220646f6573206e6f74206860008201527f6176652074686520496e73706563746f7220726f6c6500000000000000000000602082015250565b60006105166036836104a9565b9150610521826104ba565b604082019050919050565b6000602082019050818103600083015261054581610509565b9050919050565b7f526f6c65733a206163636f756e7420616c72656164792068617320726f6c6500600082015250565b6000610582601f836104a9565b915061058d8261054c565b602082019050919050565b600060208201905081810360008301526105b181610575565b9050919050565b7f526f6c65733a206163636f756e7420697320746865207a65726f20616464726560008201527f7373000000000000000000000000000000000000000000000000000000000000602082015250565b60006106146022836104a9565b915061061f826105b8565b604082019050919050565b6000602082019050818103600083015261064381610607565b9050919050565b7f526f6c65733a206163636f756e7420646f6573206e6f74206861766520726f6c60008201527f6500000000000000000000000000000000000000000000000000000000000000602082015250565b60006106a66021836104a9565b91506106b18261064a565b604082019050919050565b600060208201905081810360008301526106d581610699565b905091905056fea26469706673582212207e5820e563f86a44f4f13da039424a346f5458ca058a08ab56ba8aa893ead34164736f6c634300080c0033",
  "immutableReferences": {},
  "source": "// SPDX-License-Identifier: MIT\n\npragma solidity >=0.6.00;\n\n// Based on openzeppelin-solidity@2.5.0:  openzeppelin-solidity\\contracts\\access\\roles\\CapperRole.sol\n\nimport \"../Roles.sol\";\n\ncontract InspectorRole {\n    using Roles for Roles.Role;\n\n    event InspectorAdded(address indexed account);\n    event InspectorRemoved(address indexed account);\n\n    Roles.Role private _Inspectors;\n\n    constructor () public {\n        _addInspector(msg.sender);\n    }\n\n    modifier onlyInspector() {\n        require(isInspector(msg.sender), \"InspectorRole: caller does not have the Inspector role\");\n        _;\n    }\n\n    function isInspector(address account) public view returns (bool) {\n        return _Inspectors.has(account);\n    }\n\n    function addInspector(address account) public onlyInspector {\n        _addInspector(account);\n    }\n\n    function renounceInspector() public {\n        _removeInspector(msg.sender);\n    }\n\n    function _addInspector(address account) internal {\n        _Inspectors.add(account);\n        emit InspectorAdded(account);\n    }\n\n    function _removeInspector(address account) internal {\n        _Inspectors.remove(account);\n        emit InspectorRemoved(account);\n    }\n}\n",
  "sourcePath": "C:\\Users\\jawalsam\\Ethereum_Projects\\supplychain\\contracts\\access\\roles\\InspectorRole.sol",
  "compiler": {
    "name": "solc",
    "version": "0.8.12+commit.f00d7308.Emscripten.clang"
  },
  "schemaVersion": "3.4.6",
  "updatedAt": "2022-03-26T16:11:40.286Z",
  "devdoc": {
    "kind": "dev",
    "methods": {},
    "version": 1
  },
  "userdoc": {
    "kind": "user",
    "methods": {},
    "version": 1
  }
}