{
  "contractName": "ProducerRole",
  "abi": [
    {
      "inputs": [],
      "stateMutability": "nonpayable",
      "type": "constructor"
    },
    {
      "anonymous": false,
      "inputs": [
        {
          "indexed": true,
          "internalType": "address",
          "name": "account",
          "type": "address"
        }
      ],
      "name": "ProducerAdded",
      "type": "event"
    },
    {
      "anonymous": false,
      "inputs": [
        {
          "indexed": true,
          "internalType": "address",
          "name": "account",
          "type": "address"
        }
      ],
      "name": "ProducerRemoved",
      "type": "event"
    },
    {
      "inputs": [
        {
          "internalType": "address",
          "name": "account",
          "type": "address"
        }
      ],
      "name": "isProducer",
      "outputs": [
        {
          "internalType": "bool",
          "name": "",
          "type": "bool"
        }
      ],
      "stateMutability": "view",
      "type": "function"
    },
    {
      "inputs": [
        {
          "internalType": "address",
          "name": "account",
          "type": "address"
        }
      ],
      "name": "addProducer",
      "outputs": [],
      "stateMutability": "nonpayable",
      "type": "function"
    },
    {
      "inputs": [],
      "name": "renounceProducer",
      "outputs": [],
      "stateMutability": "nonpayable",
      "type": "function"
    }
  ],
  "bytecode": "0x608060405234801561001057600080fd5b506100203361002560201b60201c565b610308565b61003d81600061008360201b6101181790919060201c565b8073ffffffffffffffffffffffffffffffffffffffff167f2977383b0207d39ef14220620b6cf3e6c9b6e78592af90baeef6614ed2fcd2c660405160405180910390a250565b610093828261013160201b60201c565b156100d3576040517f08c379a00000000000000000000000000000000000000000000000000000000081526004016100ca90610256565b60405180910390fd5b60018260000160008373ffffffffffffffffffffffffffffffffffffffff1673ffffffffffffffffffffffffffffffffffffffff16815260200190815260200160002060006101000a81548160ff0219169083151502179055505050565b60008073ffffffffffffffffffffffffffffffffffffffff168273ffffffffffffffffffffffffffffffffffffffff1614156101a2576040517f08c379a0000000000000000000000000000000000000000000000000000000008152600401610199906102e8565b60405180910390fd5b8260000160008373ffffffffffffffffffffffffffffffffffffffff1673ffffffffffffffffffffffffffffffffffffffff16815260200190815260200160002060009054906101000a900460ff16905092915050565b600082825260208201905092915050565b7f526f6c65733a206163636f756e7420616c72656164792068617320726f6c6500600082015250565b6000610240601f836101f9565b915061024b8261020a565b602082019050919050565b6000602082019050818103600083015261026f81610233565b9050919050565b7f526f6c65733a206163636f756e7420697320746865207a65726f20616464726560008201527f7373000000000000000000000000000000000000000000000000000000000000602082015250565b60006102d26022836101f9565b91506102dd82610276565b604082019050919050565b60006020820190508181036000830152610301816102c5565b9050919050565b610712806103176000396000f3fe608060405234801561001057600080fd5b50600436106100415760003560e01c8063ddf8016614610046578063f552102214610062578063f9b867d814610092575b600080fd5b610060600480360381019061005b9190610446565b61009c565b005b61007c60048036038101906100779190610446565b6100f0565b604051610089919061048e565b60405180910390f35b61009a61010d565b005b6100a5336100f0565b6100e4576040517f08c379a00000000000000000000000000000000000000000000000000000000081526004016100db9061052c565b60405180910390fd5b6100ed816101c0565b50565b600061010682600061021a90919063ffffffff16565b9050919050565b610116336102e2565b565b610122828261021a565b15610162576040517f08c379a000000000000000000000000000000000000000000000000000000000815260040161015990610598565b60405180910390fd5b60018260000160008373ffffffffffffffffffffffffffffffffffffffff1673ffffffffffffffffffffffffffffffffffffffff16815260200190815260200160002060006101000a81548160ff0219169083151502179055505050565b6101d481600061011890919063ffffffff16565b8073ffffffffffffffffffffffffffffffffffffffff167f2977383b0207d39ef14220620b6cf3e6c9b6e78592af90baeef6614ed2fcd2c660405160405180910390a250565b60008073ffffffffffffffffffffffffffffffffffffffff168273ffffffffffffffffffffffffffffffffffffffff16141561028b576040517f08c379a00000000000000000000000000000000000000000000000000000000081526004016102829061062a565b60405180910390fd5b8260000160008373ffffffffffffffffffffffffffffffffffffffff1673ffffffffffffffffffffffffffffffffffffffff16815260200190815260200160002060009054906101000a900460ff16905092915050565b6102f681600061033c90919063ffffffff16565b8073ffffffffffffffffffffffffffffffffffffffff167fb78e9906c5bae930ccf756a5214c9855b1782f0eb30f9566de2384f034af48f360405160405180910390a250565b610346828261021a565b610385576040517f08c379a000000000000000000000000000000000000000000000000000000000815260040161037c906106bc565b60405180910390fd5b60008260000160008373ffffffffffffffffffffffffffffffffffffffff1673ffffffffffffffffffffffffffffffffffffffff16815260200190815260200160002060006101000a81548160ff0219169083151502179055505050565b600080fd5b600073ffffffffffffffffffffffffffffffffffffffff82169050919050565b6000610413826103e8565b9050919050565b61042381610408565b811461042e57600080fd5b50565b6000813590506104408161041a565b92915050565b60006020828403121561045c5761045b6103e3565b5b600061046a84828501610431565b91505092915050565b60008115159050919050565b61048881610473565b82525050565b60006020820190506104a3600083018461047f565b92915050565b600082825260208201905092915050565b7f50726f6475636572526f6c653a2063616c6c657220646f6573206e6f7420686160008201527f7665207468652050726f647563657220726f6c65000000000000000000000000602082015250565b60006105166034836104a9565b9150610521826104ba565b604082019050919050565b6000602082019050818103600083015261054581610509565b9050919050565b7f526f6c65733a206163636f756e7420616c72656164792068617320726f6c6500600082015250565b6000610582601f836104a9565b915061058d8261054c565b602082019050919050565b600060208201905081810360008301526105b181610575565b9050919050565b7f526f6c65733a206163636f756e7420697320746865207a65726f20616464726560008201527f7373000000000000000000000000000000000000000000000000000000000000602082015250565b60006106146022836104a9565b915061061f826105b8565b604082019050919050565b6000602082019050818103600083015261064381610607565b9050919050565b7f526f6c65733a206163636f756e7420646f6573206e6f74206861766520726f6c60008201527f6500000000000000000000000000000000000000000000000000000000000000602082015250565b60006106a66021836104a9565b91506106b18261064a565b604082019050919050565b600060208201905081810360008301526106d581610699565b905091905056fea26469706673582212208fa9fc4b0f6410c6fb7c20da05a4ca4c939539915766465b5a8b0a9d6b49c0bc64736f6c634300080c0033",
  "immutableReferences": {},
  "source": "// SPDX-License-Identifier: MIT\r\n\r\npragma solidity >=0.6.00;\r\n\r\n// Based on openzeppelin-solidity@2.5.0:  openzeppelin-solidity\\contracts\\access\\roles\\CapperRole.sol\r\n\r\nimport \"../Roles.sol\";\r\n\r\ncontract ProducerRole {\r\n    using Roles for Roles.Role;\r\n\r\n    event ProducerAdded(address indexed account);\r\n    event ProducerRemoved(address indexed account);\r\n\r\n    Roles.Role private _Producers;\r\n\r\n    constructor () public {\r\n        _addProducer(msg.sender);\r\n    }\r\n\r\n    modifier onlyProducer() {\r\n        require(isProducer(msg.sender), \"ProducerRole: caller does not have the Producer role\");\r\n        _;\r\n    }\r\n\r\n    function isProducer(address account) public view returns (bool) {\r\n        return _Producers.has(account);\r\n    }\r\n\r\n    function addProducer(address account) public onlyProducer {\r\n        _addProducer(account);\r\n    }\r\n\r\n    function renounceProducer() public {\r\n        _removeProducer(msg.sender);\r\n    }\r\n\r\n    function _addProducer(address account) internal {\r\n        _Producers.add(account);\r\n        emit ProducerAdded(account);\r\n    }\r\n\r\n    function _removeProducer(address account) internal {\r\n        _Producers.remove(account);\r\n        emit ProducerRemoved(account);\r\n    }\r\n}\r\n",
  "sourcePath": "C:\\Blockchain_POC\\smart-contracts\\contracts\\access\\roles\\ProducerRole.sol",
  "compiler": {
    "name": "solc",
    "version": "0.8.12+commit.f00d7308.Emscripten.clang"
  },
  "schemaVersion": "3.4.6",
  "updatedAt": "2022-04-24T09:09:54.285Z",
  "devdoc": {
    "kind": "dev",
    "methods": {},
    "version": 1
  },
  "userdoc": {
    "kind": "user",
    "methods": {},
    "version": 1
  }
}