{
  "contractName": "SupplyChain",
  "abi": [
    {
      "inputs": [],
      "stateMutability": "nonpayable",
      "type": "constructor"
    },
    {
      "anonymous": false,
      "inputs": [
        {
          "indexed": true,
          "internalType": "address",
          "name": "account",
          "type": "address"
        }
      ],
      "name": "ConsumerAdded",
      "type": "event"
    },
    {
      "anonymous": false,
      "inputs": [
        {
          "indexed": true,
          "internalType": "address",
          "name": "account",
          "type": "address"
        }
      ],
      "name": "ConsumerRemoved",
      "type": "event"
    },
    {
      "anonymous": false,
      "inputs": [
        {
          "indexed": true,
          "internalType": "address",
          "name": "account",
          "type": "address"
        }
      ],
      "name": "DistributorAdded",
      "type": "event"
    },
    {
      "anonymous": false,
      "inputs": [
        {
          "indexed": true,
          "internalType": "address",
          "name": "account",
          "type": "address"
        }
      ],
      "name": "DistributorRemoved",
      "type": "event"
    },
    {
      "anonymous": false,
      "inputs": [
        {
          "indexed": false,
          "internalType": "uint256",
          "name": "productId",
          "type": "uint256"
        }
      ],
      "name": "ItemAddedInCart",
      "type": "event"
    },
    {
      "anonymous": false,
      "inputs": [
        {
          "indexed": false,
          "internalType": "uint256",
          "name": "productId",
          "type": "uint256"
        }
      ],
      "name": "ItemDelivered",
      "type": "event"
    },
    {
      "anonymous": false,
      "inputs": [
        {
          "indexed": false,
          "internalType": "uint256",
          "name": "productId",
          "type": "uint256"
        }
      ],
      "name": "ItemDeliveredCustomerConfirmation",
      "type": "event"
    },
    {
      "anonymous": false,
      "inputs": [
        {
          "indexed": false,
          "internalType": "uint256",
          "name": "productId",
          "type": "uint256"
        }
      ],
      "name": "ItemDispatched",
      "type": "event"
    },
    {
      "anonymous": false,
      "inputs": [
        {
          "indexed": false,
          "internalType": "uint256",
          "name": "productId",
          "type": "uint256"
        }
      ],
      "name": "ItemProduced",
      "type": "event"
    },
    {
      "anonymous": false,
      "inputs": [
        {
          "indexed": false,
          "internalType": "uint256",
          "name": "orderId",
          "type": "uint256"
        }
      ],
      "name": "OrderComplete",
      "type": "event"
    },
    {
      "anonymous": false,
      "inputs": [
        {
          "indexed": false,
          "internalType": "uint256",
          "name": "orderId",
          "type": "uint256"
        }
      ],
      "name": "OrderPlaced",
      "type": "event"
    },
    {
      "anonymous": false,
      "inputs": [
        {
          "indexed": true,
          "internalType": "address",
          "name": "account",
          "type": "address"
        }
      ],
      "name": "ProducerAdded",
      "type": "event"
    },
    {
      "anonymous": false,
      "inputs": [
        {
          "indexed": true,
          "internalType": "address",
          "name": "account",
          "type": "address"
        }
      ],
      "name": "ProducerRemoved",
      "type": "event"
    },
    {
      "anonymous": false,
      "inputs": [
        {
          "indexed": true,
          "internalType": "address",
          "name": "oldOwner",
          "type": "address"
        },
        {
          "indexed": true,
          "internalType": "address",
          "name": "newOwner",
          "type": "address"
        }
      ],
      "name": "TransferOwnership",
      "type": "event"
    },
    {
      "inputs": [
        {
          "internalType": "uint256",
          "name": "",
          "type": "uint256"
        }
      ],
      "name": "activityLog",
      "outputs": [
        {
          "internalType": "uint256",
          "name": "activityId",
          "type": "uint256"
        },
        {
          "internalType": "uint256",
          "name": "productId",
          "type": "uint256"
        },
        {
          "internalType": "address",
          "name": "createdBy",
          "type": "address"
        },
        {
          "internalType": "string",
          "name": "location",
          "type": "string"
        },
        {
          "internalType": "uint256",
          "name": "createdDateTime",
          "type": "uint256"
        },
        {
          "internalType": "enum SupplyChain.OrderItemState",
          "name": "currentState",
          "type": "uint8"
        },
        {
          "internalType": "string",
          "name": "stateInString",
          "type": "string"
        }
      ],
      "stateMutability": "view",
      "type": "function",
      "constant": true
    },
    {
      "inputs": [
        {
          "internalType": "address",
          "name": "account",
          "type": "address"
        }
      ],
      "name": "addConsumer",
      "outputs": [],
      "stateMutability": "nonpayable",
      "type": "function"
    },
    {
      "inputs": [
        {
          "internalType": "address",
          "name": "account",
          "type": "address"
        }
      ],
      "name": "addDistributor",
      "outputs": [],
      "stateMutability": "nonpayable",
      "type": "function"
    },
    {
      "inputs": [
        {
          "internalType": "address",
          "name": "account",
          "type": "address"
        }
      ],
      "name": "addProducer",
      "outputs": [],
      "stateMutability": "nonpayable",
      "type": "function"
    },
    {
      "inputs": [
        {
          "internalType": "address",
          "name": "account",
          "type": "address"
        }
      ],
      "name": "isConsumer",
      "outputs": [
        {
          "internalType": "bool",
          "name": "",
          "type": "bool"
        }
      ],
      "stateMutability": "view",
      "type": "function",
      "constant": true
    },
    {
      "inputs": [
        {
          "internalType": "address",
          "name": "account",
          "type": "address"
        }
      ],
      "name": "isDistributor",
      "outputs": [
        {
          "internalType": "bool",
          "name": "",
          "type": "bool"
        }
      ],
      "stateMutability": "view",
      "type": "function",
      "constant": true
    },
    {
      "inputs": [],
      "name": "isOwner",
      "outputs": [
        {
          "internalType": "bool",
          "name": "",
          "type": "bool"
        }
      ],
      "stateMutability": "view",
      "type": "function",
      "constant": true
    },
    {
      "inputs": [
        {
          "internalType": "address",
          "name": "account",
          "type": "address"
        }
      ],
      "name": "isProducer",
      "outputs": [
        {
          "internalType": "bool",
          "name": "",
          "type": "bool"
        }
      ],
      "stateMutability": "view",
      "type": "function",
      "constant": true
    },
    {
      "inputs": [],
      "name": "owner",
      "outputs": [
        {
          "internalType": "address",
          "name": "",
          "type": "address"
        }
      ],
      "stateMutability": "view",
      "type": "function",
      "constant": true
    },
    {
      "inputs": [],
      "name": "productIndex",
      "outputs": [
        {
          "internalType": "uint256",
          "name": "",
          "type": "uint256"
        }
      ],
      "stateMutability": "view",
      "type": "function",
      "constant": true
    },
    {
      "inputs": [
        {
          "internalType": "uint256",
          "name": "",
          "type": "uint256"
        }
      ],
      "name": "productMapping",
      "outputs": [
        {
          "internalType": "uint256",
          "name": "productId",
          "type": "uint256"
        },
        {
          "internalType": "string",
          "name": "productName",
          "type": "string"
        },
        {
          "internalType": "string",
          "name": "productDesc",
          "type": "string"
        },
        {
          "internalType": "string",
          "name": "producerName",
          "type": "string"
        },
        {
          "internalType": "uint256",
          "name": "price",
          "type": "uint256"
        },
        {
          "internalType": "int32",
          "name": "quantity",
          "type": "int32"
        },
        {
          "internalType": "address",
          "name": "createdBy",
          "type": "address"
        },
        {
          "internalType": "uint256",
          "name": "createdDate",
          "type": "uint256"
        },
        {
          "internalType": "bool",
          "name": "isDeleted",
          "type": "bool"
        }
      ],
      "stateMutability": "view",
      "type": "function",
      "constant": true
    },
    {
      "inputs": [],
      "name": "renounceConsumer",
      "outputs": [],
      "stateMutability": "nonpayable",
      "type": "function"
    },
    {
      "inputs": [],
      "name": "renounceDistributor",
      "outputs": [],
      "stateMutability": "nonpayable",
      "type": "function"
    },
    {
      "inputs": [],
      "name": "renounceOwnership",
      "outputs": [],
      "stateMutability": "nonpayable",
      "type": "function"
    },
    {
      "inputs": [],
      "name": "renounceProducer",
      "outputs": [],
      "stateMutability": "nonpayable",
      "type": "function"
    },
    {
      "inputs": [
        {
          "internalType": "address",
          "name": "newOwner",
          "type": "address"
        }
      ],
      "name": "transferOwnership",
      "outputs": [],
      "stateMutability": "nonpayable",
      "type": "function"
    },
    {
      "inputs": [
        {
          "internalType": "string",
          "name": "product_Name",
          "type": "string"
        },
        {
          "internalType": "string",
          "name": "product_Desc",
          "type": "string"
        },
        {
          "internalType": "string",
          "name": "producer_Name",
          "type": "string"
        },
        {
          "internalType": "string",
          "name": "_location",
          "type": "string"
        },
        {
          "internalType": "uint256",
          "name": "price",
          "type": "uint256"
        }
      ],
      "name": "addProducts",
      "outputs": [],
      "stateMutability": "nonpayable",
      "type": "function"
    },
    {
      "inputs": [
        {
          "internalType": "string",
          "name": "_location",
          "type": "string"
        },
        {
          "internalType": "enum SupplyChain.OrderItemState",
          "name": "_state",
          "type": "uint8"
        },
        {
          "internalType": "string",
          "name": "_stateInString",
          "type": "string"
        },
        {
          "internalType": "uint256",
          "name": "_productId",
          "type": "uint256"
        }
      ],
      "name": "addLog",
      "outputs": [],
      "stateMutability": "nonpayable",
      "type": "function"
    },
    {
      "inputs": [],
      "name": "getLogs",
      "outputs": [
        {
          "components": [
            {
              "internalType": "uint256",
              "name": "activityId",
              "type": "uint256"
            },
            {
              "internalType": "uint256",
              "name": "productId",
              "type": "uint256"
            },
            {
              "internalType": "address",
              "name": "createdBy",
              "type": "address"
            },
            {
              "internalType": "string",
              "name": "location",
              "type": "string"
            },
            {
              "internalType": "uint256",
              "name": "createdDateTime",
              "type": "uint256"
            },
            {
              "internalType": "enum SupplyChain.OrderItemState",
              "name": "currentState",
              "type": "uint8"
            },
            {
              "internalType": "string",
              "name": "stateInString",
              "type": "string"
            }
          ],
          "internalType": "struct SupplyChain.ActivityLog[]",
          "name": "",
          "type": "tuple[]"
        }
      ],
      "stateMutability": "view",
      "type": "function",
      "constant": true
    },
    {
      "inputs": [],
      "name": "getProuducts",
      "outputs": [
        {
          "components": [
            {
              "internalType": "uint256",
              "name": "productId",
              "type": "uint256"
            },
            {
              "internalType": "string",
              "name": "productName",
              "type": "string"
            },
            {
              "internalType": "string",
              "name": "productDesc",
              "type": "string"
            },
            {
              "internalType": "string",
              "name": "producerName",
              "type": "string"
            },
            {
              "internalType": "uint256",
              "name": "price",
              "type": "uint256"
            },
            {
              "internalType": "int32",
              "name": "quantity",
              "type": "int32"
            },
            {
              "internalType": "address",
              "name": "createdBy",
              "type": "address"
            },
            {
              "internalType": "uint256",
              "name": "createdDate",
              "type": "uint256"
            },
            {
              "internalType": "bool",
              "name": "isDeleted",
              "type": "bool"
            }
          ],
          "internalType": "struct SupplyChain.Product[]",
          "name": "",
          "type": "tuple[]"
        }
      ],
      "stateMutability": "view",
      "type": "function",
      "constant": true
    },
    {
      "inputs": [
        {
          "internalType": "uint256",
          "name": "productId",
          "type": "uint256"
        }
      ],
      "name": "viewProduct",
      "outputs": [
        {
          "internalType": "uint256",
          "name": "",
          "type": "uint256"
        },
        {
          "internalType": "uint256",
          "name": "",
          "type": "uint256"
        },
        {
          "internalType": "string",
          "name": "",
          "type": "string"
        },
        {
          "internalType": "string",
          "name": "",
          "type": "string"
        }
      ],
      "stateMutability": "view",
      "type": "function",
      "constant": true
    },
    {
      "inputs": [
        {
          "internalType": "uint256",
          "name": "productId",
          "type": "uint256"
        },
        {
          "internalType": "string",
          "name": "_location",
          "type": "string"
        }
      ],
      "name": "addItemInCart",
      "outputs": [],
      "stateMutability": "nonpayable",
      "type": "function"
    },
    {
      "inputs": [
        {
          "internalType": "uint256",
          "name": "cartIndex",
          "type": "uint256"
        }
      ],
      "name": "viewCartItems",
      "outputs": [
        {
          "internalType": "uint256",
          "name": "",
          "type": "uint256"
        },
        {
          "internalType": "uint256",
          "name": "",
          "type": "uint256"
        },
        {
          "internalType": "string",
          "name": "",
          "type": "string"
        },
        {
          "internalType": "string",
          "name": "",
          "type": "string"
        },
        {
          "internalType": "uint256",
          "name": "",
          "type": "uint256"
        },
        {
          "internalType": "enum SupplyChain.OrderItemState",
          "name": "",
          "type": "uint8"
        }
      ],
      "stateMutability": "nonpayable",
      "type": "function"
    },
    {
      "inputs": [
        {
          "internalType": "string",
          "name": "_location",
          "type": "string"
        }
      ],
      "name": "createOrder",
      "outputs": [],
      "stateMutability": "nonpayable",
      "type": "function"
    },
    {
      "inputs": [
        {
          "internalType": "uint256",
          "name": "_orderItem",
          "type": "uint256"
        },
        {
          "internalType": "address",
          "name": "_distributor",
          "type": "address"
        },
        {
          "internalType": "string",
          "name": "_location",
          "type": "string"
        }
      ],
      "name": "addDistributorToOrderItem",
      "outputs": [],
      "stateMutability": "nonpayable",
      "type": "function"
    },
    {
      "inputs": [
        {
          "internalType": "uint256",
          "name": "_orderItem",
          "type": "uint256"
        }
      ],
      "name": "viewDistributor",
      "outputs": [
        {
          "internalType": "address",
          "name": "",
          "type": "address"
        }
      ],
      "stateMutability": "view",
      "type": "function",
      "constant": true
    },
    {
      "inputs": [
        {
          "internalType": "uint256",
          "name": "_orderItem",
          "type": "uint256"
        },
        {
          "internalType": "string",
          "name": "_location",
          "type": "string"
        }
      ],
      "name": "orderDelivered",
      "outputs": [],
      "stateMutability": "nonpayable",
      "type": "function"
    },
    {
      "inputs": [],
      "name": "viewOrder",
      "outputs": [
        {
          "components": [
            {
              "internalType": "uint256",
              "name": "orderId",
              "type": "uint256"
            },
            {
              "internalType": "uint256",
              "name": "price",
              "type": "uint256"
            },
            {
              "internalType": "string",
              "name": "productDesc",
              "type": "string"
            },
            {
              "internalType": "string",
              "name": "producerName",
              "type": "string"
            },
            {
              "internalType": "int32",
              "name": "quantity",
              "type": "int32"
            }
          ],
          "internalType": "struct SupplyChain.TempOrderDetail[]",
          "name": "",
          "type": "tuple[]"
        }
      ],
      "stateMutability": "view",
      "type": "function",
      "constant": true
    }
  ],
  "bytecode": "0x60806040523480156200001157600080fd5b50336000806101000a81548173ffffffffffffffffffffffffffffffffffffffff021916908373ffffffffffffffffffffffffffffffffffffffff16021790555060008054906101000a900473ffffffffffffffffffffffffffffffffffffffff1673ffffffffffffffffffffffffffffffffffffffff16600073ffffffffffffffffffffffffffffffffffffffff167f5c486528ec3e3f0ea91181cff8116f02bfa350e03b8b6f12e00765adbb5af85c60405160405180910390a3620000de336200010e60201b60201c565b620000ef336200016f60201b60201c565b6200010033620001d060201b60201c565b6001600681905550620004ca565b620001298160016200023160201b620021fc1790919060201c565b8073ffffffffffffffffffffffffffffffffffffffff167fddbf200aa634dc3fb81cfd68583dd1040d1c751d335e1d86b631bde3e977fea860405160405180910390a250565b6200018a8160026200023160201b620021fc1790919060201c565b8073ffffffffffffffffffffffffffffffffffffffff167f28b26e7a3d20aedbc5f8f2ebf7da671c0491723a2b78f47a097b0e46dee0714260405160405180910390a250565b620001eb8160036200023160201b620021fc1790919060201c565b8073ffffffffffffffffffffffffffffffffffffffff167f2977383b0207d39ef14220620b6cf3e6c9b6e78592af90baeef6614ed2fcd2c660405160405180910390a250565b620002438282620002e460201b60201c565b1562000286576040517f08c379a00000000000000000000000000000000000000000000000000000000081526004016200027d9062000410565b60405180910390fd5b60018260000160008373ffffffffffffffffffffffffffffffffffffffff1673ffffffffffffffffffffffffffffffffffffffff16815260200190815260200160002060006101000a81548160ff0219169083151502179055505050565b60008073ffffffffffffffffffffffffffffffffffffffff168273ffffffffffffffffffffffffffffffffffffffff16141562000358576040517f08c379a00000000000000000000000000000000000000000000000000000000081526004016200034f90620004a8565b60405180910390fd5b8260000160008373ffffffffffffffffffffffffffffffffffffffff1673ffffffffffffffffffffffffffffffffffffffff16815260200190815260200160002060009054906101000a900460ff16905092915050565b600082825260208201905092915050565b7f526f6c65733a206163636f756e7420616c72656164792068617320726f6c6500600082015250565b6000620003f8601f83620003af565b91506200040582620003c0565b602082019050919050565b600060208201905081810360008301526200042b81620003e9565b9050919050565b7f526f6c65733a206163636f756e7420697320746865207a65726f20616464726560008201527f7373000000000000000000000000000000000000000000000000000000000000602082015250565b600062000490602283620003af565b91506200049d8262000432565b604082019050919050565b60006020820190508181036000830152620004c38162000481565b9050919050565b613c5080620004da6000396000f3fe608060405234801561001057600080fd5b50600436106101c45760003560e01c80638f0c86fa116100f9578063eafd4bbd11610097578063f552102211610071578063f5521022146104dd578063f92f030d1461050d578063f9b867d81461052b578063fe290ccb14610535576101c4565b8063eafd4bbd14610459578063f26518ed1461048c578063f2fde38b146104c1576101c4565b80639e432ed5116100d35780639e432ed5146103cb578063c897d5a6146103e7578063d85fcb2914610405578063ddf801661461043d576101c4565b80638f0c86fa146103615780638f32d59b14610391578063988c7717146103af576101c4565b80636946b55c11610166578063715018a611610140578063715018a6146102ed5780637250e224146102f7578063834ff739146103135780638da5cb5b14610343576101c4565b80636946b55c1461027f5780636e08cbac1461029b5780636e516add146102d1576101c4565b80633f0026c2116101a25780633f0026c214610231578063497a23b61461024d57806361e6982d1461026b578063644241db14610275576101c4565b806303b7c764146101c95780630f5e777b146101e5578063112940f914610215575b600080fd5b6101e360048036038101906101de9190612a66565b610553565b005b6101ff60048036038101906101fa9190612ae5565b6106d6565b60405161020c9190612b53565b60405180910390f35b61022f600480360381019061022a9190612b9a565b61075e565b005b61024b60048036038101906102469190612bc7565b61076a565b005b6102556108e4565b6040516102629190612e15565b60405180910390f35b610273610b91565b005b61027d610b9c565b005b61029960048036038101906102949190612bc7565b610ba7565b005b6102b560048036038101906102b09190612ae5565b610c82565b6040516102c89796959493929190612f07565b60405180910390f35b6102eb60048036038101906102e69190612fa9565b610e01565b005b6102f5610f75565b005b610311600480360381019061030c9190612b9a565b611044565b005b61032d60048036038101906103289190612b9a565b611050565b60405161033a9190613063565b60405180910390f35b61034b61106d565b6040516103589190612b53565b60405180910390f35b61037b60048036038101906103769190612b9a565b611096565b6040516103889190613063565b60405180910390f35b6103996110b3565b6040516103a69190613063565b60405180910390f35b6103c960048036038101906103c4919061307e565b61110a565b005b6103e560048036038101906103e0919061314d565b611204565b005b6103ef611577565b6040516103fc9190613249565b60405180910390f35b61041f600480360381019061041a9190612ae5565b61157d565b60405161043499989796959493929190613273565b60405180910390f35b61045760048036038101906104529190612b9a565b61179d565b005b610473600480360381019061046e9190612ae5565b6117f1565b6040516104839493929190613315565b60405180910390f35b6104a660048036038101906104a19190612ae5565b611978565b6040516104b896959493929190613368565b60405180910390f35b6104db60048036038101906104d69190612b9a565b611bd1565b005b6104f760048036038101906104f29190612b9a565b611bee565b6040516105049190613063565b60405180910390f35b610515611c0b565b604051610522919061358a565b60405180910390f35b610533611f58565b005b61053d611f63565b60405161054a9190613720565b60405180910390f35b61055c33611050565b61059b576040517f08c379a0000000000000000000000000000000000000000000000000000000008152600401610592906137b4565b60405180910390fd5b600060016009805490506105af9190613803565b9050806008600083815260200190815260200160002060000181905550336008600083815260200190815260200160002060010160006101000a81548173ffffffffffffffffffffffffffffffffffffffff021916908373ffffffffffffffffffffffffffffffffffffffff160217905550600e5460086000838152602001908152602001600020600201819055508160086000838152602001908152602001600020600301908051906020019061066892919061276b565b50600981908060018154018082558091505060019003906000526020600020016000909190919091505561069b816122a4565b7fffa896d8919f0556f53ace1395617969a3b53ab5271a085e28ac0c4a3724e63d816040516106ca9190613249565b60405180910390a15050565b60006106e133611bee565b610720576040517f08c379a0000000000000000000000000000000000000000000000000000000008152600401610717906138cb565b60405180910390fd5b600a600083815260200190815260200160002060040160019054906101000a900473ffffffffffffffffffffffffffffffffffffffff169050919050565b610767816122e9565b50565b61077333611050565b6107b2576040517f08c379a00000000000000000000000000000000000000000000000000000000081526004016107a9906137b4565b60405180910390fd5b60006001600b805490506107c69190613803565b905080600a60008381526020019081526020016000206000018190555082600a6000838152602001908152602001600020600201819055506001600a600083815260200190815260200160002060040160006101000a81548160ff0219169083600481111561083857610837612e90565b5b0217905550600b8190806001815401808255809150506001900390600052602060002001600090919091909150556108a88260016040518060400160405280600f81526020017f50726f64756374204f726465726564000000000000000000000000000000000081525086610e01565b7f872a542432f777a3b4b905fd26f17613450da3996f2935ce1a06a2ac0948ea62816040516108d79190613249565b60405180910390a1505050565b60606000600b8054905067ffffffffffffffff8111156109075761090661293b565b5b60405190808252806020026020018201604052801561094057816020015b61092d6127f1565b8152602001906001900390816109255790505b50905060005b600b80549050811015610b89576000600a60006001846109669190613803565b815260200190815260200160002090506000600760006001856109899190613803565b8152602001908152602001600020905081600101548484815181106109b1576109b06138eb565b5b602002602001015160000181815250508060010180546109d090613949565b80601f01602080910402602001604051908101604052809291908181526020018280546109fc90613949565b8015610a495780601f10610a1e57610100808354040283529160200191610a49565b820191906000526020600020905b815481529060010190602001808311610a2c57829003601f168201915b5050505050848481518110610a6157610a606138eb565b5b602002602001015160400181905250806002018054610a7f90613949565b80601f0160208091040260200160405190810160405280929190818152602001828054610aab90613949565b8015610af85780601f10610acd57610100808354040283529160200191610af8565b820191906000526020600020905b815481529060010190602001808311610adb57829003601f168201915b5050505050848481518110610b1057610b0f6138eb565b5b6020026020010151606001819052508060040154848481518110610b3757610b366138eb565b5b602002602001015160200181815250506001848481518110610b5c57610b5b6138eb565b5b60200260200101516080019060030b908160030b8152505050508080610b819061397b565b915050610946565b508091505090565b610b9a33612343565b565b610ba53361239d565b565b610bb033611096565b610bef576040517f08c379a0000000000000000000000000000000000000000000000000000000008152600401610be690613a36565b60405180910390fd5b7fd2f1cdd76b4e7bfba9c07af47c5c4f187ffbbd992b4fa1afce4df6a00a166e8582604051610c1e9190613249565b60405180910390a1610c7e8160016040518060400160405280601581526020017f44656c69766572656420746f20437573746f6d65720000000000000000000000815250600a600087815260200190815260200160002060020154610e01565b5050565b600c6020528060005260406000206000915090508060000154908060010154908060020160009054906101000a900473ffffffffffffffffffffffffffffffffffffffff1690806003018054610cd790613949565b80601f0160208091040260200160405190810160405280929190818152602001828054610d0390613949565b8015610d505780601f10610d2557610100808354040283529160200191610d50565b820191906000526020600020905b815481529060010190602001808311610d3357829003601f168201915b5050505050908060040154908060050160009054906101000a900460ff1690806006018054610d7e90613949565b80601f0160208091040260200160405190810160405280929190818152602001828054610daa90613949565b8015610df75780601f10610dcc57610100808354040283529160200191610df7565b820191906000526020600020905b815481529060010190602001808311610dda57829003601f168201915b5050505050905087565b6001600d54610e109190613803565b600c6000600d5481526020019081526020016000206000018190555033600c6000600d54815260200190815260200160002060020160006101000a81548173ffffffffffffffffffffffffffffffffffffffff021916908373ffffffffffffffffffffffffffffffffffffffff16021790555083600c6000600d5481526020019081526020016000206003019080519060200190610eaf92919061276b565b5042600c6000600d5481526020019081526020016000206004018190555082600c6000600d54815260200190815260200160002060050160006101000a81548160ff02191690836004811115610f0857610f07612e90565b5b021790555081600c6000600d5481526020019081526020016000206006019080519060200190610f3992919061276b565b5080600c6000600d54815260200190815260200160002060010181905550600d6000815480929190610f6a9061397b565b919050555050505050565b610f7d6110b3565b610f8657600080fd5b600073ffffffffffffffffffffffffffffffffffffffff1660008054906101000a900473ffffffffffffffffffffffffffffffffffffffff1673ffffffffffffffffffffffffffffffffffffffff167f5c486528ec3e3f0ea91181cff8116f02bfa350e03b8b6f12e00765adbb5af85c60405160405180910390a360008060006101000a81548173ffffffffffffffffffffffffffffffffffffffff021916908373ffffffffffffffffffffffffffffffffffffffff160217905550565b61104d816123f7565b50565b600061106682600261245190919063ffffffff16565b9050919050565b60008060009054906101000a900473ffffffffffffffffffffffffffffffffffffffff16905090565b60006110ac82600161245190919063ffffffff16565b9050919050565b60008060009054906101000a900473ffffffffffffffffffffffffffffffffffffffff1673ffffffffffffffffffffffffffffffffffffffff163373ffffffffffffffffffffffffffffffffffffffff1614905090565b61111333611bee565b611152576040517f08c379a0000000000000000000000000000000000000000000000000000000008152600401611149906138cb565b60405180910390fd5b81600a600085815260200190815260200160002060040160016101000a81548173ffffffffffffffffffffffffffffffffffffffff021916908373ffffffffffffffffffffffffffffffffffffffff1602179055506111ff8160016040518060400160405280601681526020017f5069636b656420757020666f722044656c697665727900000000000000000000815250600a600088815260200190815260200160002060020154610e01565b505050565b61120d33611bee565b61124c576040517f08c379a0000000000000000000000000000000000000000000000000000000008152600401611243906138cb565b60405180910390fd5b60405180610120016040528060065481526020018a8a8080601f016020809104026020016040519081016040528093929190818152602001838380828437600081840152601f19601f82011690508083019250505050505050815260200188888080601f016020809104026020016040519081016040528093929190818152602001838380828437600081840152601f19601f82011690508083019250505050505050815260200186868080601f016020809104026020016040519081016040528093929190818152602001838380828437600081840152601f19601f820116905080830192505050505050508152602001828152602001600160030b81526020013373ffffffffffffffffffffffffffffffffffffffff168152602001428152602001600015158152506007600060065481526020019081526020016000206000820151816000015560208201518160010190805190602001906113b292919061276b565b5060408201518160020190805190602001906113cf92919061276b565b5060608201518160030190805190602001906113ec92919061276b565b506080820151816004015560a08201518160050160006101000a81548163ffffffff021916908360030b63ffffffff16021790555060c08201518160050160046101000a81548173ffffffffffffffffffffffffffffffffffffffff021916908373ffffffffffffffffffffffffffffffffffffffff16021790555060e082015181600601556101008201518160070160006101000a81548160ff02191690831515021790555090505060016006546114a59190613803565b6006819055507f6fcd75c85744f5cca7f08ab44eac7bc7d9a892f9d67f3d038f9dc911cdeb531f6006546040516114dc9190613249565b60405180910390a161156c83838080601f016020809104026020016040519081016040528093929190818152602001838380828437600081840152601f19601f8201169050808301925050505050505060006040518060400160405280600d81526020017f50726f6475637420416464656400000000000000000000000000000000000000815250600654610e01565b505050505050505050565b60065481565b60076020528060005260406000206000915090508060000154908060010180546115a690613949565b80601f01602080910402602001604051908101604052809291908181526020018280546115d290613949565b801561161f5780601f106115f45761010080835404028352916020019161161f565b820191906000526020600020905b81548152906001019060200180831161160257829003601f168201915b50505050509080600201805461163490613949565b80601f016020809104026020016040519081016040528092919081815260200182805461166090613949565b80156116ad5780601f10611682576101008083540402835291602001916116ad565b820191906000526020600020905b81548152906001019060200180831161169057829003601f168201915b5050505050908060030180546116c290613949565b80601f01602080910402602001604051908101604052809291908181526020018280546116ee90613949565b801561173b5780601f106117105761010080835404028352916020019161173b565b820191906000526020600020905b81548152906001019060200180831161171e57829003601f168201915b5050505050908060040154908060050160009054906101000a900460030b908060050160049054906101000a900473ffffffffffffffffffffffffffffffffffffffff16908060060154908060070160009054906101000a900460ff16905089565b6117a633611bee565b6117e5576040517f08c379a00000000000000000000000000000000000000000000000000000000081526004016117dc906138cb565b60405180910390fd5b6117ee81612519565b50565b60008060608060076000868152602001908152602001600020600001546007600087815260200190815260200160002060040154600760008881526020019081526020016000206001016007600089815260200190815260200160002060020181805461185d90613949565b80601f016020809104026020016040519081016040528092919081815260200182805461188990613949565b80156118d65780601f106118ab576101008083540402835291602001916118d6565b820191906000526020600020905b8154815290600101906020018083116118b957829003601f168201915b505050505091508080546118e990613949565b80601f016020809104026020016040519081016040528092919081815260200182805461191590613949565b80156119625780601f1061193757610100808354040283529160200191611962565b820191906000526020600020905b81548152906001019060200180831161194557829003601f168201915b5050505050905093509350935093509193509193565b60008060608060008061198a33611050565b6119c9576040517f08c379a00000000000000000000000000000000000000000000000000000000081526004016119c0906137b4565b60405180910390fd5b6000600a60008981526020019081526020016000206002015490506007600082815260200190815260200160002060040154600e54611a089190613803565b600e81905550600a60008981526020019081526020016000206002015460076000838152602001908152602001600020600401546007600084815260200190815260200160002060010160076000858152602001908152602001600020600201600a600086815260200190815260200160002060010154600a600087815260200190815260200160002060040160009054906101000a900460ff16838054611aaf90613949565b80601f0160208091040260200160405190810160405280929190818152602001828054611adb90613949565b8015611b285780601f10611afd57610100808354040283529160200191611b28565b820191906000526020600020905b815481529060010190602001808311611b0b57829003601f168201915b50505050509350828054611b3b90613949565b80601f0160208091040260200160405190810160405280929190818152602001828054611b6790613949565b8015611bb45780601f10611b8957610100808354040283529160200191611bb4565b820191906000526020600020905b815481529060010190602001808311611b9757829003601f168201915b505050505092509650965096509650965096505091939550919395565b611bd96110b3565b611be257600080fd5b611beb81612573565b50565b6000611c0482600361245190919063ffffffff16565b9050919050565b606060006001600654611c1e9190613a56565b67ffffffffffffffff811115611c3757611c3661293b565b5b604051908082528060200260200182016040528015611c7057816020015b611c5d612823565b815260200190600190039081611c555790505b50905060005b6001600654611c859190613a56565b811015611f5057600060076000600184611c9f9190613803565b81526020019081526020016000209050806040518061012001604052908160008201548152602001600182018054611cd690613949565b80601f0160208091040260200160405190810160405280929190818152602001828054611d0290613949565b8015611d4f5780601f10611d2457610100808354040283529160200191611d4f565b820191906000526020600020905b815481529060010190602001808311611d3257829003601f168201915b50505050508152602001600282018054611d6890613949565b80601f0160208091040260200160405190810160405280929190818152602001828054611d9490613949565b8015611de15780601f10611db657610100808354040283529160200191611de1565b820191906000526020600020905b815481529060010190602001808311611dc457829003601f168201915b50505050508152602001600382018054611dfa90613949565b80601f0160208091040260200160405190810160405280929190818152602001828054611e2690613949565b8015611e735780601f10611e4857610100808354040283529160200191611e73565b820191906000526020600020905b815481529060010190602001808311611e5657829003601f168201915b50505050508152602001600482015481526020016005820160009054906101000a900460030b60030b60030b81526020016005820160049054906101000a900473ffffffffffffffffffffffffffffffffffffffff1673ffffffffffffffffffffffffffffffffffffffff1673ffffffffffffffffffffffffffffffffffffffff168152602001600682015481526020016007820160009054906101000a900460ff161515151581525050838381518110611f3157611f306138eb565b5b6020026020010181905250508080611f489061397b565b915050611c76565b508091505090565b611f613361266a565b565b60606000600d5467ffffffffffffffff811115611f8357611f8261293b565b5b604051908082528060200260200182016040528015611fbc57816020015b611fa961288a565b815260200190600190039081611fa15790505b50905060005b600d548110156121f4576000600c60008381526020019081526020016000209050806040518060e001604052908160008201548152602001600182015481526020016002820160009054906101000a900473ffffffffffffffffffffffffffffffffffffffff1673ffffffffffffffffffffffffffffffffffffffff1673ffffffffffffffffffffffffffffffffffffffff16815260200160038201805461206990613949565b80601f016020809104026020016040519081016040528092919081815260200182805461209590613949565b80156120e25780601f106120b7576101008083540402835291602001916120e2565b820191906000526020600020905b8154815290600101906020018083116120c557829003601f168201915b50505050508152602001600482015481526020016005820160009054906101000a900460ff16600481111561211a57612119612e90565b5b600481111561212c5761212b612e90565b5b815260200160068201805461214090613949565b80601f016020809104026020016040519081016040528092919081815260200182805461216c90613949565b80156121b95780601f1061218e576101008083540402835291602001916121b9565b820191906000526020600020905b81548152906001019060200180831161219c57829003601f168201915b5050505050815250508383815181106121d5576121d46138eb565b5b60200260200101819052505080806121ec9061397b565b915050611fc2565b508091505090565b6122068282612451565b15612246576040517f08c379a000000000000000000000000000000000000000000000000000000000815260040161223d90613ad6565b60405180910390fd5b60018260000160008373ffffffffffffffffffffffffffffffffffffffff1673ffffffffffffffffffffffffffffffffffffffff16815260200190815260200160002060006101000a81548160ff0219169083151502179055505050565b6000600190505b600b8054905081116122e55781600a60008381526020019081526020016000206001018190555080806122dd9061397b565b9150506122ab565b5050565b6122fd8160026121fc90919063ffffffff16565b8073ffffffffffffffffffffffffffffffffffffffff167f28b26e7a3d20aedbc5f8f2ebf7da671c0491723a2b78f47a097b0e46dee0714260405160405180910390a250565b6123578160026126c490919063ffffffff16565b8073ffffffffffffffffffffffffffffffffffffffff167fe3f5ed5f263f1f01764a96edfc7d025f511ec5f7d180e8816908b78bcf74f09860405160405180910390a250565b6123b18160016126c490919063ffffffff16565b8073ffffffffffffffffffffffffffffffffffffffff167f126174f6cf49c81cdb4a9214c6b8f037bef55b4ec31e4fc776cea2a1c8a88d5960405160405180910390a250565b61240b8160016121fc90919063ffffffff16565b8073ffffffffffffffffffffffffffffffffffffffff167fddbf200aa634dc3fb81cfd68583dd1040d1c751d335e1d86b631bde3e977fea860405160405180910390a250565b60008073ffffffffffffffffffffffffffffffffffffffff168273ffffffffffffffffffffffffffffffffffffffff1614156124c2576040517f08c379a00000000000000000000000000000000000000000000000000000000081526004016124b990613b68565b60405180910390fd5b8260000160008373ffffffffffffffffffffffffffffffffffffffff1673ffffffffffffffffffffffffffffffffffffffff16815260200190815260200160002060009054906101000a900460ff16905092915050565b61252d8160036121fc90919063ffffffff16565b8073ffffffffffffffffffffffffffffffffffffffff167f2977383b0207d39ef14220620b6cf3e6c9b6e78592af90baeef6614ed2fcd2c660405160405180910390a250565b600073ffffffffffffffffffffffffffffffffffffffff168173ffffffffffffffffffffffffffffffffffffffff1614156125ad57600080fd5b8073ffffffffffffffffffffffffffffffffffffffff1660008054906101000a900473ffffffffffffffffffffffffffffffffffffffff1673ffffffffffffffffffffffffffffffffffffffff167f5c486528ec3e3f0ea91181cff8116f02bfa350e03b8b6f12e00765adbb5af85c60405160405180910390a3806000806101000a81548173ffffffffffffffffffffffffffffffffffffffff021916908373ffffffffffffffffffffffffffffffffffffffff16021790555050565b61267e8160036126c490919063ffffffff16565b8073ffffffffffffffffffffffffffffffffffffffff167fb78e9906c5bae930ccf756a5214c9855b1782f0eb30f9566de2384f034af48f360405160405180910390a250565b6126ce8282612451565b61270d576040517f08c379a000000000000000000000000000000000000000000000000000000000815260040161270490613bfa565b60405180910390fd5b60008260000160008373ffffffffffffffffffffffffffffffffffffffff1673ffffffffffffffffffffffffffffffffffffffff16815260200190815260200160002060006101000a81548160ff0219169083151502179055505050565b82805461277790613949565b90600052602060002090601f01602090048101928261279957600085556127e0565b82601f106127b257805160ff19168380011785556127e0565b828001600101855582156127e0579182015b828111156127df5782518255916020019190600101906127c4565b5b5090506127ed91906128ef565b5090565b6040518060a0016040528060008152602001600081526020016060815260200160608152602001600060030b81525090565b6040518061012001604052806000815260200160608152602001606081526020016060815260200160008152602001600060030b8152602001600073ffffffffffffffffffffffffffffffffffffffff168152602001600081526020016000151581525090565b6040518060e001604052806000815260200160008152602001600073ffffffffffffffffffffffffffffffffffffffff1681526020016060815260200160008152602001600060048111156128e2576128e1612e90565b5b8152602001606081525090565b5b808211156129085760008160009055506001016128f0565b5090565b6000604051905090565b600080fd5b600080fd5b600080fd5b600080fd5b6000601f19601f8301169050919050565b7f4e487b7100000000000000000000000000000000000000000000000000000000600052604160045260246000fd5b6129738261292a565b810181811067ffffffffffffffff821117156129925761299161293b565b5b80604052505050565b60006129a561290c565b90506129b1828261296a565b919050565b600067ffffffffffffffff8211156129d1576129d061293b565b5b6129da8261292a565b9050602081019050919050565b82818337600083830152505050565b6000612a09612a04846129b6565b61299b565b905082815260208101848484011115612a2557612a24612925565b5b612a308482856129e7565b509392505050565b600082601f830112612a4d57612a4c612920565b5b8135612a5d8482602086016129f6565b91505092915050565b600060208284031215612a7c57612a7b612916565b5b600082013567ffffffffffffffff811115612a9a57612a9961291b565b5b612aa684828501612a38565b91505092915050565b6000819050919050565b612ac281612aaf565b8114612acd57600080fd5b50565b600081359050612adf81612ab9565b92915050565b600060208284031215612afb57612afa612916565b5b6000612b0984828501612ad0565b91505092915050565b600073ffffffffffffffffffffffffffffffffffffffff82169050919050565b6000612b3d82612b12565b9050919050565b612b4d81612b32565b82525050565b6000602082019050612b686000830184612b44565b92915050565b612b7781612b32565b8114612b8257600080fd5b50565b600081359050612b9481612b6e565b92915050565b600060208284031215612bb057612baf612916565b5b6000612bbe84828501612b85565b91505092915050565b60008060408385031215612bde57612bdd612916565b5b6000612bec85828601612ad0565b925050602083013567ffffffffffffffff811115612c0d57612c0c61291b565b5b612c1985828601612a38565b9150509250929050565b600081519050919050565b600082825260208201905092915050565b6000819050602082019050919050565b612c5881612aaf565b82525050565b600081519050919050565b600082825260208201905092915050565b60005b83811015612c98578082015181840152602081019050612c7d565b83811115612ca7576000848401525b50505050565b6000612cb882612c5e565b612cc28185612c69565b9350612cd2818560208601612c7a565b612cdb8161292a565b840191505092915050565b60008160030b9050919050565b612cfc81612ce6565b82525050565b600060a083016000830151612d1a6000860182612c4f565b506020830151612d2d6020860182612c4f565b5060408301518482036040860152612d458282612cad565b91505060608301518482036060860152612d5f8282612cad565b9150506080830151612d746080860182612cf3565b508091505092915050565b6000612d8b8383612d02565b905092915050565b6000602082019050919050565b6000612dab82612c23565b612db58185612c2e565b935083602082028501612dc785612c3f565b8060005b85811015612e035784840389528151612de48582612d7f565b9450612def83612d93565b925060208a01995050600181019050612dcb565b50829750879550505050505092915050565b60006020820190508181036000830152612e2f8184612da0565b905092915050565b612e4081612aaf565b82525050565b600082825260208201905092915050565b6000612e6282612c5e565b612e6c8185612e46565b9350612e7c818560208601612c7a565b612e858161292a565b840191505092915050565b7f4e487b7100000000000000000000000000000000000000000000000000000000600052602160045260246000fd5b60058110612ed057612ecf612e90565b5b50565b6000819050612ee182612ebf565b919050565b6000612ef182612ed3565b9050919050565b612f0181612ee6565b82525050565b600060e082019050612f1c600083018a612e37565b612f296020830189612e37565b612f366040830188612b44565b8181036060830152612f488187612e57565b9050612f576080830186612e37565b612f6460a0830185612ef8565b81810360c0830152612f768184612e57565b905098975050505050505050565b60058110612f9157600080fd5b50565b600081359050612fa381612f84565b92915050565b60008060008060808587031215612fc357612fc2612916565b5b600085013567ffffffffffffffff811115612fe157612fe061291b565b5b612fed87828801612a38565b9450506020612ffe87828801612f94565b935050604085013567ffffffffffffffff81111561301f5761301e61291b565b5b61302b87828801612a38565b925050606061303c87828801612ad0565b91505092959194509250565b60008115159050919050565b61305d81613048565b82525050565b60006020820190506130786000830184613054565b92915050565b60008060006060848603121561309757613096612916565b5b60006130a586828701612ad0565b93505060206130b686828701612b85565b925050604084013567ffffffffffffffff8111156130d7576130d661291b565b5b6130e386828701612a38565b9150509250925092565b600080fd5b600080fd5b60008083601f84011261310d5761310c612920565b5b8235905067ffffffffffffffff81111561312a576131296130ed565b5b602083019150836001820283011115613146576131456130f2565b5b9250929050565b600080600080600080600080600060a08a8c03121561316f5761316e612916565b5b60008a013567ffffffffffffffff81111561318d5761318c61291b565b5b6131998c828d016130f7565b995099505060208a013567ffffffffffffffff8111156131bc576131bb61291b565b5b6131c88c828d016130f7565b975097505060408a013567ffffffffffffffff8111156131eb576131ea61291b565b5b6131f78c828d016130f7565b955095505060608a013567ffffffffffffffff81111561321a5761321961291b565b5b6132268c828d016130f7565b935093505060806132398c828d01612ad0565b9150509295985092959850929598565b600060208201905061325e6000830184612e37565b92915050565b61326d81612ce6565b82525050565b600061012082019050613289600083018c612e37565b818103602083015261329b818b612e57565b905081810360408301526132af818a612e57565b905081810360608301526132c38189612e57565b90506132d26080830188612e37565b6132df60a0830187613264565b6132ec60c0830186612b44565b6132f960e0830185612e37565b613307610100830184613054565b9a9950505050505050505050565b600060808201905061332a6000830187612e37565b6133376020830186612e37565b81810360408301526133498185612e57565b9050818103606083015261335d8184612e57565b905095945050505050565b600060c08201905061337d6000830189612e37565b61338a6020830188612e37565b818103604083015261339c8187612e57565b905081810360608301526133b08186612e57565b90506133bf6080830185612e37565b6133cc60a0830184612ef8565b979650505050505050565b600081519050919050565b600082825260208201905092915050565b6000819050602082019050919050565b61340c81612b32565b82525050565b61341b81613048565b82525050565b60006101208301600083015161343a6000860182612c4f565b50602083015184820360208601526134528282612cad565b9150506040830151848203604086015261346c8282612cad565b915050606083015184820360608601526134868282612cad565b915050608083015161349b6080860182612c4f565b5060a08301516134ae60a0860182612cf3565b5060c08301516134c160c0860182613403565b5060e08301516134d460e0860182612c4f565b506101008301516134e9610100860182613412565b508091505092915050565b60006135008383613421565b905092915050565b6000602082019050919050565b6000613520826133d7565b61352a81856133e2565b93508360208202850161353c856133f3565b8060005b85811015613578578484038952815161355985826134f4565b945061356483613508565b925060208a01995050600181019050613540565b50829750879550505050505092915050565b600060208201905081810360008301526135a48184613515565b905092915050565b600081519050919050565b600082825260208201905092915050565b6000819050602082019050919050565b6135e181612ee6565b82525050565b600060e0830160008301516135ff6000860182612c4f565b5060208301516136126020860182612c4f565b5060408301516136256040860182613403565b506060830151848203606086015261363d8282612cad565b91505060808301516136526080860182612c4f565b5060a083015161366560a08601826135d8565b5060c083015184820360c086015261367d8282612cad565b9150508091505092915050565b600061369683836135e7565b905092915050565b6000602082019050919050565b60006136b6826135ac565b6136c081856135b7565b9350836020820285016136d2856135c8565b8060005b8581101561370e57848403895281516136ef858261368a565b94506136fa8361369e565b925060208a019950506001810190506136d6565b50829750879550505050505092915050565b6000602082019050818103600083015261373a81846136ab565b905092915050565b7f436f6e73756d6572526f6c653a2063616c6c657220646f6573206e6f7420686160008201527f76652074686520436f6e73756d657220726f6c65000000000000000000000000602082015250565b600061379e603483612e46565b91506137a982613742565b604082019050919050565b600060208201905081810360008301526137cd81613791565b9050919050565b7f4e487b7100000000000000000000000000000000000000000000000000000000600052601160045260246000fd5b600061380e82612aaf565b915061381983612aaf565b9250827fffffffffffffffffffffffffffffffffffffffffffffffffffffffffffffffff0382111561384e5761384d6137d4565b5b828201905092915050565b7f50726f6475636572526f6c653a2063616c6c657220646f6573206e6f7420686160008201527f7665207468652050726f647563657220726f6c65000000000000000000000000602082015250565b60006138b5603483612e46565b91506138c082613859565b604082019050919050565b600060208201905081810360008301526138e4816138a8565b9050919050565b7f4e487b7100000000000000000000000000000000000000000000000000000000600052603260045260246000fd5b7f4e487b7100000000000000000000000000000000000000000000000000000000600052602260045260246000fd5b6000600282049050600182168061396157607f821691505b602082108114156139755761397461391a565b5b50919050565b600061398682612aaf565b91507fffffffffffffffffffffffffffffffffffffffffffffffffffffffffffffffff8214156139b9576139b86137d4565b5b600182019050919050565b7f4469737472696275746f72526f6c653a2063616c6c657220646f6573206e6f7460008201527f206861766520746865204469737472696275746f7220726f6c65000000000000602082015250565b6000613a20603a83612e46565b9150613a2b826139c4565b604082019050919050565b60006020820190508181036000830152613a4f81613a13565b9050919050565b6000613a6182612aaf565b9150613a6c83612aaf565b925082821015613a7f57613a7e6137d4565b5b828203905092915050565b7f526f6c65733a206163636f756e7420616c72656164792068617320726f6c6500600082015250565b6000613ac0601f83612e46565b9150613acb82613a8a565b602082019050919050565b60006020820190508181036000830152613aef81613ab3565b9050919050565b7f526f6c65733a206163636f756e7420697320746865207a65726f20616464726560008201527f7373000000000000000000000000000000000000000000000000000000000000602082015250565b6000613b52602283612e46565b9150613b5d82613af6565b604082019050919050565b60006020820190508181036000830152613b8181613b45565b9050919050565b7f526f6c65733a206163636f756e7420646f6573206e6f74206861766520726f6c60008201527f6500000000000000000000000000000000000000000000000000000000000000602082015250565b6000613be4602183612e46565b9150613bef82613b88565b604082019050919050565b60006020820190508181036000830152613c1381613bd7565b905091905056fea26469706673582212203776d25bccccaaf45688e24d5d36275d98188fcd879fa00adc31038bc3011af164736f6c634300080c0033",
  "immutableReferences": {},
  "source": "// SPDX-License-Identifier: MIT\r\n\r\npragma solidity >=0.6.00;\r\n\r\n// Importing the necessary sol files\r\nimport \"../core/Ownable.sol\";\r\nimport \"../access/roles/ConsumerRole.sol\";\r\nimport \"../access/roles/DistributorRole.sol\";\r\nimport \"../access/roles/ProducerRole.sol\";\r\n\r\n// Define a contract 'Supplychain'\r\ncontract SupplyChain is\r\n    Ownable,\r\n    DistributorRole,\r\n    ConsumerRole,\r\n    ProducerRole\r\n{\r\n    enum OrderState {\r\n        Ordered,\r\n        PaymentCompleted,\r\n        Completed\r\n    }\r\n\r\n    enum OrderItemState {\r\n        Produced,\r\n        Ordered,\r\n        CustomerDeliveryConfirmed,\r\n        Delivered,\r\n        DistributorAdded\r\n    }\r\n\r\n    struct Order {\r\n        uint orderId;\r\n        address orderedBy; // consumer metamask address \r\n        uint totalAmount;\r\n        string location; // order placed location\r\n    }\r\n\r\n    struct OrderItem {\r\n        uint orderItemId;\r\n        uint orderId;\r\n        uint productId;\r\n        uint price;\r\n        OrderItemState itemState;\r\n        address distributor;   // distributor address \r\n        address dispatcher; // dispatcher address\r\n        string location;\r\n    }\r\n\r\n    struct Product {\r\n        uint productId;\r\n        string productName;\r\n        string productDesc;\r\n        string producerName;\r\n        uint price; \r\n        int32 quantity;\r\n        address createdBy;   // producer address\r\n        uint createdDate;\r\n        bool isDeleted;\r\n    }\r\n\r\n    struct ActivityLog {\r\n        uint activityId;\r\n        uint productId;\r\n        address createdBy; \r\n        string location;\r\n        uint256 createdDateTime;\r\n        OrderItemState currentState; \r\n        string stateInString;\r\n    }\r\n\r\n    struct TempOrderDetail {\r\n        uint orderId;\r\n        uint price;\r\n        string productDesc;\r\n        string producerName;\r\n        int32 quantity;\r\n    }\r\n\r\n    // orderId -> Order\r\n    mapping(uint => TempOrderDetail) tempMapping;\r\n    uint[] tempIndexer;\r\n\r\n    // Define a variable called productIndex\r\n    uint256 public productIndex;\r\n\r\n    // productId -> product\r\n     mapping(uint256 => Product) public productMapping;\r\n\r\n    // orderId -> Order\r\n    mapping(uint => Order) orderMapping;\r\n    uint[] orderIndexer;\r\n\r\n    // orderItemId -> order item\r\n    mapping(uint => OrderItem) cartMapping;\r\n    uint[] cartIndexer; // cart indexer\r\n\r\n    // activityId -> activity log\r\n    mapping(uint => ActivityLog) public activityLog;\r\n    uint logIndexer; // cart indexer\r\n\r\n    // totalamount\r\n    uint totalAmount;\r\n   \r\n    // Define events of Oreder item\r\n    event ItemProduced(uint productId);\r\n    event ItemAddedInCart(uint productId);\r\n    event ItemDispatched(uint productId);\r\n    event ItemDelivered(uint productId);\r\n    event ItemDeliveredCustomerConfirmation(uint productId);\r\n\r\n    // Define events for order\r\n    event OrderPlaced(uint orderId);\r\n    event OrderComplete(uint orderId);\r\n\r\n    constructor() public {\r\n        productIndex = 1;\r\n    }\r\n\r\n    // adds a product in the list.\r\n    function addProducts(string calldata product_Name, string calldata product_Desc, string calldata producer_Name, string calldata _location, uint price) public onlyProducer\r\n    {\r\n        productMapping[productIndex] = Product (productIndex, product_Name, product_Desc, producer_Name, price,\r\n        1, msg.sender, block.timestamp, false);\r\n \r\n        productIndex = productIndex + 1;\r\n\r\n        emit ItemProduced(productIndex);\r\n\r\n        addLog(_location, OrderItemState.Produced, \"Product Added\", productIndex);\r\n    }\r\n\r\n    // create a log\r\n    function addLog(string memory _location, OrderItemState _state, string memory _stateInString, uint _productId) public {\r\n     \r\n        activityLog[logIndexer].activityId = logIndexer + 1;\r\n        activityLog[logIndexer].createdBy = msg.sender;\r\n        activityLog[logIndexer].location = _location;\r\n        activityLog[logIndexer].createdDateTime = block.timestamp;\r\n        activityLog[logIndexer].currentState = _state;\r\n        activityLog[logIndexer].stateInString = _stateInString;\r\n        activityLog[logIndexer].productId = _productId;\r\n\r\n        logIndexer++;\r\n    }\r\n\r\n    //return logs\r\n    function getLogs() public view returns (ActivityLog[] memory){\r\n        \r\n        ActivityLog[] memory logs = new ActivityLog[](logIndexer);\r\n        \r\n        for (uint i = 0; i < logIndexer; i++) {\r\n            ActivityLog storage log = activityLog[i];\r\n            logs[i] = log;\r\n        }\r\n\r\n        return logs;\r\n    }\r\n\r\n    //return products\r\n    function getProuducts() public view returns (Product[] memory){\r\n        \r\n        Product[] memory products = new Product[](productIndex-1);\r\n        \r\n        for (uint i = 0; i < productIndex-1 ; i++) {\r\n            Product storage product = productMapping[i+1];\r\n            products[i] = product;\r\n        }\r\n\r\n        return products;\r\n    }\r\n\r\n    // fetches the product.\r\n    function viewProduct(uint productId) public view returns(uint, uint256, string memory, string memory)\r\n    {\r\n        return (productMapping[productId].productId,\r\n                productMapping[productId].price, \r\n                productMapping[productId].productName, \r\n                productMapping[productId].productDesc);\r\n    }\r\n\r\n    // adds item in the cart.\r\n    function addItemInCart(uint productId, string memory _location) public onlyConsumer\r\n    {\r\n        uint index = cartIndexer.length + 1;   // cartinde\r\n\r\n        cartMapping[index].orderItemId = index;\r\n        cartMapping[index].productId = productId;\r\n        cartMapping[index].itemState = OrderItemState.Ordered;\r\n        cartIndexer.push(index);\r\n\r\n        addLog(_location, OrderItemState.Ordered, \"Product Ordered\", productId);  // product added.\r\n\r\n        emit ItemAddedInCart(index);  // item added event.\r\n    }\r\n\r\n    // view cart item\r\n    function viewCartItems(uint cartIndex) public onlyConsumer returns(uint, uint, string memory, string memory, uint, OrderItemState)\r\n    {\r\n        uint itemIndex = cartMapping[cartIndex].productId;\r\n\r\n        totalAmount = totalAmount + productMapping[itemIndex].price;\r\n\r\n        return (cartMapping[cartIndex].productId,\r\n                productMapping[itemIndex].price,\r\n                productMapping[itemIndex].productName, \r\n                productMapping[itemIndex].productDesc,\r\n                cartMapping[itemIndex].orderId,\r\n                cartMapping[itemIndex].itemState);\r\n    }\r\n\r\n    // creates order\r\n    function createOrder(string memory _location) public onlyConsumer\r\n    {\r\n        uint orderIndex = orderIndexer.length + 1;\r\n        \r\n        orderMapping[orderIndex].orderId = orderIndex;\r\n        orderMapping[orderIndex].orderedBy = msg.sender;\r\n        orderMapping[orderIndex].totalAmount = totalAmount;  // total order amount;\r\n        orderMapping[orderIndex].location = _location;\r\n\r\n        orderIndexer.push(orderIndex); \r\n        \r\n        linkCartItems(orderIndex); // link cart items with order.\r\n\r\n        emit OrderPlaced(orderIndex);     // emit event order placed.      \r\n    }\r\n\r\n    // add orderid to cartItems\r\n    function linkCartItems(uint _orderId) private\r\n    {\r\n        for (uint i = 1; i <= cartIndexer.length; i++) {\r\n            cartMapping[i].orderId = _orderId;\r\n        }\r\n    }\r\n\r\n    // add distributor \r\n    function addDistributorToOrderItem(uint _orderItem, address _distributor, string memory _location) public onlyProducer \r\n    {\r\n        cartMapping[_orderItem].distributor = _distributor;\r\n        addLog(_location, OrderItemState.Ordered, \"Picked up for Delivery\", cartMapping[_orderItem].productId);  // distributor added.\r\n    }\r\n\r\n    // view distributor\r\n    function viewDistributor(uint _orderItem) public view onlyProducer returns (address)\r\n    {\r\n        return (cartMapping[_orderItem].distributor);\r\n    }\r\n\r\n    // item delivered distributor confirmation\r\n    function orderDelivered(uint _orderItem, string memory _location) public onlyDistributor \r\n    {\r\n        // if(cartMapping[_orderItem].itemState == OrderItemState.CustomerDeliveryConfirmed)\r\n        //     cartMapping[_orderItem].itemState = OrderItemState.Delivered;\r\n        \r\n        emit ItemDelivered(_orderItem);\r\n        addLog(_location, OrderItemState.Ordered, \"Delivered to Customer\", cartMapping[_orderItem].productId);  // delivered.\r\n\r\n    }\r\n\r\n    // item delivery customer confirmation\r\n    // function customerConfirmation(uint _orderItem, string memory _location) public onlyConsumer \r\n    // {\r\n    //     cartMapping[_orderItem].itemState = OrderItemState.CustomerDeliveryConfirmed;\r\n\r\n    //     emit ItemDeliveredCustomerConfirmation(_orderItem);\r\n    //     addLog(_location, OrderItemState.CustomerDeliveryConfirmed, \"Customer Confirmation\", cartMapping[_orderItem].productId); // customer confirmation.\r\n    // }\r\n\r\n    // fetches order details\r\n    function viewOrder() public view returns(TempOrderDetail[] memory)\r\n    {\r\n        TempOrderDetail[] memory tempItems = new TempOrderDetail[](cartIndexer.length);\r\n\r\n        for (uint i = 0; i < cartIndexer.length ; i++) {\r\n            \r\n            OrderItem storage item = cartMapping[i+1];\r\n            Product storage product = productMapping[i+1];\r\n\r\n            tempItems[i].orderId = item.orderId;\r\n            tempItems[i].productDesc = product.productName;\r\n            tempItems[i].producerName = product.productDesc;\r\n            tempItems[i].price = product.price;\r\n            tempItems[i].quantity = 1;\r\n\r\n        }\r\n\r\n        return tempItems;\r\n    }\r\n\r\n}\r\n\r\n",
  "sourcePath": "C:\\Blockchain_POC\\smart-contracts\\contracts\\base\\SupplyChain.sol",
  "compiler": {
    "name": "solc",
    "version": "0.8.12+commit.f00d7308.Emscripten.clang"
  },
  "schemaVersion": "3.4.6",
  "updatedAt": "2022-04-25T12:31:46.241Z",
  "networkType": "ethereum",
  "devdoc": {
    "kind": "dev",
    "methods": {},
    "version": 1
  },
  "userdoc": {
    "kind": "user",
    "methods": {
      "isOwner()": {
        "notice": "Check if the calling address is the owner of the contract"
      },
      "owner()": {
        "notice": "Look up the address of the owner"
      },
      "renounceOwnership()": {
        "notice": "Define a function to renounce ownerhip"
      },
      "transferOwnership(address)": {
        "notice": "Define a public function to transfer ownership"
      }
    },
    "version": 1
  }
}