{
  "contractName": "SupplyChain",
  "abi": [
    {
      "inputs": [],
      "stateMutability": "payable",
      "type": "constructor",
      "payable": true
    },
    {
      "anonymous": false,
      "inputs": [
        {
          "indexed": true,
          "internalType": "address",
          "name": "account",
          "type": "address"
        }
      ],
      "name": "ConsumerAdded",
      "type": "event"
    },
    {
      "anonymous": false,
      "inputs": [
        {
          "indexed": true,
          "internalType": "address",
          "name": "account",
          "type": "address"
        }
      ],
      "name": "ConsumerRemoved",
      "type": "event"
    },
    {
      "anonymous": false,
      "inputs": [
        {
          "indexed": true,
          "internalType": "address",
          "name": "account",
          "type": "address"
        }
      ],
      "name": "DistributorAdded",
      "type": "event"
    },
    {
      "anonymous": false,
      "inputs": [
        {
          "indexed": true,
          "internalType": "address",
          "name": "account",
          "type": "address"
        }
      ],
      "name": "DistributorRemoved",
      "type": "event"
    },
    {
      "anonymous": false,
      "inputs": [
        {
          "indexed": false,
          "internalType": "uint256",
          "name": "productId",
          "type": "uint256"
        }
      ],
      "name": "ItemAddedInCart",
      "type": "event"
    },
    {
      "anonymous": false,
      "inputs": [
        {
          "indexed": false,
          "internalType": "uint256",
          "name": "productId",
          "type": "uint256"
        }
      ],
      "name": "ItemDelivered",
      "type": "event"
    },
    {
      "anonymous": false,
      "inputs": [
        {
          "indexed": false,
          "internalType": "uint256",
          "name": "productId",
          "type": "uint256"
        }
      ],
      "name": "ItemDeliveredCustomerConfirmation",
      "type": "event"
    },
    {
      "anonymous": false,
      "inputs": [
        {
          "indexed": false,
          "internalType": "uint256",
          "name": "productId",
          "type": "uint256"
        }
      ],
      "name": "ItemDispatched",
      "type": "event"
    },
    {
      "anonymous": false,
      "inputs": [
        {
          "indexed": false,
          "internalType": "uint256",
          "name": "productId",
          "type": "uint256"
        }
      ],
      "name": "ItemProduced",
      "type": "event"
    },
    {
      "anonymous": false,
      "inputs": [
        {
          "indexed": false,
          "internalType": "uint256",
          "name": "orderId",
          "type": "uint256"
        }
      ],
      "name": "OrderComplete",
      "type": "event"
    },
    {
      "anonymous": false,
      "inputs": [
        {
          "indexed": false,
          "internalType": "uint256",
          "name": "orderId",
          "type": "uint256"
        }
      ],
      "name": "OrderPlaced",
      "type": "event"
    },
    {
      "anonymous": false,
      "inputs": [
        {
          "indexed": true,
          "internalType": "address",
          "name": "account",
          "type": "address"
        }
      ],
      "name": "ProducerAdded",
      "type": "event"
    },
    {
      "anonymous": false,
      "inputs": [
        {
          "indexed": true,
          "internalType": "address",
          "name": "account",
          "type": "address"
        }
      ],
      "name": "ProducerRemoved",
      "type": "event"
    },
    {
      "anonymous": false,
      "inputs": [
        {
          "indexed": true,
          "internalType": "address",
          "name": "oldOwner",
          "type": "address"
        },
        {
          "indexed": true,
          "internalType": "address",
          "name": "newOwner",
          "type": "address"
        }
      ],
      "name": "TransferOwnership",
      "type": "event"
    },
    {
      "inputs": [
        {
          "internalType": "uint256",
          "name": "",
          "type": "uint256"
        }
      ],
      "name": "activityLog",
      "outputs": [
        {
          "internalType": "uint256",
          "name": "activityId",
          "type": "uint256"
        },
        {
          "internalType": "address",
          "name": "createdBy",
          "type": "address"
        },
        {
          "internalType": "string",
          "name": "location",
          "type": "string"
        },
        {
          "internalType": "uint256",
          "name": "createdDateTime",
          "type": "uint256"
        },
        {
          "internalType": "enum SupplyChain.OrderItemState",
          "name": "currentState",
          "type": "uint8"
        }
      ],
      "stateMutability": "view",
      "type": "function",
      "constant": true
    },
    {
      "inputs": [
        {
          "internalType": "address",
          "name": "account",
          "type": "address"
        }
      ],
      "name": "addConsumer",
      "outputs": [],
      "stateMutability": "nonpayable",
      "type": "function"
    },
    {
      "inputs": [
        {
          "internalType": "address",
          "name": "account",
          "type": "address"
        }
      ],
      "name": "addDistributor",
      "outputs": [],
      "stateMutability": "nonpayable",
      "type": "function"
    },
    {
      "inputs": [
        {
          "internalType": "address",
          "name": "account",
          "type": "address"
        }
      ],
      "name": "addProducer",
      "outputs": [],
      "stateMutability": "nonpayable",
      "type": "function"
    },
    {
      "inputs": [
        {
          "internalType": "address",
          "name": "account",
          "type": "address"
        }
      ],
      "name": "isConsumer",
      "outputs": [
        {
          "internalType": "bool",
          "name": "",
          "type": "bool"
        }
      ],
      "stateMutability": "view",
      "type": "function",
      "constant": true
    },
    {
      "inputs": [
        {
          "internalType": "address",
          "name": "account",
          "type": "address"
        }
      ],
      "name": "isDistributor",
      "outputs": [
        {
          "internalType": "bool",
          "name": "",
          "type": "bool"
        }
      ],
      "stateMutability": "view",
      "type": "function",
      "constant": true
    },
    {
      "inputs": [],
      "name": "isOwner",
      "outputs": [
        {
          "internalType": "bool",
          "name": "",
          "type": "bool"
        }
      ],
      "stateMutability": "view",
      "type": "function",
      "constant": true
    },
    {
      "inputs": [
        {
          "internalType": "address",
          "name": "account",
          "type": "address"
        }
      ],
      "name": "isProducer",
      "outputs": [
        {
          "internalType": "bool",
          "name": "",
          "type": "bool"
        }
      ],
      "stateMutability": "view",
      "type": "function",
      "constant": true
    },
    {
      "inputs": [],
      "name": "owner",
      "outputs": [
        {
          "internalType": "address",
          "name": "",
          "type": "address"
        }
      ],
      "stateMutability": "view",
      "type": "function",
      "constant": true
    },
    {
      "inputs": [],
      "name": "productIndex",
      "outputs": [
        {
          "internalType": "uint256",
          "name": "",
          "type": "uint256"
        }
      ],
      "stateMutability": "view",
      "type": "function",
      "constant": true
    },
    {
      "inputs": [
        {
          "internalType": "uint256",
          "name": "",
          "type": "uint256"
        }
      ],
      "name": "productMapping",
      "outputs": [
        {
          "internalType": "uint256",
          "name": "productId",
          "type": "uint256"
        },
        {
          "internalType": "string",
          "name": "productName",
          "type": "string"
        },
        {
          "internalType": "string",
          "name": "productDesc",
          "type": "string"
        },
        {
          "internalType": "string",
          "name": "producerName",
          "type": "string"
        },
        {
          "internalType": "uint256",
          "name": "price",
          "type": "uint256"
        },
        {
          "internalType": "int32",
          "name": "quantity",
          "type": "int32"
        },
        {
          "internalType": "address",
          "name": "createdBy",
          "type": "address"
        },
        {
          "internalType": "uint256",
          "name": "createdDate",
          "type": "uint256"
        },
        {
          "internalType": "bool",
          "name": "isDeleted",
          "type": "bool"
        }
      ],
      "stateMutability": "view",
      "type": "function",
      "constant": true
    },
    {
      "inputs": [],
      "name": "renounceConsumer",
      "outputs": [],
      "stateMutability": "nonpayable",
      "type": "function"
    },
    {
      "inputs": [],
      "name": "renounceDistributor",
      "outputs": [],
      "stateMutability": "nonpayable",
      "type": "function"
    },
    {
      "inputs": [],
      "name": "renounceOwnership",
      "outputs": [],
      "stateMutability": "nonpayable",
      "type": "function"
    },
    {
      "inputs": [],
      "name": "renounceProducer",
      "outputs": [],
      "stateMutability": "nonpayable",
      "type": "function"
    },
    {
      "inputs": [
        {
          "internalType": "address",
          "name": "newOwner",
          "type": "address"
        }
      ],
      "name": "transferOwnership",
      "outputs": [],
      "stateMutability": "nonpayable",
      "type": "function"
    },
    {
      "inputs": [
        {
          "internalType": "string",
          "name": "product_Name",
          "type": "string"
        },
        {
          "internalType": "string",
          "name": "product_Desc",
          "type": "string"
        },
        {
          "internalType": "string",
          "name": "producer_Name",
          "type": "string"
        },
        {
          "internalType": "string",
          "name": "_location",
          "type": "string"
        },
        {
          "internalType": "uint256",
          "name": "price",
          "type": "uint256"
        }
      ],
      "name": "addProducts",
      "outputs": [],
      "stateMutability": "nonpayable",
      "type": "function"
    },
    {
      "inputs": [
        {
          "internalType": "string",
          "name": "_location",
          "type": "string"
        },
        {
          "internalType": "enum SupplyChain.OrderItemState",
          "name": "_state",
          "type": "uint8"
        }
      ],
      "name": "addLog",
      "outputs": [],
      "stateMutability": "nonpayable",
      "type": "function"
    },
    {
      "inputs": [],
      "name": "getLogs",
      "outputs": [
        {
          "components": [
            {
              "internalType": "uint256",
              "name": "activityId",
              "type": "uint256"
            },
            {
              "internalType": "address",
              "name": "createdBy",
              "type": "address"
            },
            {
              "internalType": "string",
              "name": "location",
              "type": "string"
            },
            {
              "internalType": "uint256",
              "name": "createdDateTime",
              "type": "uint256"
            },
            {
              "internalType": "enum SupplyChain.OrderItemState",
              "name": "currentState",
              "type": "uint8"
            }
          ],
          "internalType": "struct SupplyChain.ActivityLog[]",
          "name": "",
          "type": "tuple[]"
        }
      ],
      "stateMutability": "view",
      "type": "function",
      "constant": true
    },
    {
      "inputs": [],
      "name": "getProuducts",
      "outputs": [
        {
          "components": [
            {
              "internalType": "uint256",
              "name": "productId",
              "type": "uint256"
            },
            {
              "internalType": "string",
              "name": "productName",
              "type": "string"
            },
            {
              "internalType": "string",
              "name": "productDesc",
              "type": "string"
            },
            {
              "internalType": "string",
              "name": "producerName",
              "type": "string"
            },
            {
              "internalType": "uint256",
              "name": "price",
              "type": "uint256"
            },
            {
              "internalType": "int32",
              "name": "quantity",
              "type": "int32"
            },
            {
              "internalType": "address",
              "name": "createdBy",
              "type": "address"
            },
            {
              "internalType": "uint256",
              "name": "createdDate",
              "type": "uint256"
            },
            {
              "internalType": "bool",
              "name": "isDeleted",
              "type": "bool"
            }
          ],
          "internalType": "struct SupplyChain.Product[]",
          "name": "",
          "type": "tuple[]"
        }
      ],
      "stateMutability": "view",
      "type": "function",
      "constant": true
    },
    {
      "inputs": [
        {
          "internalType": "uint256",
          "name": "productId",
          "type": "uint256"
        }
      ],
      "name": "viewProduct",
      "outputs": [
        {
          "internalType": "uint256",
          "name": "",
          "type": "uint256"
        },
        {
          "internalType": "uint256",
          "name": "",
          "type": "uint256"
        },
        {
          "internalType": "string",
          "name": "",
          "type": "string"
        },
        {
          "internalType": "string",
          "name": "",
          "type": "string"
        }
      ],
      "stateMutability": "view",
      "type": "function",
      "constant": true
    },
    {
      "inputs": [
        {
          "internalType": "uint256",
          "name": "productId",
          "type": "uint256"
        }
      ],
      "name": "addItemInCart",
      "outputs": [],
      "stateMutability": "nonpayable",
      "type": "function"
    },
    {
      "inputs": [
        {
          "internalType": "uint256",
          "name": "cartIndex",
          "type": "uint256"
        }
      ],
      "name": "viewCartItems",
      "outputs": [
        {
          "internalType": "uint256",
          "name": "",
          "type": "uint256"
        },
        {
          "internalType": "uint256",
          "name": "",
          "type": "uint256"
        },
        {
          "internalType": "string",
          "name": "",
          "type": "string"
        },
        {
          "internalType": "string",
          "name": "",
          "type": "string"
        },
        {
          "internalType": "uint256",
          "name": "",
          "type": "uint256"
        },
        {
          "internalType": "enum SupplyChain.OrderItemState",
          "name": "",
          "type": "uint8"
        }
      ],
      "stateMutability": "view",
      "type": "function",
      "constant": true
    },
    {
      "inputs": [
        {
          "internalType": "uint256",
          "name": "_totalAmount",
          "type": "uint256"
        },
        {
          "internalType": "string",
          "name": "_location",
          "type": "string"
        }
      ],
      "name": "createOrder",
      "outputs": [],
      "stateMutability": "nonpayable",
      "type": "function"
    },
    {
      "inputs": [
        {
          "internalType": "uint256",
          "name": "_orderItem",
          "type": "uint256"
        },
        {
          "internalType": "address",
          "name": "_distributor",
          "type": "address"
        },
        {
          "internalType": "string",
          "name": "_location",
          "type": "string"
        }
      ],
      "name": "addDistributorToOrderItem",
      "outputs": [],
      "stateMutability": "nonpayable",
      "type": "function"
    },
    {
      "inputs": [
        {
          "internalType": "uint256",
          "name": "_orderItem",
          "type": "uint256"
        }
      ],
      "name": "viewDistributor",
      "outputs": [
        {
          "internalType": "address",
          "name": "",
          "type": "address"
        }
      ],
      "stateMutability": "view",
      "type": "function",
      "constant": true
    },
    {
      "inputs": [
        {
          "internalType": "uint256",
          "name": "_orderItem",
          "type": "uint256"
        },
        {
          "internalType": "string",
          "name": "_location",
          "type": "string"
        }
      ],
      "name": "orderDelivered",
      "outputs": [],
      "stateMutability": "nonpayable",
      "type": "function"
    },
    {
      "inputs": [
        {
          "internalType": "uint256",
          "name": "_orderItem",
          "type": "uint256"
        },
        {
          "internalType": "string",
          "name": "_location",
          "type": "string"
        }
      ],
      "name": "customerConfirmation",
      "outputs": [],
      "stateMutability": "nonpayable",
      "type": "function"
    }
  ],
  "bytecode": "0x6080604052336000806101000a81548173ffffffffffffffffffffffffffffffffffffffff021916908373ffffffffffffffffffffffffffffffffffffffff16021790555060008054906101000a900473ffffffffffffffffffffffffffffffffffffffff1673ffffffffffffffffffffffffffffffffffffffff16600073ffffffffffffffffffffffffffffffffffffffff167f5c486528ec3e3f0ea91181cff8116f02bfa350e03b8b6f12e00765adbb5af85c60405160405180910390a3620000d0336200010060201b60201c565b620000e1336200016160201b60201c565b620000f233620001c260201b60201c565b6001600481905550620004bc565b6200011b8160016200022360201b62001e861790919060201c565b8073ffffffffffffffffffffffffffffffffffffffff167fddbf200aa634dc3fb81cfd68583dd1040d1c751d335e1d86b631bde3e977fea860405160405180910390a250565b6200017c8160026200022360201b62001e861790919060201c565b8073ffffffffffffffffffffffffffffffffffffffff167f28b26e7a3d20aedbc5f8f2ebf7da671c0491723a2b78f47a097b0e46dee0714260405160405180910390a250565b620001dd8160036200022360201b62001e861790919060201c565b8073ffffffffffffffffffffffffffffffffffffffff167f2977383b0207d39ef14220620b6cf3e6c9b6e78592af90baeef6614ed2fcd2c660405160405180910390a250565b620002358282620002d660201b60201c565b1562000278576040517f08c379a00000000000000000000000000000000000000000000000000000000081526004016200026f9062000402565b60405180910390fd5b60018260000160008373ffffffffffffffffffffffffffffffffffffffff1673ffffffffffffffffffffffffffffffffffffffff16815260200190815260200160002060006101000a81548160ff0219169083151502179055505050565b60008073ffffffffffffffffffffffffffffffffffffffff168273ffffffffffffffffffffffffffffffffffffffff1614156200034a576040517f08c379a000000000000000000000000000000000000000000000000000000000815260040162000341906200049a565b60405180910390fd5b8260000160008373ffffffffffffffffffffffffffffffffffffffff1673ffffffffffffffffffffffffffffffffffffffff16815260200190815260200160002060009054906101000a900460ff16905092915050565b600082825260208201905092915050565b7f526f6c65733a206163636f756e7420616c72656164792068617320726f6c6500600082015250565b6000620003ea601f83620003a1565b9150620003f782620003b2565b602082019050919050565b600060208201905081810360008301526200041d81620003db565b9050919050565b7f526f6c65733a206163636f756e7420697320746865207a65726f20616464726560008201527f7373000000000000000000000000000000000000000000000000000000000000602082015250565b600062000482602283620003a1565b91506200048f8262000424565b604082019050919050565b60006020820190508181036000830152620004b58162000473565b9050919050565b61365e80620004cc6000396000f3fe608060405234801561001057600080fd5b50600436106101c45760003560e01c806392f14c1c116100f9578063eafd4bbd11610097578063f552102211610071578063f5521022146104d9578063f92f030d14610509578063f9b867d814610527578063fe290ccb14610531576101c4565b8063eafd4bbd14610455578063f26518ed14610488578063f2fde38b146104bd576101c4565b8063b99a0a37116100d3578063b99a0a37146103c7578063c897d5a6146103e3578063d85fcb2914610401578063ddf8016614610439576101c4565b806392f14c1c14610373578063988c77171461038f5780639e432ed5146103ab576101c4565b80636e08cbac11610166578063834ff73911610140578063834ff739146102d75780638da5cb5b146103075780638f0c86fa146103255780638f32d59b14610355576101c4565b80636e08cbac1461027d578063715018a6146102b15780637250e224146102bb576101c4565b806361e6982d116101a257806361e6982d14610231578063644241db1461023b57806365b4b3ab146102455780636946b55c14610261576101c4565b80630e540b3a146101c95780630f5e777b146101e5578063112940f914610215575b600080fd5b6101e360048036038101906101de91906126e7565b61054f565b005b6101ff60048036038101906101fa9190612743565b6106dc565b60405161020c91906127b1565b60405180910390f35b61022f600480360381019061022a91906127f8565b610764565b005b6102396107b8565b005b6102436107c3565b005b61025f600480360381019061025a919061284a565b6107ce565b005b61027b600480360381019061027691906126e7565b6108f6565b005b61029760048036038101906102929190612743565b610a14565b6040516102a89594939291906129b4565b60405180910390f35b6102b9610aff565b005b6102d560048036038101906102d091906127f8565b610bce565b005b6102f160048036038101906102ec91906127f8565b610c22565b6040516102fe9190612a29565b60405180910390f35b61030f610c3f565b60405161031c91906127b1565b60405180910390f35b61033f600480360381019061033a91906127f8565b610c68565b60405161034c9190612a29565b60405180910390f35b61035d610c85565b60405161036a9190612a29565b60405180910390f35b61038d60048036038101906103889190612743565b610cdc565b005b6103a960048036038101906103a49190612a44565b610e13565b005b6103c560048036038101906103c09190612b13565b610ec0565b005b6103e160048036038101906103dc91906126e7565b6111fa565b005b6103eb6112c7565b6040516103f89190612c0f565b60405180910390f35b61041b60048036038101906104169190612743565b6112cd565b60405161043099989796959493929190612c46565b60405180910390f35b610453600480360381019061044e91906127f8565b6114ed565b005b61046f600480360381019061046a9190612743565b611541565b60405161047f9493929190612ce8565b60405180910390f35b6104a2600480360381019061049d9190612743565b6116c8565b6040516104b496959493929190612d3b565b60405180910390f35b6104d760048036038101906104d291906127f8565b6118f7565b005b6104f360048036038101906104ee91906127f8565b611914565b6040516105009190612a29565b60405180910390f35b610511611931565b60405161051e9190612fc5565b60405180910390f35b61052f611c7e565b005b610539611c89565b604051610546919061312e565b60405180910390f35b61055833610c22565b610597576040517f08c379a000000000000000000000000000000000000000000000000000000000815260040161058e906131c2565b60405180910390fd5b600060016007805490506105ab9190613211565b9050806006600083815260200190815260200160002060000181905550336006600083815260200190815260200160002060010160006101000a81548173ffffffffffffffffffffffffffffffffffffffff021916908373ffffffffffffffffffffffffffffffffffffffff160217905550826006600083815260200190815260200160002060020181905550816006600083815260200190815260200160002060030190805190602001906106629291906123f6565b50600781908060018154018082558091505060019003906000526020600020016000909190919091505561069581611f2e565b7fffa896d8919f0556f53ace1395617969a3b53ab5271a085e28ac0c4a3724e63d816040516106c49190612c0f565b60405180910390a16106d78260016107ce565b505050565b60006106e733611914565b610726576040517f08c379a000000000000000000000000000000000000000000000000000000000815260040161071d906132d9565b60405180910390fd5b6008600083815260200190815260200160002060040160019054906101000a900473ffffffffffffffffffffffffffffffffffffffff169050919050565b61076d33610c22565b6107ac576040517f08c379a00000000000000000000000000000000000000000000000000000000081526004016107a3906131c2565b60405180910390fd5b6107b581611f74565b50565b6107c133611fce565b565b6107cc33612028565b565b6001600b546107dd9190613211565b600a6000600b5481526020019081526020016000206000018190555033600a6000600b54815260200190815260200160002060010160006101000a81548173ffffffffffffffffffffffffffffffffffffffff021916908373ffffffffffffffffffffffffffffffffffffffff16021790555081600a6000600b548152602001908152602001600020600201908051906020019061087c9291906123f6565b5042600a6000600b5481526020019081526020016000206003018190555080600a6000600b54815260200190815260200160002060040160006101000a81548160ff021916908360048111156108d5576108d461293d565b5b0217905550600b60008154809291906108ed906132f9565b91905055505050565b6108ff33610c68565b61093e576040517f08c379a0000000000000000000000000000000000000000000000000000000008152600401610935906133b4565b60405180910390fd5b600260048111156109525761095161293d565b5b6008600084815260200190815260200160002060040160009054906101000a900460ff1660048111156109885761098761293d565b5b14156109ce5760036008600084815260200190815260200160002060040160006101000a81548160ff021916908360048111156109c8576109c761293d565b5b02179055505b7fd2f1cdd76b4e7bfba9c07af47c5c4f187ffbbd992b4fa1afce4df6a00a166e85826040516109fd9190612c0f565b60405180910390a1610a108160036107ce565b5050565b600a6020528060005260406000206000915090508060000154908060010160009054906101000a900473ffffffffffffffffffffffffffffffffffffffff1690806002018054610a6390613403565b80601f0160208091040260200160405190810160405280929190818152602001828054610a8f90613403565b8015610adc5780601f10610ab157610100808354040283529160200191610adc565b820191906000526020600020905b815481529060010190602001808311610abf57829003601f168201915b5050505050908060030154908060040160009054906101000a900460ff16905085565b610b07610c85565b610b1057600080fd5b600073ffffffffffffffffffffffffffffffffffffffff1660008054906101000a900473ffffffffffffffffffffffffffffffffffffffff1673ffffffffffffffffffffffffffffffffffffffff167f5c486528ec3e3f0ea91181cff8116f02bfa350e03b8b6f12e00765adbb5af85c60405160405180910390a360008060006101000a81548173ffffffffffffffffffffffffffffffffffffffff021916908373ffffffffffffffffffffffffffffffffffffffff160217905550565b610bd733610c68565b610c16576040517f08c379a0000000000000000000000000000000000000000000000000000000008152600401610c0d906133b4565b60405180910390fd5b610c1f81612082565b50565b6000610c388260026120dc90919063ffffffff16565b9050919050565b60008060009054906101000a900473ffffffffffffffffffffffffffffffffffffffff16905090565b6000610c7e8260016120dc90919063ffffffff16565b9050919050565b60008060009054906101000a900473ffffffffffffffffffffffffffffffffffffffff1673ffffffffffffffffffffffffffffffffffffffff163373ffffffffffffffffffffffffffffffffffffffff1614905090565b610ce533610c22565b610d24576040517f08c379a0000000000000000000000000000000000000000000000000000000008152600401610d1b906131c2565b60405180910390fd5b60006001600980549050610d389190613211565b905080600860008381526020019081526020016000206000018190555081600860008381526020019081526020016000206002018190555060016008600083815260200190815260200160002060040160006101000a81548160ff02191690836004811115610daa57610da961293d565b5b021790555060098190806001815401808255809150506001900390600052602060002001600090919091909150557f872a542432f777a3b4b905fd26f17613450da3996f2935ce1a06a2ac0948ea6281604051610e079190612c0f565b60405180910390a15050565b610e1c33611914565b610e5b576040517f08c379a0000000000000000000000000000000000000000000000000000000008152600401610e52906132d9565b60405180910390fd5b816008600085815260200190815260200160002060040160016101000a81548173ffffffffffffffffffffffffffffffffffffffff021916908373ffffffffffffffffffffffffffffffffffffffff160217905550610ebb8160046107ce565b505050565b610ec933611914565b610f08576040517f08c379a0000000000000000000000000000000000000000000000000000000008152600401610eff906132d9565b60405180910390fd5b60405180610120016040528060045481526020018a8a8080601f016020809104026020016040519081016040528093929190818152602001838380828437600081840152601f19601f82011690508083019250505050505050815260200188888080601f016020809104026020016040519081016040528093929190818152602001838380828437600081840152601f19601f82011690508083019250505050505050815260200186868080601f016020809104026020016040519081016040528093929190818152602001838380828437600081840152601f19601f820116905080830192505050505050508152602001828152602001600160030b81526020013373ffffffffffffffffffffffffffffffffffffffff1681526020014281526020016000151581525060056000600454815260200190815260200160002060008201518160000155602082015181600101908051906020019061106e9291906123f6565b50604082015181600201908051906020019061108b9291906123f6565b5060608201518160030190805190602001906110a89291906123f6565b506080820151816004015560a08201518160050160006101000a81548163ffffffff021916908360030b63ffffffff16021790555060c08201518160050160046101000a81548173ffffffffffffffffffffffffffffffffffffffff021916908373ffffffffffffffffffffffffffffffffffffffff16021790555060e082015181600601556101008201518160070160006101000a81548160ff02191690831515021790555090505060016004546111619190613211565b6004819055507f6fcd75c85744f5cca7f08ab44eac7bc7d9a892f9d67f3d038f9dc911cdeb531f6004546040516111989190612c0f565b60405180910390a16111ef83838080601f016020809104026020016040519081016040528093929190818152602001838380828437600081840152601f19601f8201169050808301925050505050505060006107ce565b505050505050505050565b61120333610c22565b611242576040517f08c379a0000000000000000000000000000000000000000000000000000000008152600401611239906131c2565b60405180910390fd5b60026008600084815260200190815260200160002060040160006101000a81548160ff0219169083600481111561127c5761127b61293d565b5b02179055507f9f1b9ace097a6317865f437e4f07511b3ee6f6dff3f1421066f57d4e25bb2a7c826040516112b09190612c0f565b60405180910390a16112c38160026107ce565b5050565b60045481565b60056020528060005260406000206000915090508060000154908060010180546112f690613403565b80601f016020809104026020016040519081016040528092919081815260200182805461132290613403565b801561136f5780601f106113445761010080835404028352916020019161136f565b820191906000526020600020905b81548152906001019060200180831161135257829003601f168201915b50505050509080600201805461138490613403565b80601f01602080910402602001604051908101604052809291908181526020018280546113b090613403565b80156113fd5780601f106113d2576101008083540402835291602001916113fd565b820191906000526020600020905b8154815290600101906020018083116113e057829003601f168201915b50505050509080600301805461141290613403565b80601f016020809104026020016040519081016040528092919081815260200182805461143e90613403565b801561148b5780601f106114605761010080835404028352916020019161148b565b820191906000526020600020905b81548152906001019060200180831161146e57829003601f168201915b5050505050908060040154908060050160009054906101000a900460030b908060050160049054906101000a900473ffffffffffffffffffffffffffffffffffffffff16908060060154908060070160009054906101000a900460ff16905089565b6114f633611914565b611535576040517f08c379a000000000000000000000000000000000000000000000000000000000815260040161152c906132d9565b60405180910390fd5b61153e816121a4565b50565b6000806060806005600086815260200190815260200160002060000154600560008781526020019081526020016000206004015460056000888152602001908152602001600020600101600560008981526020019081526020016000206002018180546115ad90613403565b80601f01602080910402602001604051908101604052809291908181526020018280546115d990613403565b80156116265780601f106115fb57610100808354040283529160200191611626565b820191906000526020600020905b81548152906001019060200180831161160957829003601f168201915b5050505050915080805461163990613403565b80601f016020809104026020016040519081016040528092919081815260200182805461166590613403565b80156116b25780601f10611687576101008083540402835291602001916116b2565b820191906000526020600020905b81548152906001019060200180831161169557829003601f168201915b5050505050905093509350935093509193509193565b6000806060806000806116da33610c22565b611719576040517f08c379a0000000000000000000000000000000000000000000000000000000008152600401611710906131c2565b60405180910390fd5b60006008600089815260200190815260200160002060020154905060086000898152602001908152602001600020600201546005600083815260200190815260200160002060040154600560008481526020019081526020016000206001016005600085815260200190815260200160002060020160086000868152602001908152602001600020600101546008600087815260200190815260200160002060040160009054906101000a900460ff168380546117d590613403565b80601f016020809104026020016040519081016040528092919081815260200182805461180190613403565b801561184e5780601f106118235761010080835404028352916020019161184e565b820191906000526020600020905b81548152906001019060200180831161183157829003601f168201915b5050505050935082805461186190613403565b80601f016020809104026020016040519081016040528092919081815260200182805461188d90613403565b80156118da5780601f106118af576101008083540402835291602001916118da565b820191906000526020600020905b8154815290600101906020018083116118bd57829003601f168201915b505050505092509650965096509650965096505091939550919395565b6118ff610c85565b61190857600080fd5b611911816121fe565b50565b600061192a8260036120dc90919063ffffffff16565b9050919050565b6060600060016004546119449190613435565b67ffffffffffffffff81111561195d5761195c6125bc565b5b60405190808252806020026020018201604052801561199657816020015b61198361247c565b81526020019060019003908161197b5790505b50905060005b60016004546119ab9190613435565b811015611c76576000600560006001846119c59190613211565b815260200190815260200160002090508060405180610120016040529081600082015481526020016001820180546119fc90613403565b80601f0160208091040260200160405190810160405280929190818152602001828054611a2890613403565b8015611a755780601f10611a4a57610100808354040283529160200191611a75565b820191906000526020600020905b815481529060010190602001808311611a5857829003601f168201915b50505050508152602001600282018054611a8e90613403565b80601f0160208091040260200160405190810160405280929190818152602001828054611aba90613403565b8015611b075780601f10611adc57610100808354040283529160200191611b07565b820191906000526020600020905b815481529060010190602001808311611aea57829003601f168201915b50505050508152602001600382018054611b2090613403565b80601f0160208091040260200160405190810160405280929190818152602001828054611b4c90613403565b8015611b995780601f10611b6e57610100808354040283529160200191611b99565b820191906000526020600020905b815481529060010190602001808311611b7c57829003601f168201915b50505050508152602001600482015481526020016005820160009054906101000a900460030b60030b60030b81526020016005820160049054906101000a900473ffffffffffffffffffffffffffffffffffffffff1673ffffffffffffffffffffffffffffffffffffffff1673ffffffffffffffffffffffffffffffffffffffff168152602001600682015481526020016007820160009054906101000a900460ff161515151581525050838381518110611c5757611c56613469565b5b6020026020010181905250508080611c6e906132f9565b91505061199c565b508091505090565b611c87336122f5565b565b60606000600b5467ffffffffffffffff811115611ca957611ca86125bc565b5b604051908082528060200260200182016040528015611ce257816020015b611ccf6124e3565b815260200190600190039081611cc75790505b50905060005b600b54811015611e7e576000600a60008381526020019081526020016000209050806040518060a0016040529081600082015481526020016001820160009054906101000a900473ffffffffffffffffffffffffffffffffffffffff1673ffffffffffffffffffffffffffffffffffffffff1673ffffffffffffffffffffffffffffffffffffffff168152602001600282018054611d8590613403565b80601f0160208091040260200160405190810160405280929190818152602001828054611db190613403565b8015611dfe5780601f10611dd357610100808354040283529160200191611dfe565b820191906000526020600020905b815481529060010190602001808311611de157829003601f168201915b50505050508152602001600382015481526020016004820160009054906101000a900460ff166004811115611e3657611e3561293d565b5b6004811115611e4857611e4761293d565b5b81525050838381518110611e5f57611e5e613469565b5b6020026020010181905250508080611e76906132f9565b915050611ce8565b508091505090565b611e9082826120dc565b15611ed0576040517f08c379a0000000000000000000000000000000000000000000000000000000008152600401611ec7906134e4565b60405180910390fd5b60018260000160008373ffffffffffffffffffffffffffffffffffffffff1673ffffffffffffffffffffffffffffffffffffffff16815260200190815260200160002060006101000a81548160ff0219169083151502179055505050565b6000600190505b600980549050811015611f70578160086000838152602001908152602001600020600101819055508080611f68906132f9565b915050611f35565b5050565b611f88816002611e8690919063ffffffff16565b8073ffffffffffffffffffffffffffffffffffffffff167f28b26e7a3d20aedbc5f8f2ebf7da671c0491723a2b78f47a097b0e46dee0714260405160405180910390a250565b611fe281600261234f90919063ffffffff16565b8073ffffffffffffffffffffffffffffffffffffffff167fe3f5ed5f263f1f01764a96edfc7d025f511ec5f7d180e8816908b78bcf74f09860405160405180910390a250565b61203c81600161234f90919063ffffffff16565b8073ffffffffffffffffffffffffffffffffffffffff167f126174f6cf49c81cdb4a9214c6b8f037bef55b4ec31e4fc776cea2a1c8a88d5960405160405180910390a250565b612096816001611e8690919063ffffffff16565b8073ffffffffffffffffffffffffffffffffffffffff167fddbf200aa634dc3fb81cfd68583dd1040d1c751d335e1d86b631bde3e977fea860405160405180910390a250565b60008073ffffffffffffffffffffffffffffffffffffffff168273ffffffffffffffffffffffffffffffffffffffff16141561214d576040517f08c379a000000000000000000000000000000000000000000000000000000000815260040161214490613576565b60405180910390fd5b8260000160008373ffffffffffffffffffffffffffffffffffffffff1673ffffffffffffffffffffffffffffffffffffffff16815260200190815260200160002060009054906101000a900460ff16905092915050565b6121b8816003611e8690919063ffffffff16565b8073ffffffffffffffffffffffffffffffffffffffff167f2977383b0207d39ef14220620b6cf3e6c9b6e78592af90baeef6614ed2fcd2c660405160405180910390a250565b600073ffffffffffffffffffffffffffffffffffffffff168173ffffffffffffffffffffffffffffffffffffffff16141561223857600080fd5b8073ffffffffffffffffffffffffffffffffffffffff1660008054906101000a900473ffffffffffffffffffffffffffffffffffffffff1673ffffffffffffffffffffffffffffffffffffffff167f5c486528ec3e3f0ea91181cff8116f02bfa350e03b8b6f12e00765adbb5af85c60405160405180910390a3806000806101000a81548173ffffffffffffffffffffffffffffffffffffffff021916908373ffffffffffffffffffffffffffffffffffffffff16021790555050565b61230981600361234f90919063ffffffff16565b8073ffffffffffffffffffffffffffffffffffffffff167fb78e9906c5bae930ccf756a5214c9855b1782f0eb30f9566de2384f034af48f360405160405180910390a250565b61235982826120dc565b612398576040517f08c379a000000000000000000000000000000000000000000000000000000000815260040161238f90613608565b60405180910390fd5b60008260000160008373ffffffffffffffffffffffffffffffffffffffff1673ffffffffffffffffffffffffffffffffffffffff16815260200190815260200160002060006101000a81548160ff0219169083151502179055505050565b82805461240290613403565b90600052602060002090601f016020900481019282612424576000855561246b565b82601f1061243d57805160ff191683800117855561246b565b8280016001018555821561246b579182015b8281111561246a57825182559160200191906001019061244f565b5b509050612478919061253a565b5090565b6040518061012001604052806000815260200160608152602001606081526020016060815260200160008152602001600060030b8152602001600073ffffffffffffffffffffffffffffffffffffffff168152602001600081526020016000151581525090565b6040518060a0016040528060008152602001600073ffffffffffffffffffffffffffffffffffffffff1681526020016060815260200160008152602001600060048111156125345761253361293d565b5b81525090565b5b8082111561255357600081600090555060010161253b565b5090565b6000604051905090565b600080fd5b600080fd5b6000819050919050565b61257e8161256b565b811461258957600080fd5b50565b60008135905061259b81612575565b92915050565b600080fd5b600080fd5b6000601f19601f8301169050919050565b7f4e487b7100000000000000000000000000000000000000000000000000000000600052604160045260246000fd5b6125f4826125ab565b810181811067ffffffffffffffff82111715612613576126126125bc565b5b80604052505050565b6000612626612557565b905061263282826125eb565b919050565b600067ffffffffffffffff821115612652576126516125bc565b5b61265b826125ab565b9050602081019050919050565b82818337600083830152505050565b600061268a61268584612637565b61261c565b9050828152602081018484840111156126a6576126a56125a6565b5b6126b1848285612668565b509392505050565b600082601f8301126126ce576126cd6125a1565b5b81356126de848260208601612677565b91505092915050565b600080604083850312156126fe576126fd612561565b5b600061270c8582860161258c565b925050602083013567ffffffffffffffff81111561272d5761272c612566565b5b612739858286016126b9565b9150509250929050565b60006020828403121561275957612758612561565b5b60006127678482850161258c565b91505092915050565b600073ffffffffffffffffffffffffffffffffffffffff82169050919050565b600061279b82612770565b9050919050565b6127ab81612790565b82525050565b60006020820190506127c660008301846127a2565b92915050565b6127d581612790565b81146127e057600080fd5b50565b6000813590506127f2816127cc565b92915050565b60006020828403121561280e5761280d612561565b5b600061281c848285016127e3565b91505092915050565b6005811061283257600080fd5b50565b60008135905061284481612825565b92915050565b6000806040838503121561286157612860612561565b5b600083013567ffffffffffffffff81111561287f5761287e612566565b5b61288b858286016126b9565b925050602061289c85828601612835565b9150509250929050565b6128af8161256b565b82525050565b600081519050919050565b600082825260208201905092915050565b60005b838110156128ef5780820151818401526020810190506128d4565b838111156128fe576000848401525b50505050565b600061290f826128b5565b61291981856128c0565b93506129298185602086016128d1565b612932816125ab565b840191505092915050565b7f4e487b7100000000000000000000000000000000000000000000000000000000600052602160045260246000fd5b6005811061297d5761297c61293d565b5b50565b600081905061298e8261296c565b919050565b600061299e82612980565b9050919050565b6129ae81612993565b82525050565b600060a0820190506129c960008301886128a6565b6129d660208301876127a2565b81810360408301526129e88186612904565b90506129f760608301856128a6565b612a0460808301846129a5565b9695505050505050565b60008115159050919050565b612a2381612a0e565b82525050565b6000602082019050612a3e6000830184612a1a565b92915050565b600080600060608486031215612a5d57612a5c612561565b5b6000612a6b8682870161258c565b9350506020612a7c868287016127e3565b925050604084013567ffffffffffffffff811115612a9d57612a9c612566565b5b612aa9868287016126b9565b9150509250925092565b600080fd5b600080fd5b60008083601f840112612ad357612ad26125a1565b5b8235905067ffffffffffffffff811115612af057612aef612ab3565b5b602083019150836001820283011115612b0c57612b0b612ab8565b5b9250929050565b600080600080600080600080600060a08a8c031215612b3557612b34612561565b5b60008a013567ffffffffffffffff811115612b5357612b52612566565b5b612b5f8c828d01612abd565b995099505060208a013567ffffffffffffffff811115612b8257612b81612566565b5b612b8e8c828d01612abd565b975097505060408a013567ffffffffffffffff811115612bb157612bb0612566565b5b612bbd8c828d01612abd565b955095505060608a013567ffffffffffffffff811115612be057612bdf612566565b5b612bec8c828d01612abd565b93509350506080612bff8c828d0161258c565b9150509295985092959850929598565b6000602082019050612c2460008301846128a6565b92915050565b60008160030b9050919050565b612c4081612c2a565b82525050565b600061012082019050612c5c600083018c6128a6565b8181036020830152612c6e818b612904565b90508181036040830152612c82818a612904565b90508181036060830152612c968189612904565b9050612ca560808301886128a6565b612cb260a0830187612c37565b612cbf60c08301866127a2565b612ccc60e08301856128a6565b612cda610100830184612a1a565b9a9950505050505050505050565b6000608082019050612cfd60008301876128a6565b612d0a60208301866128a6565b8181036040830152612d1c8185612904565b90508181036060830152612d308184612904565b905095945050505050565b600060c082019050612d5060008301896128a6565b612d5d60208301886128a6565b8181036040830152612d6f8187612904565b90508181036060830152612d838186612904565b9050612d9260808301856128a6565b612d9f60a08301846129a5565b979650505050505050565b600081519050919050565b600082825260208201905092915050565b6000819050602082019050919050565b612ddf8161256b565b82525050565b600082825260208201905092915050565b6000612e01826128b5565b612e0b8185612de5565b9350612e1b8185602086016128d1565b612e24816125ab565b840191505092915050565b612e3881612c2a565b82525050565b612e4781612790565b82525050565b612e5681612a0e565b82525050565b600061012083016000830151612e756000860182612dd6565b5060208301518482036020860152612e8d8282612df6565b91505060408301518482036040860152612ea78282612df6565b91505060608301518482036060860152612ec18282612df6565b9150506080830151612ed66080860182612dd6565b5060a0830151612ee960a0860182612e2f565b5060c0830151612efc60c0860182612e3e565b5060e0830151612f0f60e0860182612dd6565b50610100830151612f24610100860182612e4d565b508091505092915050565b6000612f3b8383612e5c565b905092915050565b6000602082019050919050565b6000612f5b82612daa565b612f658185612db5565b935083602082028501612f7785612dc6565b8060005b85811015612fb35784840389528151612f948582612f2f565b9450612f9f83612f43565b925060208a01995050600181019050612f7b565b50829750879550505050505092915050565b60006020820190508181036000830152612fdf8184612f50565b905092915050565b600081519050919050565b600082825260208201905092915050565b6000819050602082019050919050565b61301c81612993565b82525050565b600060a08301600083015161303a6000860182612dd6565b50602083015161304d6020860182612e3e565b50604083015184820360408601526130658282612df6565b915050606083015161307a6060860182612dd6565b50608083015161308d6080860182613013565b508091505092915050565b60006130a48383613022565b905092915050565b6000602082019050919050565b60006130c482612fe7565b6130ce8185612ff2565b9350836020820285016130e085613003565b8060005b8581101561311c57848403895281516130fd8582613098565b9450613108836130ac565b925060208a019950506001810190506130e4565b50829750879550505050505092915050565b6000602082019050818103600083015261314881846130b9565b905092915050565b7f436f6e73756d6572526f6c653a2063616c6c657220646f6573206e6f7420686160008201527f76652074686520436f6e73756d657220726f6c65000000000000000000000000602082015250565b60006131ac6034836128c0565b91506131b782613150565b604082019050919050565b600060208201905081810360008301526131db8161319f565b9050919050565b7f4e487b7100000000000000000000000000000000000000000000000000000000600052601160045260246000fd5b600061321c8261256b565b91506132278361256b565b9250827fffffffffffffffffffffffffffffffffffffffffffffffffffffffffffffffff0382111561325c5761325b6131e2565b5b828201905092915050565b7f50726f6475636572526f6c653a2063616c6c657220646f6573206e6f7420686160008201527f7665207468652050726f647563657220726f6c65000000000000000000000000602082015250565b60006132c36034836128c0565b91506132ce82613267565b604082019050919050565b600060208201905081810360008301526132f2816132b6565b9050919050565b60006133048261256b565b91507fffffffffffffffffffffffffffffffffffffffffffffffffffffffffffffffff821415613337576133366131e2565b5b600182019050919050565b7f4469737472696275746f72526f6c653a2063616c6c657220646f6573206e6f7460008201527f206861766520746865204469737472696275746f7220726f6c65000000000000602082015250565b600061339e603a836128c0565b91506133a982613342565b604082019050919050565b600060208201905081810360008301526133cd81613391565b9050919050565b7f4e487b7100000000000000000000000000000000000000000000000000000000600052602260045260246000fd5b6000600282049050600182168061341b57607f821691505b6020821081141561342f5761342e6133d4565b5b50919050565b60006134408261256b565b915061344b8361256b565b92508282101561345e5761345d6131e2565b5b828203905092915050565b7f4e487b7100000000000000000000000000000000000000000000000000000000600052603260045260246000fd5b7f526f6c65733a206163636f756e7420616c72656164792068617320726f6c6500600082015250565b60006134ce601f836128c0565b91506134d982613498565b602082019050919050565b600060208201905081810360008301526134fd816134c1565b9050919050565b7f526f6c65733a206163636f756e7420697320746865207a65726f20616464726560008201527f7373000000000000000000000000000000000000000000000000000000000000602082015250565b60006135606022836128c0565b915061356b82613504565b604082019050919050565b6000602082019050818103600083015261358f81613553565b9050919050565b7f526f6c65733a206163636f756e7420646f6573206e6f74206861766520726f6c60008201527f6500000000000000000000000000000000000000000000000000000000000000602082015250565b60006135f26021836128c0565b91506135fd82613596565b604082019050919050565b60006020820190508181036000830152613621816135e5565b905091905056fea264697066735822122084928112ecf78034a582fd4791bfe7d11d50c58ffb05fe6e9f6afca2f7c3056a64736f6c634300080c0033",
  "immutableReferences": {},
  "source": "// SPDX-License-Identifier: MIT\r\n\r\npragma solidity >=0.6.00;\r\n\r\n// Importing the necessary sol files\r\nimport \"../core/Ownable.sol\";\r\nimport \"../access/roles/ConsumerRole.sol\";\r\nimport \"../access/roles/DistributorRole.sol\";\r\nimport \"../access/roles/ProducerRole.sol\";\r\n\r\n\r\n// Define a contract 'Supplychain'\r\ncontract SupplyChain is\r\n    Ownable,\r\n    DistributorRole,\r\n    ConsumerRole,\r\n    ProducerRole\r\n{\r\n    enum OrderState {\r\n        Ordered,\r\n        PaymentCompleted,\r\n        Completed\r\n    }\r\n\r\n    enum OrderItemState {\r\n        Produced,\r\n        Ordered,\r\n        CustomerDeliveryConfirmed,\r\n        Delivered,\r\n        DistributorAdded\r\n    }\r\n\r\n    struct Order {\r\n        uint orderId;\r\n        address orderedBy; // consumer metamask address \r\n        uint totalAmount;\r\n        string location; // order placed location\r\n    }\r\n\r\n    struct OrderItem {\r\n        uint orderItemId;\r\n        uint orderId;\r\n        uint productId;\r\n        uint price;\r\n        OrderItemState itemState;\r\n        address distributor;   // distributor address \r\n        address dispatcher; // dispatcher address\r\n        string location;\r\n    }\r\n\r\n    struct Product {\r\n        uint productId;\r\n        string productName;\r\n        string productDesc;\r\n        string producerName;\r\n        uint price; \r\n        int32 quantity;\r\n        address createdBy;   // producer address\r\n        uint createdDate;\r\n        bool isDeleted;\r\n    }\r\n\r\n    struct ActivityLog {\r\n        uint activityId;\r\n        address createdBy; \r\n        string location;\r\n        uint256 createdDateTime;\r\n        OrderItemState currentState; \r\n    }\r\n\r\n    // Define a variable called productIndex\r\n    uint256 public productIndex;\r\n\r\n    // productId -> product\r\n     mapping(uint256 => Product) public productMapping;\r\n\r\n    // orderId -> Order\r\n    mapping(uint => Order) orderMapping;\r\n    uint[] orderIndexer;\r\n\r\n    // orderItemId -> order item\r\n    mapping(uint => OrderItem) cartMapping;\r\n    uint[] cartIndexer; // cart indexer\r\n\r\n    // activityId -> activity log\r\n    mapping(uint => ActivityLog) public activityLog;\r\n    uint logIndexer; // cart indexer\r\n   \r\n    // Define events of Oreder item\r\n    event ItemProduced(uint productId);\r\n    event ItemAddedInCart(uint productId);\r\n    event ItemDispatched(uint productId);\r\n    event ItemDelivered(uint productId);\r\n    event ItemDeliveredCustomerConfirmation(uint productId);\r\n\r\n    // Define events for order\r\n    event OrderPlaced(uint orderId);\r\n    event OrderComplete(uint orderId);\r\n\r\n    constructor() public payable {\r\n        productIndex = 1;\r\n    }\r\n\r\n    // adds a product in the list.\r\n    function addProducts(string calldata product_Name, string calldata product_Desc, string calldata producer_Name, string calldata _location, uint price) public onlyProducer\r\n    {\r\n        productMapping[productIndex] = Product (productIndex, product_Name, product_Desc, producer_Name, price,\r\n        1, msg.sender, block.timestamp, false);\r\n \r\n        productIndex = productIndex + 1;\r\n\r\n        emit ItemProduced(productIndex);\r\n\r\n        addLog(_location, OrderItemState.Produced);\r\n    }\r\n\r\n    // create a log\r\n    function addLog(string memory _location, OrderItemState _state) public {\r\n     \r\n        activityLog[logIndexer].activityId = logIndexer + 1;\r\n        activityLog[logIndexer].createdBy = msg.sender;\r\n        activityLog[logIndexer].location = _location;\r\n        activityLog[logIndexer].createdDateTime = block.timestamp;\r\n        activityLog[logIndexer].currentState = _state;\r\n        logIndexer++;\r\n    }\r\n\r\n    //return logs\r\n    function getLogs() public view returns (ActivityLog[] memory){\r\n        \r\n        ActivityLog[] memory logs = new ActivityLog[](logIndexer);\r\n        \r\n        for (uint i = 0; i < logIndexer; i++) {\r\n            ActivityLog storage log = activityLog[i];\r\n            logs[i] = log;\r\n        }\r\n\r\n        return logs;\r\n    }\r\n\r\n    //return products\r\n    function getProuducts() public view returns (Product[] memory){\r\n        \r\n        Product[] memory products = new Product[](productIndex-1);\r\n        \r\n        for (uint i = 0; i < productIndex-1 ; i++) {\r\n            Product storage product = productMapping[i+1];\r\n            products[i] = product;\r\n        }\r\n\r\n        return products;\r\n    }\r\n\r\n    // fetches the product.\r\n    function viewProduct(uint productId) public view returns(uint, uint256, string memory, string memory)\r\n    {\r\n        return (productMapping[productId].productId,\r\n                productMapping[productId].price, \r\n                productMapping[productId].productName, \r\n                productMapping[productId].productDesc);\r\n    }\r\n\r\n    // adds item in the cart.\r\n    function addItemInCart(uint productId) public onlyConsumer\r\n    {\r\n        uint index = cartIndexer.length + 1;\r\n\r\n        cartMapping[index].orderItemId = index;\r\n        cartMapping[index].productId = productId;\r\n        cartMapping[index].itemState = OrderItemState.Ordered;\r\n        cartIndexer.push(index);\r\n\r\n        emit ItemAddedInCart(index);  // item added event.\r\n    }\r\n\r\n    // view cart item\r\n    function viewCartItems(uint cartIndex) public view onlyConsumer returns(uint, uint, string memory, string memory, uint, OrderItemState)\r\n    {\r\n        uint itemIndex = cartMapping[cartIndex].productId;\r\n\r\n        return (cartMapping[cartIndex].productId,\r\n                productMapping[itemIndex].price,\r\n                productMapping[itemIndex].productName, \r\n                productMapping[itemIndex].productDesc,\r\n                cartMapping[itemIndex].orderId,\r\n                cartMapping[itemIndex].itemState);\r\n    }\r\n\r\n    // creates order\r\n    function createOrder(uint _totalAmount, string memory _location) public onlyConsumer\r\n    {\r\n        uint orderIndex = orderIndexer.length + 1;\r\n        \r\n        orderMapping[orderIndex].orderId = orderIndex;\r\n        orderMapping[orderIndex].orderedBy = msg.sender;\r\n        orderMapping[orderIndex].totalAmount = _totalAmount;\r\n        orderMapping[orderIndex].location = _location;\r\n\r\n        orderIndexer.push(orderIndex); \r\n        \r\n        linkCartItems(orderIndex); // link cart items with order.\r\n\r\n        emit OrderPlaced(orderIndex);     // emit event order placed.\r\n        addLog(_location, OrderItemState.Ordered);        \r\n    }\r\n\r\n    // add orderid to cartItems\r\n    function linkCartItems(uint _orderId) private\r\n    {\r\n        for (uint i = 1; i < cartIndexer.length; i++) {\r\n            cartMapping[i].orderId = _orderId;\r\n        }\r\n    }\r\n\r\n    // add distributor \r\n    function addDistributorToOrderItem(uint _orderItem, address _distributor, string memory _location) public onlyProducer \r\n    {\r\n        cartMapping[_orderItem].distributor = _distributor;\r\n        addLog(_location, OrderItemState.DistributorAdded);\r\n    }\r\n\r\n    // view distributor\r\n    function viewDistributor(uint _orderItem) public view onlyProducer returns (address)\r\n    {\r\n        return (cartMapping[_orderItem].distributor);\r\n    }\r\n\r\n    // item delivered distributor confirmation\r\n    function orderDelivered(uint _orderItem, string memory _location) public onlyDistributor \r\n    {\r\n        if(cartMapping[_orderItem].itemState == OrderItemState.CustomerDeliveryConfirmed)\r\n            cartMapping[_orderItem].itemState = OrderItemState.Delivered;\r\n\r\n        emit ItemDelivered(_orderItem);\r\n        addLog(_location, OrderItemState.Delivered);\r\n    }\r\n\r\n    // item delivery customer confirmation\r\n    function customerConfirmation(uint _orderItem, string memory _location) public onlyConsumer \r\n    {\r\n        cartMapping[_orderItem].itemState = OrderItemState.CustomerDeliveryConfirmed;\r\n\r\n        emit ItemDeliveredCustomerConfirmation(_orderItem);\r\n        addLog(_location, OrderItemState.CustomerDeliveryConfirmed);\r\n    }\r\n\r\n}",
  "sourcePath": "C:\\Blockchain_POC\\smart-contracts\\contracts\\base\\SupplyChain.sol",
  "compiler": {
    "name": "solc",
    "version": "0.8.12+commit.f00d7308.Emscripten.clang"
  },
  "schemaVersion": "3.4.6",
  "updatedAt": "2022-04-23T10:40:49.076Z",
  "networkType": "ethereum",
  "devdoc": {
    "kind": "dev",
    "methods": {},
    "version": 1
  },
  "userdoc": {
    "kind": "user",
    "methods": {
      "isOwner()": {
        "notice": "Check if the calling address is the owner of the contract"
      },
      "owner()": {
        "notice": "Look up the address of the owner"
      },
      "renounceOwnership()": {
        "notice": "Define a function to renounce ownerhip"
      },
      "transferOwnership(address)": {
        "notice": "Define a public function to transfer ownership"
      }
    },
    "version": 1
  }
}