{
  "contractName": "SupplyChain",
  "abi": [
    {
      "inputs": [],
      "stateMutability": "nonpayable",
      "type": "constructor"
    },
    {
      "anonymous": false,
      "inputs": [
        {
          "indexed": true,
          "internalType": "address",
          "name": "account",
          "type": "address"
        }
      ],
      "name": "ConsumerAdded",
      "type": "event"
    },
    {
      "anonymous": false,
      "inputs": [
        {
          "indexed": true,
          "internalType": "address",
          "name": "account",
          "type": "address"
        }
      ],
      "name": "ConsumerRemoved",
      "type": "event"
    },
    {
      "anonymous": false,
      "inputs": [
        {
          "indexed": true,
          "internalType": "address",
          "name": "account",
          "type": "address"
        }
      ],
      "name": "DistributorAdded",
      "type": "event"
    },
    {
      "anonymous": false,
      "inputs": [
        {
          "indexed": true,
          "internalType": "address",
          "name": "account",
          "type": "address"
        }
      ],
      "name": "DistributorRemoved",
      "type": "event"
    },
    {
      "anonymous": false,
      "inputs": [
        {
          "indexed": false,
          "internalType": "uint256",
          "name": "productId",
          "type": "uint256"
        }
      ],
      "name": "ItemAddedInCart",
      "type": "event"
    },
    {
      "anonymous": false,
      "inputs": [
        {
          "indexed": false,
          "internalType": "uint256",
          "name": "productId",
          "type": "uint256"
        }
      ],
      "name": "ItemDelivered",
      "type": "event"
    },
    {
      "anonymous": false,
      "inputs": [
        {
          "indexed": false,
          "internalType": "uint256",
          "name": "productId",
          "type": "uint256"
        }
      ],
      "name": "ItemDeliveredCustomerConfirmation",
      "type": "event"
    },
    {
      "anonymous": false,
      "inputs": [
        {
          "indexed": false,
          "internalType": "uint256",
          "name": "productId",
          "type": "uint256"
        }
      ],
      "name": "ItemDispatched",
      "type": "event"
    },
    {
      "anonymous": false,
      "inputs": [
        {
          "indexed": false,
          "internalType": "uint256",
          "name": "productId",
          "type": "uint256"
        }
      ],
      "name": "ItemProduced",
      "type": "event"
    },
    {
      "anonymous": false,
      "inputs": [
        {
          "indexed": false,
          "internalType": "uint256",
          "name": "orderId",
          "type": "uint256"
        }
      ],
      "name": "OrderComplete",
      "type": "event"
    },
    {
      "anonymous": false,
      "inputs": [
        {
          "indexed": false,
          "internalType": "uint256",
          "name": "orderId",
          "type": "uint256"
        }
      ],
      "name": "OrderPlaced",
      "type": "event"
    },
    {
      "anonymous": false,
      "inputs": [
        {
          "indexed": true,
          "internalType": "address",
          "name": "account",
          "type": "address"
        }
      ],
      "name": "ProducerAdded",
      "type": "event"
    },
    {
      "anonymous": false,
      "inputs": [
        {
          "indexed": true,
          "internalType": "address",
          "name": "account",
          "type": "address"
        }
      ],
      "name": "ProducerRemoved",
      "type": "event"
    },
    {
      "anonymous": false,
      "inputs": [
        {
          "indexed": true,
          "internalType": "address",
          "name": "oldOwner",
          "type": "address"
        },
        {
          "indexed": true,
          "internalType": "address",
          "name": "newOwner",
          "type": "address"
        }
      ],
      "name": "TransferOwnership",
      "type": "event"
    },
    {
      "inputs": [
        {
          "internalType": "uint256",
          "name": "",
          "type": "uint256"
        }
      ],
      "name": "activityLog",
      "outputs": [
        {
          "internalType": "uint256",
          "name": "activityId",
          "type": "uint256"
        },
        {
          "internalType": "address",
          "name": "createdBy",
          "type": "address"
        },
        {
          "internalType": "string",
          "name": "location",
          "type": "string"
        },
        {
          "internalType": "uint256",
          "name": "createdDateTime",
          "type": "uint256"
        },
        {
          "internalType": "enum SupplyChain.OrderItemState",
          "name": "currentState",
          "type": "uint8"
        }
      ],
      "stateMutability": "view",
      "type": "function",
      "constant": true
    },
    {
      "inputs": [
        {
          "internalType": "address",
          "name": "account",
          "type": "address"
        }
      ],
      "name": "addConsumer",
      "outputs": [],
      "stateMutability": "nonpayable",
      "type": "function"
    },
    {
      "inputs": [
        {
          "internalType": "address",
          "name": "account",
          "type": "address"
        }
      ],
      "name": "addDistributor",
      "outputs": [],
      "stateMutability": "nonpayable",
      "type": "function"
    },
    {
      "inputs": [
        {
          "internalType": "address",
          "name": "account",
          "type": "address"
        }
      ],
      "name": "addProducer",
      "outputs": [],
      "stateMutability": "nonpayable",
      "type": "function"
    },
    {
      "inputs": [
        {
          "internalType": "address",
          "name": "account",
          "type": "address"
        }
      ],
      "name": "isConsumer",
      "outputs": [
        {
          "internalType": "bool",
          "name": "",
          "type": "bool"
        }
      ],
      "stateMutability": "view",
      "type": "function",
      "constant": true
    },
    {
      "inputs": [
        {
          "internalType": "address",
          "name": "account",
          "type": "address"
        }
      ],
      "name": "isDistributor",
      "outputs": [
        {
          "internalType": "bool",
          "name": "",
          "type": "bool"
        }
      ],
      "stateMutability": "view",
      "type": "function",
      "constant": true
    },
    {
      "inputs": [],
      "name": "isOwner",
      "outputs": [
        {
          "internalType": "bool",
          "name": "",
          "type": "bool"
        }
      ],
      "stateMutability": "view",
      "type": "function",
      "constant": true
    },
    {
      "inputs": [
        {
          "internalType": "address",
          "name": "account",
          "type": "address"
        }
      ],
      "name": "isProducer",
      "outputs": [
        {
          "internalType": "bool",
          "name": "",
          "type": "bool"
        }
      ],
      "stateMutability": "view",
      "type": "function",
      "constant": true
    },
    {
      "inputs": [],
      "name": "owner",
      "outputs": [
        {
          "internalType": "address",
          "name": "",
          "type": "address"
        }
      ],
      "stateMutability": "view",
      "type": "function",
      "constant": true
    },
    {
      "inputs": [],
      "name": "productIndex",
      "outputs": [
        {
          "internalType": "uint256",
          "name": "",
          "type": "uint256"
        }
      ],
      "stateMutability": "view",
      "type": "function",
      "constant": true
    },
    {
      "inputs": [
        {
          "internalType": "uint256",
          "name": "",
          "type": "uint256"
        }
      ],
      "name": "productMapping",
      "outputs": [
        {
          "internalType": "uint256",
          "name": "productId",
          "type": "uint256"
        },
        {
          "internalType": "string",
          "name": "productName",
          "type": "string"
        },
        {
          "internalType": "string",
          "name": "productDesc",
          "type": "string"
        },
        {
          "internalType": "string",
          "name": "producerName",
          "type": "string"
        },
        {
          "internalType": "uint256",
          "name": "price",
          "type": "uint256"
        },
        {
          "internalType": "int32",
          "name": "quantity",
          "type": "int32"
        },
        {
          "internalType": "address",
          "name": "createdBy",
          "type": "address"
        },
        {
          "internalType": "uint256",
          "name": "createdDate",
          "type": "uint256"
        },
        {
          "internalType": "bool",
          "name": "isDeleted",
          "type": "bool"
        }
      ],
      "stateMutability": "view",
      "type": "function",
      "constant": true
    },
    {
      "inputs": [],
      "name": "renounceConsumer",
      "outputs": [],
      "stateMutability": "nonpayable",
      "type": "function"
    },
    {
      "inputs": [],
      "name": "renounceDistributor",
      "outputs": [],
      "stateMutability": "nonpayable",
      "type": "function"
    },
    {
      "inputs": [],
      "name": "renounceOwnership",
      "outputs": [],
      "stateMutability": "nonpayable",
      "type": "function"
    },
    {
      "inputs": [],
      "name": "renounceProducer",
      "outputs": [],
      "stateMutability": "nonpayable",
      "type": "function"
    },
    {
      "inputs": [
        {
          "internalType": "address",
          "name": "newOwner",
          "type": "address"
        }
      ],
      "name": "transferOwnership",
      "outputs": [],
      "stateMutability": "nonpayable",
      "type": "function"
    },
    {
      "inputs": [
        {
          "internalType": "string",
          "name": "product_Name",
          "type": "string"
        },
        {
          "internalType": "string",
          "name": "product_Desc",
          "type": "string"
        },
        {
          "internalType": "string",
          "name": "producer_Name",
          "type": "string"
        },
        {
          "internalType": "string",
          "name": "_location",
          "type": "string"
        },
        {
          "internalType": "uint256",
          "name": "price",
          "type": "uint256"
        }
      ],
      "name": "addProducts",
      "outputs": [],
      "stateMutability": "nonpayable",
      "type": "function"
    },
    {
      "inputs": [
        {
          "internalType": "string",
          "name": "_location",
          "type": "string"
        },
        {
          "internalType": "enum SupplyChain.OrderItemState",
          "name": "_state",
          "type": "uint8"
        }
      ],
      "name": "addLog",
      "outputs": [],
      "stateMutability": "nonpayable",
      "type": "function"
    },
    {
      "inputs": [],
      "name": "getLogs",
      "outputs": [
        {
          "components": [
            {
              "internalType": "uint256",
              "name": "activityId",
              "type": "uint256"
            },
            {
              "internalType": "address",
              "name": "createdBy",
              "type": "address"
            },
            {
              "internalType": "string",
              "name": "location",
              "type": "string"
            },
            {
              "internalType": "uint256",
              "name": "createdDateTime",
              "type": "uint256"
            },
            {
              "internalType": "enum SupplyChain.OrderItemState",
              "name": "currentState",
              "type": "uint8"
            }
          ],
          "internalType": "struct SupplyChain.ActivityLog[]",
          "name": "",
          "type": "tuple[]"
        }
      ],
      "stateMutability": "view",
      "type": "function",
      "constant": true
    },
    {
      "inputs": [],
      "name": "getProuducts",
      "outputs": [
        {
          "components": [
            {
              "internalType": "uint256",
              "name": "productId",
              "type": "uint256"
            },
            {
              "internalType": "string",
              "name": "productName",
              "type": "string"
            },
            {
              "internalType": "string",
              "name": "productDesc",
              "type": "string"
            },
            {
              "internalType": "string",
              "name": "producerName",
              "type": "string"
            },
            {
              "internalType": "uint256",
              "name": "price",
              "type": "uint256"
            },
            {
              "internalType": "int32",
              "name": "quantity",
              "type": "int32"
            },
            {
              "internalType": "address",
              "name": "createdBy",
              "type": "address"
            },
            {
              "internalType": "uint256",
              "name": "createdDate",
              "type": "uint256"
            },
            {
              "internalType": "bool",
              "name": "isDeleted",
              "type": "bool"
            }
          ],
          "internalType": "struct SupplyChain.Product[]",
          "name": "",
          "type": "tuple[]"
        }
      ],
      "stateMutability": "view",
      "type": "function",
      "constant": true
    },
    {
      "inputs": [
        {
          "internalType": "uint256",
          "name": "productId",
          "type": "uint256"
        }
      ],
      "name": "viewProduct",
      "outputs": [
        {
          "internalType": "uint256",
          "name": "",
          "type": "uint256"
        },
        {
          "internalType": "uint256",
          "name": "",
          "type": "uint256"
        },
        {
          "internalType": "string",
          "name": "",
          "type": "string"
        },
        {
          "internalType": "string",
          "name": "",
          "type": "string"
        }
      ],
      "stateMutability": "view",
      "type": "function",
      "constant": true
    },
    {
      "inputs": [
        {
          "internalType": "uint256",
          "name": "productId",
          "type": "uint256"
        }
      ],
      "name": "addItemInCart",
      "outputs": [],
      "stateMutability": "nonpayable",
      "type": "function"
    },
    {
      "inputs": [
        {
          "internalType": "uint256",
          "name": "cartIndex",
          "type": "uint256"
        }
      ],
      "name": "viewCartItems",
      "outputs": [
        {
          "internalType": "uint256",
          "name": "",
          "type": "uint256"
        },
        {
          "internalType": "uint256",
          "name": "",
          "type": "uint256"
        },
        {
          "internalType": "string",
          "name": "",
          "type": "string"
        },
        {
          "internalType": "string",
          "name": "",
          "type": "string"
        },
        {
          "internalType": "uint256",
          "name": "",
          "type": "uint256"
        },
        {
          "internalType": "enum SupplyChain.OrderItemState",
          "name": "",
          "type": "uint8"
        }
      ],
      "stateMutability": "nonpayable",
      "type": "function"
    },
    {
      "inputs": [
        {
          "internalType": "string",
          "name": "_location",
          "type": "string"
        }
      ],
      "name": "createOrder",
      "outputs": [],
      "stateMutability": "nonpayable",
      "type": "function"
    },
    {
      "inputs": [
        {
          "internalType": "uint256",
          "name": "_orderItem",
          "type": "uint256"
        },
        {
          "internalType": "address",
          "name": "_distributor",
          "type": "address"
        },
        {
          "internalType": "string",
          "name": "_location",
          "type": "string"
        }
      ],
      "name": "addDistributorToOrderItem",
      "outputs": [],
      "stateMutability": "nonpayable",
      "type": "function"
    },
    {
      "inputs": [
        {
          "internalType": "uint256",
          "name": "_orderItem",
          "type": "uint256"
        }
      ],
      "name": "viewDistributor",
      "outputs": [
        {
          "internalType": "address",
          "name": "",
          "type": "address"
        }
      ],
      "stateMutability": "view",
      "type": "function",
      "constant": true
    },
    {
      "inputs": [
        {
          "internalType": "uint256",
          "name": "_orderItem",
          "type": "uint256"
        },
        {
          "internalType": "string",
          "name": "_location",
          "type": "string"
        }
      ],
      "name": "orderDelivered",
      "outputs": [],
      "stateMutability": "nonpayable",
      "type": "function"
    },
    {
      "inputs": [
        {
          "internalType": "uint256",
          "name": "_orderItem",
          "type": "uint256"
        },
        {
          "internalType": "string",
          "name": "_location",
          "type": "string"
        }
      ],
      "name": "customerConfirmation",
      "outputs": [],
      "stateMutability": "nonpayable",
      "type": "function"
    },
    {
      "inputs": [],
      "name": "viewOrder",
      "outputs": [
        {
          "components": [
            {
              "internalType": "uint256",
              "name": "orderId",
              "type": "uint256"
            },
            {
              "internalType": "uint256",
              "name": "price",
              "type": "uint256"
            },
            {
              "internalType": "string",
              "name": "productDesc",
              "type": "string"
            },
            {
              "internalType": "string",
              "name": "producerName",
              "type": "string"
            },
            {
              "internalType": "int32",
              "name": "quantity",
              "type": "int32"
            }
          ],
          "internalType": "struct SupplyChain.TempOrderDetail[]",
          "name": "",
          "type": "tuple[]"
        }
      ],
      "stateMutability": "view",
      "type": "function",
      "constant": true
    }
  ],
  "bytecode": "0x60806040523480156200001157600080fd5b50336000806101000a81548173ffffffffffffffffffffffffffffffffffffffff021916908373ffffffffffffffffffffffffffffffffffffffff16021790555060008054906101000a900473ffffffffffffffffffffffffffffffffffffffff1673ffffffffffffffffffffffffffffffffffffffff16600073ffffffffffffffffffffffffffffffffffffffff167f5c486528ec3e3f0ea91181cff8116f02bfa350e03b8b6f12e00765adbb5af85c60405160405180910390a3620000de336200010e60201b60201c565b620000ef336200016f60201b60201c565b6200010033620001d060201b60201c565b6001600681905550620004ca565b620001298160016200023160201b620020f71790919060201c565b8073ffffffffffffffffffffffffffffffffffffffff167fddbf200aa634dc3fb81cfd68583dd1040d1c751d335e1d86b631bde3e977fea860405160405180910390a250565b6200018a8160026200023160201b620020f71790919060201c565b8073ffffffffffffffffffffffffffffffffffffffff167f28b26e7a3d20aedbc5f8f2ebf7da671c0491723a2b78f47a097b0e46dee0714260405160405180910390a250565b620001eb8160036200023160201b620020f71790919060201c565b8073ffffffffffffffffffffffffffffffffffffffff167f2977383b0207d39ef14220620b6cf3e6c9b6e78592af90baeef6614ed2fcd2c660405160405180910390a250565b620002438282620002e460201b60201c565b1562000286576040517f08c379a00000000000000000000000000000000000000000000000000000000081526004016200027d9062000410565b60405180910390fd5b60018260000160008373ffffffffffffffffffffffffffffffffffffffff1673ffffffffffffffffffffffffffffffffffffffff16815260200190815260200160002060006101000a81548160ff0219169083151502179055505050565b60008073ffffffffffffffffffffffffffffffffffffffff168273ffffffffffffffffffffffffffffffffffffffff16141562000358576040517f08c379a00000000000000000000000000000000000000000000000000000000081526004016200034f90620004a8565b60405180910390fd5b8260000160008373ffffffffffffffffffffffffffffffffffffffff1673ffffffffffffffffffffffffffffffffffffffff16815260200190815260200160002060009054906101000a900460ff16905092915050565b600082825260208201905092915050565b7f526f6c65733a206163636f756e7420616c72656164792068617320726f6c6500600082015250565b6000620003f8601f83620003af565b91506200040582620003c0565b602082019050919050565b600060208201905081810360008301526200042b81620003e9565b9050919050565b7f526f6c65733a206163636f756e7420697320746865207a65726f20616464726560008201527f7373000000000000000000000000000000000000000000000000000000000000602082015250565b600062000490602283620003af565b91506200049d8262000432565b604082019050919050565b60006020820190508181036000830152620004c38162000481565b9050919050565b613aaa80620004da6000396000f3fe608060405234801561001057600080fd5b50600436106101cf5760003560e01c80638f32d59b11610104578063ddf80166116100a2578063f552102211610071578063f552102214610502578063f92f030d14610532578063f9b867d814610550578063fe290ccb1461055a576101cf565b8063ddf8016614610462578063eafd4bbd1461047e578063f26518ed146104b1578063f2fde38b146104e6576101cf565b80639e432ed5116100de5780639e432ed5146103d4578063b99a0a37146103f0578063c897d5a61461040c578063d85fcb291461042a576101cf565b80638f32d59b1461037e57806392f14c1c1461039c578063988c7717146103b8576101cf565b80636946b55c116101715780637250e2241161014b5780637250e224146102e4578063834ff739146103005780638da5cb5b146103305780638f0c86fa1461034e576101cf565b80636946b55c1461028a5780636e08cbac146102a6578063715018a6146102da576101cf565b8063497a23b6116101ad578063497a23b61461023c57806361e6982d1461025a578063644241db1461026457806365b4b3ab1461026e576101cf565b806303b7c764146101d45780630f5e777b146101f0578063112940f914610220575b600080fd5b6101ee60048036038101906101e99190612953565b610578565b005b61020a600480360381019061020591906129d2565b610706565b6040516102179190612a40565b60405180910390f35b61023a60048036038101906102359190612a87565b61078e565b005b61024461079a565b6040516102519190612ca6565b60405180910390f35b610262610a47565b005b61026c610a52565b005b61028860048036038101906102839190612ced565b610a5d565b005b6102a4600480360381019061029f9190612d49565b610b85565b005b6102c060048036038101906102bb91906129d2565b610ca3565b6040516102d1959493929190612e75565b60405180910390f35b6102e2610d8e565b005b6102fe60048036038101906102f99190612a87565b610e5d565b005b61031a60048036038101906103159190612a87565b610e69565b6040516103279190612eea565b60405180910390f35b610338610e86565b6040516103459190612a40565b60405180910390f35b61036860048036038101906103639190612a87565b610eaf565b6040516103759190612eea565b60405180910390f35b610386610ecc565b6040516103939190612eea565b60405180910390f35b6103b660048036038101906103b191906129d2565b610f23565b005b6103d260048036038101906103cd9190612f05565b61105a565b005b6103ee60048036038101906103e99190612fd4565b611107565b005b61040a60048036038101906104059190612d49565b611441565b005b61041461150e565b60405161042191906130d0565b60405180910390f35b610444600480360381019061043f91906129d2565b611514565b604051610459999897969594939291906130fa565b60405180910390f35b61047c60048036038101906104779190612a87565b611734565b005b610498600480360381019061049391906129d2565b611788565b6040516104a8949392919061319c565b60405180910390f35b6104cb60048036038101906104c691906129d2565b61190f565b6040516104dd969594939291906131ef565b60405180910390f35b61050060048036038101906104fb9190612a87565b611b68565b005b61051c60048036038101906105179190612a87565b611b85565b6040516105299190612eea565b60405180910390f35b61053a611ba2565b6040516105479190613411565b60405180910390f35b610558611eef565b005b610562611efa565b60405161056f919061357a565b60405180910390f35b61058133610e69565b6105c0576040517f08c379a00000000000000000000000000000000000000000000000000000000081526004016105b79061360e565b60405180910390fd5b600060016009805490506105d4919061365d565b9050806008600083815260200190815260200160002060000181905550336008600083815260200190815260200160002060010160006101000a81548173ffffffffffffffffffffffffffffffffffffffff021916908373ffffffffffffffffffffffffffffffffffffffff160217905550600e5460086000838152602001908152602001600020600201819055508160086000838152602001908152602001600020600301908051906020019061068d929190612666565b5060098190806001815401808255809150506001900390600052602060002001600090919091909150556106c08161219f565b7fffa896d8919f0556f53ace1395617969a3b53ab5271a085e28ac0c4a3724e63d816040516106ef91906130d0565b60405180910390a1610702826001610a5d565b5050565b600061071133611b85565b610750576040517f08c379a000000000000000000000000000000000000000000000000000000000815260040161074790613725565b60405180910390fd5b600a600083815260200190815260200160002060040160019054906101000a900473ffffffffffffffffffffffffffffffffffffffff169050919050565b610797816121e4565b50565b60606000600b8054905067ffffffffffffffff8111156107bd576107bc612828565b5b6040519080825280602002602001820160405280156107f657816020015b6107e36126ec565b8152602001906001900390816107db5790505b50905060005b600b80549050811015610a3f576000600a600060018461081c919061365d565b8152602001908152602001600020905060006007600060018561083f919061365d565b81526020019081526020016000209050816001015484848151811061086757610866613745565b5b60200260200101516000018181525050806001018054610886906137a3565b80601f01602080910402602001604051908101604052809291908181526020018280546108b2906137a3565b80156108ff5780601f106108d4576101008083540402835291602001916108ff565b820191906000526020600020905b8154815290600101906020018083116108e257829003601f168201915b505050505084848151811061091757610916613745565b5b602002602001015160400181905250806002018054610935906137a3565b80601f0160208091040260200160405190810160405280929190818152602001828054610961906137a3565b80156109ae5780601f10610983576101008083540402835291602001916109ae565b820191906000526020600020905b81548152906001019060200180831161099157829003601f168201915b50505050508484815181106109c6576109c5613745565b5b60200260200101516060018190525080600401548484815181106109ed576109ec613745565b5b602002602001015160200181815250506001848481518110610a1257610a11613745565b5b60200260200101516080019060030b908160030b8152505050508080610a37906137d5565b9150506107fc565b508091505090565b610a503361223e565b565b610a5b33612298565b565b6001600d54610a6c919061365d565b600c6000600d5481526020019081526020016000206000018190555033600c6000600d54815260200190815260200160002060010160006101000a81548173ffffffffffffffffffffffffffffffffffffffff021916908373ffffffffffffffffffffffffffffffffffffffff16021790555081600c6000600d5481526020019081526020016000206002019080519060200190610b0b929190612666565b5042600c6000600d5481526020019081526020016000206003018190555080600c6000600d54815260200190815260200160002060040160006101000a81548160ff02191690836004811115610b6457610b63612dfe565b5b0217905550600d6000815480929190610b7c906137d5565b91905055505050565b610b8e33610eaf565b610bcd576040517f08c379a0000000000000000000000000000000000000000000000000000000008152600401610bc490613890565b60405180910390fd5b60026004811115610be157610be0612dfe565b5b600a600084815260200190815260200160002060040160009054906101000a900460ff166004811115610c1757610c16612dfe565b5b1415610c5d576003600a600084815260200190815260200160002060040160006101000a81548160ff02191690836004811115610c5757610c56612dfe565b5b02179055505b7fd2f1cdd76b4e7bfba9c07af47c5c4f187ffbbd992b4fa1afce4df6a00a166e8582604051610c8c91906130d0565b60405180910390a1610c9f816003610a5d565b5050565b600c6020528060005260406000206000915090508060000154908060010160009054906101000a900473ffffffffffffffffffffffffffffffffffffffff1690806002018054610cf2906137a3565b80601f0160208091040260200160405190810160405280929190818152602001828054610d1e906137a3565b8015610d6b5780601f10610d4057610100808354040283529160200191610d6b565b820191906000526020600020905b815481529060010190602001808311610d4e57829003601f168201915b5050505050908060030154908060040160009054906101000a900460ff16905085565b610d96610ecc565b610d9f57600080fd5b600073ffffffffffffffffffffffffffffffffffffffff1660008054906101000a900473ffffffffffffffffffffffffffffffffffffffff1673ffffffffffffffffffffffffffffffffffffffff167f5c486528ec3e3f0ea91181cff8116f02bfa350e03b8b6f12e00765adbb5af85c60405160405180910390a360008060006101000a81548173ffffffffffffffffffffffffffffffffffffffff021916908373ffffffffffffffffffffffffffffffffffffffff160217905550565b610e66816122f2565b50565b6000610e7f82600261234c90919063ffffffff16565b9050919050565b60008060009054906101000a900473ffffffffffffffffffffffffffffffffffffffff16905090565b6000610ec582600161234c90919063ffffffff16565b9050919050565b60008060009054906101000a900473ffffffffffffffffffffffffffffffffffffffff1673ffffffffffffffffffffffffffffffffffffffff163373ffffffffffffffffffffffffffffffffffffffff1614905090565b610f2c33610e69565b610f6b576040517f08c379a0000000000000000000000000000000000000000000000000000000008152600401610f629061360e565b60405180910390fd5b60006001600b80549050610f7f919061365d565b905080600a60008381526020019081526020016000206000018190555081600a6000838152602001908152602001600020600201819055506001600a600083815260200190815260200160002060040160006101000a81548160ff02191690836004811115610ff157610ff0612dfe565b5b0217905550600b8190806001815401808255809150506001900390600052602060002001600090919091909150557f872a542432f777a3b4b905fd26f17613450da3996f2935ce1a06a2ac0948ea628160405161104e91906130d0565b60405180910390a15050565b61106333611b85565b6110a2576040517f08c379a000000000000000000000000000000000000000000000000000000000815260040161109990613725565b60405180910390fd5b81600a600085815260200190815260200160002060040160016101000a81548173ffffffffffffffffffffffffffffffffffffffff021916908373ffffffffffffffffffffffffffffffffffffffff160217905550611102816004610a5d565b505050565b61111033611b85565b61114f576040517f08c379a000000000000000000000000000000000000000000000000000000000815260040161114690613725565b60405180910390fd5b60405180610120016040528060065481526020018a8a8080601f016020809104026020016040519081016040528093929190818152602001838380828437600081840152601f19601f82011690508083019250505050505050815260200188888080601f016020809104026020016040519081016040528093929190818152602001838380828437600081840152601f19601f82011690508083019250505050505050815260200186868080601f016020809104026020016040519081016040528093929190818152602001838380828437600081840152601f19601f820116905080830192505050505050508152602001828152602001600160030b81526020013373ffffffffffffffffffffffffffffffffffffffff168152602001428152602001600015158152506007600060065481526020019081526020016000206000820151816000015560208201518160010190805190602001906112b5929190612666565b5060408201518160020190805190602001906112d2929190612666565b5060608201518160030190805190602001906112ef929190612666565b506080820151816004015560a08201518160050160006101000a81548163ffffffff021916908360030b63ffffffff16021790555060c08201518160050160046101000a81548173ffffffffffffffffffffffffffffffffffffffff021916908373ffffffffffffffffffffffffffffffffffffffff16021790555060e082015181600601556101008201518160070160006101000a81548160ff02191690831515021790555090505060016006546113a8919061365d565b6006819055507f6fcd75c85744f5cca7f08ab44eac7bc7d9a892f9d67f3d038f9dc911cdeb531f6006546040516113df91906130d0565b60405180910390a161143683838080601f016020809104026020016040519081016040528093929190818152602001838380828437600081840152601f19601f820116905080830192505050505050506000610a5d565b505050505050505050565b61144a33610e69565b611489576040517f08c379a00000000000000000000000000000000000000000000000000000000081526004016114809061360e565b60405180910390fd5b6002600a600084815260200190815260200160002060040160006101000a81548160ff021916908360048111156114c3576114c2612dfe565b5b02179055507f9f1b9ace097a6317865f437e4f07511b3ee6f6dff3f1421066f57d4e25bb2a7c826040516114f791906130d0565b60405180910390a161150a816002610a5d565b5050565b60065481565b600760205280600052604060002060009150905080600001549080600101805461153d906137a3565b80601f0160208091040260200160405190810160405280929190818152602001828054611569906137a3565b80156115b65780601f1061158b576101008083540402835291602001916115b6565b820191906000526020600020905b81548152906001019060200180831161159957829003601f168201915b5050505050908060020180546115cb906137a3565b80601f01602080910402602001604051908101604052809291908181526020018280546115f7906137a3565b80156116445780601f1061161957610100808354040283529160200191611644565b820191906000526020600020905b81548152906001019060200180831161162757829003601f168201915b505050505090806003018054611659906137a3565b80601f0160208091040260200160405190810160405280929190818152602001828054611685906137a3565b80156116d25780601f106116a7576101008083540402835291602001916116d2565b820191906000526020600020905b8154815290600101906020018083116116b557829003601f168201915b5050505050908060040154908060050160009054906101000a900460030b908060050160049054906101000a900473ffffffffffffffffffffffffffffffffffffffff16908060060154908060070160009054906101000a900460ff16905089565b61173d33611b85565b61177c576040517f08c379a000000000000000000000000000000000000000000000000000000000815260040161177390613725565b60405180910390fd5b61178581612414565b50565b6000806060806007600086815260200190815260200160002060000154600760008781526020019081526020016000206004015460076000888152602001908152602001600020600101600760008981526020019081526020016000206002018180546117f4906137a3565b80601f0160208091040260200160405190810160405280929190818152602001828054611820906137a3565b801561186d5780601f106118425761010080835404028352916020019161186d565b820191906000526020600020905b81548152906001019060200180831161185057829003601f168201915b50505050509150808054611880906137a3565b80601f01602080910402602001604051908101604052809291908181526020018280546118ac906137a3565b80156118f95780601f106118ce576101008083540402835291602001916118f9565b820191906000526020600020905b8154815290600101906020018083116118dc57829003601f168201915b5050505050905093509350935093509193509193565b60008060608060008061192133610e69565b611960576040517f08c379a00000000000000000000000000000000000000000000000000000000081526004016119579061360e565b60405180910390fd5b6000600a60008981526020019081526020016000206002015490506007600082815260200190815260200160002060040154600e5461199f919061365d565b600e81905550600a60008981526020019081526020016000206002015460076000838152602001908152602001600020600401546007600084815260200190815260200160002060010160076000858152602001908152602001600020600201600a600086815260200190815260200160002060010154600a600087815260200190815260200160002060040160009054906101000a900460ff16838054611a46906137a3565b80601f0160208091040260200160405190810160405280929190818152602001828054611a72906137a3565b8015611abf5780601f10611a9457610100808354040283529160200191611abf565b820191906000526020600020905b815481529060010190602001808311611aa257829003601f168201915b50505050509350828054611ad2906137a3565b80601f0160208091040260200160405190810160405280929190818152602001828054611afe906137a3565b8015611b4b5780601f10611b2057610100808354040283529160200191611b4b565b820191906000526020600020905b815481529060010190602001808311611b2e57829003601f168201915b505050505092509650965096509650965096505091939550919395565b611b70610ecc565b611b7957600080fd5b611b828161246e565b50565b6000611b9b82600361234c90919063ffffffff16565b9050919050565b606060006001600654611bb591906138b0565b67ffffffffffffffff811115611bce57611bcd612828565b5b604051908082528060200260200182016040528015611c0757816020015b611bf461271e565b815260200190600190039081611bec5790505b50905060005b6001600654611c1c91906138b0565b811015611ee757600060076000600184611c36919061365d565b81526020019081526020016000209050806040518061012001604052908160008201548152602001600182018054611c6d906137a3565b80601f0160208091040260200160405190810160405280929190818152602001828054611c99906137a3565b8015611ce65780601f10611cbb57610100808354040283529160200191611ce6565b820191906000526020600020905b815481529060010190602001808311611cc957829003601f168201915b50505050508152602001600282018054611cff906137a3565b80601f0160208091040260200160405190810160405280929190818152602001828054611d2b906137a3565b8015611d785780601f10611d4d57610100808354040283529160200191611d78565b820191906000526020600020905b815481529060010190602001808311611d5b57829003601f168201915b50505050508152602001600382018054611d91906137a3565b80601f0160208091040260200160405190810160405280929190818152602001828054611dbd906137a3565b8015611e0a5780601f10611ddf57610100808354040283529160200191611e0a565b820191906000526020600020905b815481529060010190602001808311611ded57829003601f168201915b50505050508152602001600482015481526020016005820160009054906101000a900460030b60030b60030b81526020016005820160049054906101000a900473ffffffffffffffffffffffffffffffffffffffff1673ffffffffffffffffffffffffffffffffffffffff1673ffffffffffffffffffffffffffffffffffffffff168152602001600682015481526020016007820160009054906101000a900460ff161515151581525050838381518110611ec857611ec7613745565b5b6020026020010181905250508080611edf906137d5565b915050611c0d565b508091505090565b611ef833612565565b565b60606000600d5467ffffffffffffffff811115611f1a57611f19612828565b5b604051908082528060200260200182016040528015611f5357816020015b611f40612785565b815260200190600190039081611f385790505b50905060005b600d548110156120ef576000600c60008381526020019081526020016000209050806040518060a0016040529081600082015481526020016001820160009054906101000a900473ffffffffffffffffffffffffffffffffffffffff1673ffffffffffffffffffffffffffffffffffffffff1673ffffffffffffffffffffffffffffffffffffffff168152602001600282018054611ff6906137a3565b80601f0160208091040260200160405190810160405280929190818152602001828054612022906137a3565b801561206f5780601f106120445761010080835404028352916020019161206f565b820191906000526020600020905b81548152906001019060200180831161205257829003601f168201915b50505050508152602001600382015481526020016004820160009054906101000a900460ff1660048111156120a7576120a6612dfe565b5b60048111156120b9576120b8612dfe565b5b815250508383815181106120d0576120cf613745565b5b60200260200101819052505080806120e7906137d5565b915050611f59565b508091505090565b612101828261234c565b15612141576040517f08c379a000000000000000000000000000000000000000000000000000000000815260040161213890613930565b60405180910390fd5b60018260000160008373ffffffffffffffffffffffffffffffffffffffff1673ffffffffffffffffffffffffffffffffffffffff16815260200190815260200160002060006101000a81548160ff0219169083151502179055505050565b6000600190505b600b8054905081116121e05781600a60008381526020019081526020016000206001018190555080806121d8906137d5565b9150506121a6565b5050565b6121f88160026120f790919063ffffffff16565b8073ffffffffffffffffffffffffffffffffffffffff167f28b26e7a3d20aedbc5f8f2ebf7da671c0491723a2b78f47a097b0e46dee0714260405160405180910390a250565b6122528160026125bf90919063ffffffff16565b8073ffffffffffffffffffffffffffffffffffffffff167fe3f5ed5f263f1f01764a96edfc7d025f511ec5f7d180e8816908b78bcf74f09860405160405180910390a250565b6122ac8160016125bf90919063ffffffff16565b8073ffffffffffffffffffffffffffffffffffffffff167f126174f6cf49c81cdb4a9214c6b8f037bef55b4ec31e4fc776cea2a1c8a88d5960405160405180910390a250565b6123068160016120f790919063ffffffff16565b8073ffffffffffffffffffffffffffffffffffffffff167fddbf200aa634dc3fb81cfd68583dd1040d1c751d335e1d86b631bde3e977fea860405160405180910390a250565b60008073ffffffffffffffffffffffffffffffffffffffff168273ffffffffffffffffffffffffffffffffffffffff1614156123bd576040517f08c379a00000000000000000000000000000000000000000000000000000000081526004016123b4906139c2565b60405180910390fd5b8260000160008373ffffffffffffffffffffffffffffffffffffffff1673ffffffffffffffffffffffffffffffffffffffff16815260200190815260200160002060009054906101000a900460ff16905092915050565b6124288160036120f790919063ffffffff16565b8073ffffffffffffffffffffffffffffffffffffffff167f2977383b0207d39ef14220620b6cf3e6c9b6e78592af90baeef6614ed2fcd2c660405160405180910390a250565b600073ffffffffffffffffffffffffffffffffffffffff168173ffffffffffffffffffffffffffffffffffffffff1614156124a857600080fd5b8073ffffffffffffffffffffffffffffffffffffffff1660008054906101000a900473ffffffffffffffffffffffffffffffffffffffff1673ffffffffffffffffffffffffffffffffffffffff167f5c486528ec3e3f0ea91181cff8116f02bfa350e03b8b6f12e00765adbb5af85c60405160405180910390a3806000806101000a81548173ffffffffffffffffffffffffffffffffffffffff021916908373ffffffffffffffffffffffffffffffffffffffff16021790555050565b6125798160036125bf90919063ffffffff16565b8073ffffffffffffffffffffffffffffffffffffffff167fb78e9906c5bae930ccf756a5214c9855b1782f0eb30f9566de2384f034af48f360405160405180910390a250565b6125c9828261234c565b612608576040517f08c379a00000000000000000000000000000000000000000000000000000000081526004016125ff90613a54565b60405180910390fd5b60008260000160008373ffffffffffffffffffffffffffffffffffffffff1673ffffffffffffffffffffffffffffffffffffffff16815260200190815260200160002060006101000a81548160ff0219169083151502179055505050565b828054612672906137a3565b90600052602060002090601f01602090048101928261269457600085556126db565b82601f106126ad57805160ff19168380011785556126db565b828001600101855582156126db579182015b828111156126da5782518255916020019190600101906126bf565b5b5090506126e891906127dc565b5090565b6040518060a0016040528060008152602001600081526020016060815260200160608152602001600060030b81525090565b6040518061012001604052806000815260200160608152602001606081526020016060815260200160008152602001600060030b8152602001600073ffffffffffffffffffffffffffffffffffffffff168152602001600081526020016000151581525090565b6040518060a0016040528060008152602001600073ffffffffffffffffffffffffffffffffffffffff1681526020016060815260200160008152602001600060048111156127d6576127d5612dfe565b5b81525090565b5b808211156127f55760008160009055506001016127dd565b5090565b6000604051905090565b600080fd5b600080fd5b600080fd5b600080fd5b6000601f19601f8301169050919050565b7f4e487b7100000000000000000000000000000000000000000000000000000000600052604160045260246000fd5b61286082612817565b810181811067ffffffffffffffff8211171561287f5761287e612828565b5b80604052505050565b60006128926127f9565b905061289e8282612857565b919050565b600067ffffffffffffffff8211156128be576128bd612828565b5b6128c782612817565b9050602081019050919050565b82818337600083830152505050565b60006128f66128f1846128a3565b612888565b90508281526020810184848401111561291257612911612812565b5b61291d8482856128d4565b509392505050565b600082601f83011261293a5761293961280d565b5b813561294a8482602086016128e3565b91505092915050565b60006020828403121561296957612968612803565b5b600082013567ffffffffffffffff81111561298757612986612808565b5b61299384828501612925565b91505092915050565b6000819050919050565b6129af8161299c565b81146129ba57600080fd5b50565b6000813590506129cc816129a6565b92915050565b6000602082840312156129e8576129e7612803565b5b60006129f6848285016129bd565b91505092915050565b600073ffffffffffffffffffffffffffffffffffffffff82169050919050565b6000612a2a826129ff565b9050919050565b612a3a81612a1f565b82525050565b6000602082019050612a556000830184612a31565b92915050565b612a6481612a1f565b8114612a6f57600080fd5b50565b600081359050612a8181612a5b565b92915050565b600060208284031215612a9d57612a9c612803565b5b6000612aab84828501612a72565b91505092915050565b600081519050919050565b600082825260208201905092915050565b6000819050602082019050919050565b612ae98161299c565b82525050565b600081519050919050565b600082825260208201905092915050565b60005b83811015612b29578082015181840152602081019050612b0e565b83811115612b38576000848401525b50505050565b6000612b4982612aef565b612b538185612afa565b9350612b63818560208601612b0b565b612b6c81612817565b840191505092915050565b60008160030b9050919050565b612b8d81612b77565b82525050565b600060a083016000830151612bab6000860182612ae0565b506020830151612bbe6020860182612ae0565b5060408301518482036040860152612bd68282612b3e565b91505060608301518482036060860152612bf08282612b3e565b9150506080830151612c056080860182612b84565b508091505092915050565b6000612c1c8383612b93565b905092915050565b6000602082019050919050565b6000612c3c82612ab4565b612c468185612abf565b935083602082028501612c5885612ad0565b8060005b85811015612c945784840389528151612c758582612c10565b9450612c8083612c24565b925060208a01995050600181019050612c5c565b50829750879550505050505092915050565b60006020820190508181036000830152612cc08184612c31565b905092915050565b60058110612cd557600080fd5b50565b600081359050612ce781612cc8565b92915050565b60008060408385031215612d0457612d03612803565b5b600083013567ffffffffffffffff811115612d2257612d21612808565b5b612d2e85828601612925565b9250506020612d3f85828601612cd8565b9150509250929050565b60008060408385031215612d6057612d5f612803565b5b6000612d6e858286016129bd565b925050602083013567ffffffffffffffff811115612d8f57612d8e612808565b5b612d9b85828601612925565b9150509250929050565b612dae8161299c565b82525050565b600082825260208201905092915050565b6000612dd082612aef565b612dda8185612db4565b9350612dea818560208601612b0b565b612df381612817565b840191505092915050565b7f4e487b7100000000000000000000000000000000000000000000000000000000600052602160045260246000fd5b60058110612e3e57612e3d612dfe565b5b50565b6000819050612e4f82612e2d565b919050565b6000612e5f82612e41565b9050919050565b612e6f81612e54565b82525050565b600060a082019050612e8a6000830188612da5565b612e976020830187612a31565b8181036040830152612ea98186612dc5565b9050612eb86060830185612da5565b612ec56080830184612e66565b9695505050505050565b60008115159050919050565b612ee481612ecf565b82525050565b6000602082019050612eff6000830184612edb565b92915050565b600080600060608486031215612f1e57612f1d612803565b5b6000612f2c868287016129bd565b9350506020612f3d86828701612a72565b925050604084013567ffffffffffffffff811115612f5e57612f5d612808565b5b612f6a86828701612925565b9150509250925092565b600080fd5b600080fd5b60008083601f840112612f9457612f9361280d565b5b8235905067ffffffffffffffff811115612fb157612fb0612f74565b5b602083019150836001820283011115612fcd57612fcc612f79565b5b9250929050565b600080600080600080600080600060a08a8c031215612ff657612ff5612803565b5b60008a013567ffffffffffffffff81111561301457613013612808565b5b6130208c828d01612f7e565b995099505060208a013567ffffffffffffffff81111561304357613042612808565b5b61304f8c828d01612f7e565b975097505060408a013567ffffffffffffffff81111561307257613071612808565b5b61307e8c828d01612f7e565b955095505060608a013567ffffffffffffffff8111156130a1576130a0612808565b5b6130ad8c828d01612f7e565b935093505060806130c08c828d016129bd565b9150509295985092959850929598565b60006020820190506130e56000830184612da5565b92915050565b6130f481612b77565b82525050565b600061012082019050613110600083018c612da5565b8181036020830152613122818b612dc5565b90508181036040830152613136818a612dc5565b9050818103606083015261314a8189612dc5565b90506131596080830188612da5565b61316660a08301876130eb565b61317360c0830186612a31565b61318060e0830185612da5565b61318e610100830184612edb565b9a9950505050505050505050565b60006080820190506131b16000830187612da5565b6131be6020830186612da5565b81810360408301526131d08185612dc5565b905081810360608301526131e48184612dc5565b905095945050505050565b600060c0820190506132046000830189612da5565b6132116020830188612da5565b81810360408301526132238187612dc5565b905081810360608301526132378186612dc5565b90506132466080830185612da5565b61325360a0830184612e66565b979650505050505050565b600081519050919050565b600082825260208201905092915050565b6000819050602082019050919050565b61329381612a1f565b82525050565b6132a281612ecf565b82525050565b6000610120830160008301516132c16000860182612ae0565b50602083015184820360208601526132d98282612b3e565b915050604083015184820360408601526132f38282612b3e565b9150506060830151848203606086015261330d8282612b3e565b91505060808301516133226080860182612ae0565b5060a083015161333560a0860182612b84565b5060c083015161334860c086018261328a565b5060e083015161335b60e0860182612ae0565b50610100830151613370610100860182613299565b508091505092915050565b600061338783836132a8565b905092915050565b6000602082019050919050565b60006133a78261325e565b6133b18185613269565b9350836020820285016133c38561327a565b8060005b858110156133ff57848403895281516133e0858261337b565b94506133eb8361338f565b925060208a019950506001810190506133c7565b50829750879550505050505092915050565b6000602082019050818103600083015261342b818461339c565b905092915050565b600081519050919050565b600082825260208201905092915050565b6000819050602082019050919050565b61346881612e54565b82525050565b600060a0830160008301516134866000860182612ae0565b506020830151613499602086018261328a565b50604083015184820360408601526134b18282612b3e565b91505060608301516134c66060860182612ae0565b5060808301516134d9608086018261345f565b508091505092915050565b60006134f0838361346e565b905092915050565b6000602082019050919050565b600061351082613433565b61351a818561343e565b93508360208202850161352c8561344f565b8060005b85811015613568578484038952815161354985826134e4565b9450613554836134f8565b925060208a01995050600181019050613530565b50829750879550505050505092915050565b600060208201905081810360008301526135948184613505565b905092915050565b7f436f6e73756d6572526f6c653a2063616c6c657220646f6573206e6f7420686160008201527f76652074686520436f6e73756d657220726f6c65000000000000000000000000602082015250565b60006135f8603483612db4565b91506136038261359c565b604082019050919050565b60006020820190508181036000830152613627816135eb565b9050919050565b7f4e487b7100000000000000000000000000000000000000000000000000000000600052601160045260246000fd5b60006136688261299c565b91506136738361299c565b9250827fffffffffffffffffffffffffffffffffffffffffffffffffffffffffffffffff038211156136a8576136a761362e565b5b828201905092915050565b7f50726f6475636572526f6c653a2063616c6c657220646f6573206e6f7420686160008201527f7665207468652050726f647563657220726f6c65000000000000000000000000602082015250565b600061370f603483612db4565b915061371a826136b3565b604082019050919050565b6000602082019050818103600083015261373e81613702565b9050919050565b7f4e487b7100000000000000000000000000000000000000000000000000000000600052603260045260246000fd5b7f4e487b7100000000000000000000000000000000000000000000000000000000600052602260045260246000fd5b600060028204905060018216806137bb57607f821691505b602082108114156137cf576137ce613774565b5b50919050565b60006137e08261299c565b91507fffffffffffffffffffffffffffffffffffffffffffffffffffffffffffffffff8214156138135761381261362e565b5b600182019050919050565b7f4469737472696275746f72526f6c653a2063616c6c657220646f6573206e6f7460008201527f206861766520746865204469737472696275746f7220726f6c65000000000000602082015250565b600061387a603a83612db4565b91506138858261381e565b604082019050919050565b600060208201905081810360008301526138a98161386d565b9050919050565b60006138bb8261299c565b91506138c68361299c565b9250828210156138d9576138d861362e565b5b828203905092915050565b7f526f6c65733a206163636f756e7420616c72656164792068617320726f6c6500600082015250565b600061391a601f83612db4565b9150613925826138e4565b602082019050919050565b600060208201905081810360008301526139498161390d565b9050919050565b7f526f6c65733a206163636f756e7420697320746865207a65726f20616464726560008201527f7373000000000000000000000000000000000000000000000000000000000000602082015250565b60006139ac602283612db4565b91506139b782613950565b604082019050919050565b600060208201905081810360008301526139db8161399f565b9050919050565b7f526f6c65733a206163636f756e7420646f6573206e6f74206861766520726f6c60008201527f6500000000000000000000000000000000000000000000000000000000000000602082015250565b6000613a3e602183612db4565b9150613a49826139e2565b604082019050919050565b60006020820190508181036000830152613a6d81613a31565b905091905056fea264697066735822122043d3030ada5c534f17e5783c61291206cf49f8efdf7a7d1d01dd2528c7847ac364736f6c634300080c0033",
  "immutableReferences": {},
  "source": "// SPDX-License-Identifier: MIT\r\n\r\npragma solidity >=0.6.00;\r\n\r\n// Importing the necessary sol files\r\nimport \"../core/Ownable.sol\";\r\nimport \"../access/roles/ConsumerRole.sol\";\r\nimport \"../access/roles/DistributorRole.sol\";\r\nimport \"../access/roles/ProducerRole.sol\";\r\n\r\n\r\n// Define a contract 'Supplychain'\r\ncontract SupplyChain is\r\n    Ownable,\r\n    DistributorRole,\r\n    ConsumerRole,\r\n    ProducerRole\r\n{\r\n    enum OrderState {\r\n        Ordered,\r\n        PaymentCompleted,\r\n        Completed\r\n    }\r\n\r\n    enum OrderItemState {\r\n        Produced,\r\n        Ordered,\r\n        CustomerDeliveryConfirmed,\r\n        Delivered,\r\n        DistributorAdded\r\n    }\r\n\r\n    struct Order {\r\n        uint orderId;\r\n        address orderedBy; // consumer metamask address \r\n        uint totalAmount;\r\n        string location; // order placed location\r\n    }\r\n\r\n    struct OrderItem {\r\n        uint orderItemId;\r\n        uint orderId;\r\n        uint productId;\r\n        uint price;\r\n        OrderItemState itemState;\r\n        address distributor;   // distributor address \r\n        address dispatcher; // dispatcher address\r\n        string location;\r\n    }\r\n\r\n    struct Product {\r\n        uint productId;\r\n        string productName;\r\n        string productDesc;\r\n        string producerName;\r\n        uint price; \r\n        int32 quantity;\r\n        address createdBy;   // producer address\r\n        uint createdDate;\r\n        bool isDeleted;\r\n    }\r\n\r\n    struct ActivityLog {\r\n        uint activityId;\r\n        address createdBy; \r\n        string location;\r\n        uint256 createdDateTime;\r\n        OrderItemState currentState; \r\n    }\r\n\r\n    struct TempOrderDetail {\r\n        uint orderId;\r\n        uint price;\r\n        string productDesc;\r\n        string producerName;\r\n        int32 quantity;\r\n    }\r\n\r\n    // orderId -> Order\r\n    mapping(uint => TempOrderDetail) tempMapping;\r\n    uint[] tempIndexer;\r\n\r\n    // Define a variable called productIndex\r\n    uint256 public productIndex;\r\n\r\n    // productId -> product\r\n     mapping(uint256 => Product) public productMapping;\r\n\r\n    // orderId -> Order\r\n    mapping(uint => Order) orderMapping;\r\n    uint[] orderIndexer;\r\n\r\n    // orderItemId -> order item\r\n    mapping(uint => OrderItem) cartMapping;\r\n    uint[] cartIndexer; // cart indexer\r\n\r\n    // activityId -> activity log\r\n    mapping(uint => ActivityLog) public activityLog;\r\n    uint logIndexer; // cart indexer\r\n\r\n    // totalamount\r\n    uint totalAmount;\r\n   \r\n    // Define events of Oreder item\r\n    event ItemProduced(uint productId);\r\n    event ItemAddedInCart(uint productId);\r\n    event ItemDispatched(uint productId);\r\n    event ItemDelivered(uint productId);\r\n    event ItemDeliveredCustomerConfirmation(uint productId);\r\n\r\n    // Define events for order\r\n    event OrderPlaced(uint orderId);\r\n    event OrderComplete(uint orderId);\r\n\r\n    constructor() public {\r\n        productIndex = 1;\r\n    }\r\n\r\n    // adds a product in the list.\r\n    function addProducts(string calldata product_Name, string calldata product_Desc, string calldata producer_Name, string calldata _location, uint price) public onlyProducer\r\n    {\r\n        productMapping[productIndex] = Product (productIndex, product_Name, product_Desc, producer_Name, price,\r\n        1, msg.sender, block.timestamp, false);\r\n \r\n        productIndex = productIndex + 1;\r\n\r\n        emit ItemProduced(productIndex);\r\n\r\n        addLog(_location, OrderItemState.Produced);\r\n    }\r\n\r\n    // create a log\r\n    function addLog(string memory _location, OrderItemState _state) public {\r\n     \r\n        activityLog[logIndexer].activityId = logIndexer + 1;\r\n        activityLog[logIndexer].createdBy = msg.sender;\r\n        activityLog[logIndexer].location = _location;\r\n        activityLog[logIndexer].createdDateTime = block.timestamp;\r\n        activityLog[logIndexer].currentState = _state;\r\n        logIndexer++;\r\n    }\r\n\r\n    //return logs\r\n    function getLogs() public view returns (ActivityLog[] memory){\r\n        \r\n        ActivityLog[] memory logs = new ActivityLog[](logIndexer);\r\n        \r\n        for (uint i = 0; i < logIndexer; i++) {\r\n            ActivityLog storage log = activityLog[i];\r\n            logs[i] = log;\r\n        }\r\n\r\n        return logs;\r\n    }\r\n\r\n    //return products\r\n    function getProuducts() public view returns (Product[] memory){\r\n        \r\n        Product[] memory products = new Product[](productIndex-1);\r\n        \r\n        for (uint i = 0; i < productIndex-1 ; i++) {\r\n            Product storage product = productMapping[i+1];\r\n            products[i] = product;\r\n        }\r\n\r\n        return products;\r\n    }\r\n\r\n    // fetches the product.\r\n    function viewProduct(uint productId) public view returns(uint, uint256, string memory, string memory)\r\n    {\r\n        return (productMapping[productId].productId,\r\n                productMapping[productId].price, \r\n                productMapping[productId].productName, \r\n                productMapping[productId].productDesc);\r\n    }\r\n\r\n    // adds item in the cart.\r\n    function addItemInCart(uint productId) public onlyConsumer\r\n    {\r\n        uint index = cartIndexer.length + 1;   // cartinde\r\n\r\n        cartMapping[index].orderItemId = index;\r\n        cartMapping[index].productId = productId;\r\n        cartMapping[index].itemState = OrderItemState.Ordered;\r\n        cartIndexer.push(index);\r\n\r\n        emit ItemAddedInCart(index);  // item added event.\r\n    }\r\n\r\n    // view cart item\r\n    function viewCartItems(uint cartIndex) public onlyConsumer returns(uint, uint, string memory, string memory, uint, OrderItemState)\r\n    {\r\n        uint itemIndex = cartMapping[cartIndex].productId;\r\n\r\n        totalAmount = totalAmount + productMapping[itemIndex].price;\r\n\r\n        return (cartMapping[cartIndex].productId,\r\n                productMapping[itemIndex].price,\r\n                productMapping[itemIndex].productName, \r\n                productMapping[itemIndex].productDesc,\r\n                cartMapping[itemIndex].orderId,\r\n                cartMapping[itemIndex].itemState);\r\n    }\r\n\r\n    // creates order\r\n    function createOrder(string memory _location) public onlyConsumer\r\n    {\r\n        uint orderIndex = orderIndexer.length + 1;\r\n        \r\n        orderMapping[orderIndex].orderId = orderIndex;\r\n        orderMapping[orderIndex].orderedBy = msg.sender;\r\n        orderMapping[orderIndex].totalAmount = totalAmount;  // total order amount;\r\n        orderMapping[orderIndex].location = _location;\r\n\r\n        orderIndexer.push(orderIndex); \r\n        \r\n        linkCartItems(orderIndex); // link cart items with order.\r\n\r\n        emit OrderPlaced(orderIndex);     // emit event order placed.\r\n        addLog(_location, OrderItemState.Ordered);        \r\n    }\r\n\r\n    // add orderid to cartItems\r\n    function linkCartItems(uint _orderId) private\r\n    {\r\n        for (uint i = 1; i <= cartIndexer.length; i++) {\r\n            cartMapping[i].orderId = _orderId;\r\n        }\r\n    }\r\n\r\n    // add distributor \r\n    function addDistributorToOrderItem(uint _orderItem, address _distributor, string memory _location) public onlyProducer \r\n    {\r\n        cartMapping[_orderItem].distributor = _distributor;\r\n        addLog(_location, OrderItemState.DistributorAdded);\r\n    }\r\n\r\n    // view distributor\r\n    function viewDistributor(uint _orderItem) public view onlyProducer returns (address)\r\n    {\r\n        return (cartMapping[_orderItem].distributor);\r\n    }\r\n\r\n    // item delivered distributor confirmation\r\n    function orderDelivered(uint _orderItem, string memory _location) public onlyDistributor \r\n    {\r\n        if(cartMapping[_orderItem].itemState == OrderItemState.CustomerDeliveryConfirmed)\r\n            cartMapping[_orderItem].itemState = OrderItemState.Delivered;\r\n\r\n        emit ItemDelivered(_orderItem);\r\n        addLog(_location, OrderItemState.Delivered);\r\n    }\r\n\r\n    // item delivery customer confirmation\r\n    function customerConfirmation(uint _orderItem, string memory _location) public onlyConsumer \r\n    {\r\n        cartMapping[_orderItem].itemState = OrderItemState.CustomerDeliveryConfirmed;\r\n\r\n        emit ItemDeliveredCustomerConfirmation(_orderItem);\r\n        addLog(_location, OrderItemState.CustomerDeliveryConfirmed);\r\n    }\r\n\r\n    // fetches order details\r\n    function viewOrder() public view returns(TempOrderDetail[] memory)\r\n    {\r\n        TempOrderDetail[] memory tempItems = new TempOrderDetail[](cartIndexer.length);\r\n\r\n        for (uint i = 0; i < cartIndexer.length ; i++) {\r\n            \r\n            OrderItem storage item = cartMapping[i+1];\r\n            Product storage product = productMapping[i+1];\r\n\r\n            tempItems[i].orderId = item.orderId;\r\n            tempItems[i].productDesc = product.productName;\r\n            tempItems[i].producerName = product.productDesc;\r\n            tempItems[i].price = product.price;\r\n            tempItems[i].quantity = 1;\r\n\r\n        }\r\n\r\n        return tempItems;\r\n    }\r\n\r\n}\r\n\r\n",
  "sourcePath": "C:\\Blockchain_POC\\smart-contracts\\contracts\\base\\SupplyChain.sol",
  "compiler": {
    "name": "solc",
    "version": "0.8.12+commit.f00d7308.Emscripten.clang"
  },
  "schemaVersion": "3.4.6",
  "updatedAt": "2022-04-24T09:10:02.103Z",
  "networkType": "ethereum",
  "devdoc": {
    "kind": "dev",
    "methods": {},
    "version": 1
  },
  "userdoc": {
    "kind": "user",
    "methods": {
      "isOwner()": {
        "notice": "Check if the calling address is the owner of the contract"
      },
      "owner()": {
        "notice": "Look up the address of the owner"
      },
      "renounceOwnership()": {
        "notice": "Define a function to renounce ownerhip"
      },
      "transferOwnership(address)": {
        "notice": "Define a public function to transfer ownership"
      }
    },
    "version": 1
  }
}