{
  "contractName": "SupplyChain",
  "abi": [
    {
      "inputs": [],
      "stateMutability": "nonpayable",
      "type": "constructor"
    },
    {
      "anonymous": false,
      "inputs": [
        {
          "indexed": true,
          "internalType": "address",
          "name": "account",
          "type": "address"
        }
      ],
      "name": "ConsumerAdded",
      "type": "event"
    },
    {
      "anonymous": false,
      "inputs": [
        {
          "indexed": true,
          "internalType": "address",
          "name": "account",
          "type": "address"
        }
      ],
      "name": "ConsumerRemoved",
      "type": "event"
    },
    {
      "anonymous": false,
      "inputs": [
        {
          "indexed": true,
          "internalType": "address",
          "name": "account",
          "type": "address"
        }
      ],
      "name": "DistributorAdded",
      "type": "event"
    },
    {
      "anonymous": false,
      "inputs": [
        {
          "indexed": true,
          "internalType": "address",
          "name": "account",
          "type": "address"
        }
      ],
      "name": "DistributorRemoved",
      "type": "event"
    },
    {
      "anonymous": false,
      "inputs": [
        {
          "indexed": false,
          "internalType": "uint256",
          "name": "productId",
          "type": "uint256"
        }
      ],
      "name": "ItemAddedInCart",
      "type": "event"
    },
    {
      "anonymous": false,
      "inputs": [
        {
          "indexed": false,
          "internalType": "uint256",
          "name": "productId",
          "type": "uint256"
        }
      ],
      "name": "ItemDelivered",
      "type": "event"
    },
    {
      "anonymous": false,
      "inputs": [
        {
          "indexed": false,
          "internalType": "uint256",
          "name": "productId",
          "type": "uint256"
        }
      ],
      "name": "ItemDeliveredCustomerConfirmation",
      "type": "event"
    },
    {
      "anonymous": false,
      "inputs": [
        {
          "indexed": false,
          "internalType": "uint256",
          "name": "productId",
          "type": "uint256"
        }
      ],
      "name": "ItemDispatched",
      "type": "event"
    },
    {
      "anonymous": false,
      "inputs": [
        {
          "indexed": false,
          "internalType": "uint256",
          "name": "productId",
          "type": "uint256"
        }
      ],
      "name": "ItemProduced",
      "type": "event"
    },
    {
      "anonymous": false,
      "inputs": [
        {
          "indexed": false,
          "internalType": "uint256",
          "name": "orderId",
          "type": "uint256"
        }
      ],
      "name": "OrderComplete",
      "type": "event"
    },
    {
      "anonymous": false,
      "inputs": [
        {
          "indexed": false,
          "internalType": "uint256",
          "name": "orderId",
          "type": "uint256"
        }
      ],
      "name": "OrderPlaced",
      "type": "event"
    },
    {
      "anonymous": false,
      "inputs": [
        {
          "indexed": true,
          "internalType": "address",
          "name": "account",
          "type": "address"
        }
      ],
      "name": "ProducerAdded",
      "type": "event"
    },
    {
      "anonymous": false,
      "inputs": [
        {
          "indexed": true,
          "internalType": "address",
          "name": "account",
          "type": "address"
        }
      ],
      "name": "ProducerRemoved",
      "type": "event"
    },
    {
      "anonymous": false,
      "inputs": [
        {
          "indexed": true,
          "internalType": "address",
          "name": "oldOwner",
          "type": "address"
        },
        {
          "indexed": true,
          "internalType": "address",
          "name": "newOwner",
          "type": "address"
        }
      ],
      "name": "TransferOwnership",
      "type": "event"
    },
    {
      "inputs": [
        {
          "internalType": "uint256",
          "name": "",
          "type": "uint256"
        }
      ],
      "name": "activityLog",
      "outputs": [
        {
          "internalType": "uint256",
          "name": "activityId",
          "type": "uint256"
        },
        {
          "internalType": "uint256",
          "name": "productId",
          "type": "uint256"
        },
        {
          "internalType": "address",
          "name": "createdBy",
          "type": "address"
        },
        {
          "internalType": "string",
          "name": "location",
          "type": "string"
        },
        {
          "internalType": "uint256",
          "name": "createdDateTime",
          "type": "uint256"
        },
        {
          "internalType": "enum SupplyChain.OrderItemState",
          "name": "currentState",
          "type": "uint8"
        },
        {
          "internalType": "string",
          "name": "stateInString",
          "type": "string"
        },
        {
          "internalType": "string",
          "name": "createdByName",
          "type": "string"
        }
      ],
      "stateMutability": "view",
      "type": "function",
      "constant": true
    },
    {
      "inputs": [
        {
          "internalType": "address",
          "name": "account",
          "type": "address"
        }
      ],
      "name": "addConsumer",
      "outputs": [],
      "stateMutability": "nonpayable",
      "type": "function"
    },
    {
      "inputs": [
        {
          "internalType": "address",
          "name": "account",
          "type": "address"
        }
      ],
      "name": "addDistributor",
      "outputs": [],
      "stateMutability": "nonpayable",
      "type": "function"
    },
    {
      "inputs": [
        {
          "internalType": "address",
          "name": "account",
          "type": "address"
        }
      ],
      "name": "addProducer",
      "outputs": [],
      "stateMutability": "nonpayable",
      "type": "function"
    },
    {
      "inputs": [
        {
          "internalType": "address",
          "name": "account",
          "type": "address"
        }
      ],
      "name": "isConsumer",
      "outputs": [
        {
          "internalType": "bool",
          "name": "",
          "type": "bool"
        }
      ],
      "stateMutability": "view",
      "type": "function",
      "constant": true
    },
    {
      "inputs": [
        {
          "internalType": "address",
          "name": "account",
          "type": "address"
        }
      ],
      "name": "isDistributor",
      "outputs": [
        {
          "internalType": "bool",
          "name": "",
          "type": "bool"
        }
      ],
      "stateMutability": "view",
      "type": "function",
      "constant": true
    },
    {
      "inputs": [],
      "name": "isOwner",
      "outputs": [
        {
          "internalType": "bool",
          "name": "",
          "type": "bool"
        }
      ],
      "stateMutability": "view",
      "type": "function",
      "constant": true
    },
    {
      "inputs": [
        {
          "internalType": "address",
          "name": "account",
          "type": "address"
        }
      ],
      "name": "isProducer",
      "outputs": [
        {
          "internalType": "bool",
          "name": "",
          "type": "bool"
        }
      ],
      "stateMutability": "view",
      "type": "function",
      "constant": true
    },
    {
      "inputs": [],
      "name": "owner",
      "outputs": [
        {
          "internalType": "address",
          "name": "",
          "type": "address"
        }
      ],
      "stateMutability": "view",
      "type": "function",
      "constant": true
    },
    {
      "inputs": [],
      "name": "productIndex",
      "outputs": [
        {
          "internalType": "uint256",
          "name": "",
          "type": "uint256"
        }
      ],
      "stateMutability": "view",
      "type": "function",
      "constant": true
    },
    {
      "inputs": [
        {
          "internalType": "uint256",
          "name": "",
          "type": "uint256"
        }
      ],
      "name": "productMapping",
      "outputs": [
        {
          "internalType": "uint256",
          "name": "productId",
          "type": "uint256"
        },
        {
          "internalType": "string",
          "name": "productName",
          "type": "string"
        },
        {
          "internalType": "string",
          "name": "productDesc",
          "type": "string"
        },
        {
          "internalType": "string",
          "name": "producerName",
          "type": "string"
        },
        {
          "internalType": "uint256",
          "name": "price",
          "type": "uint256"
        },
        {
          "internalType": "int32",
          "name": "quantity",
          "type": "int32"
        },
        {
          "internalType": "address",
          "name": "createdBy",
          "type": "address"
        },
        {
          "internalType": "uint256",
          "name": "createdDate",
          "type": "uint256"
        },
        {
          "internalType": "bool",
          "name": "isDeleted",
          "type": "bool"
        }
      ],
      "stateMutability": "view",
      "type": "function",
      "constant": true
    },
    {
      "inputs": [],
      "name": "renounceConsumer",
      "outputs": [],
      "stateMutability": "nonpayable",
      "type": "function"
    },
    {
      "inputs": [],
      "name": "renounceDistributor",
      "outputs": [],
      "stateMutability": "nonpayable",
      "type": "function"
    },
    {
      "inputs": [],
      "name": "renounceOwnership",
      "outputs": [],
      "stateMutability": "nonpayable",
      "type": "function"
    },
    {
      "inputs": [],
      "name": "renounceProducer",
      "outputs": [],
      "stateMutability": "nonpayable",
      "type": "function"
    },
    {
      "inputs": [
        {
          "internalType": "address",
          "name": "newOwner",
          "type": "address"
        }
      ],
      "name": "transferOwnership",
      "outputs": [],
      "stateMutability": "nonpayable",
      "type": "function"
    },
    {
      "inputs": [
        {
          "internalType": "string",
          "name": "product_Name",
          "type": "string"
        },
        {
          "internalType": "string",
          "name": "product_Desc",
          "type": "string"
        },
        {
          "internalType": "string",
          "name": "producer_Name",
          "type": "string"
        },
        {
          "internalType": "string",
          "name": "_location",
          "type": "string"
        },
        {
          "internalType": "uint256",
          "name": "price",
          "type": "uint256"
        }
      ],
      "name": "addProducts",
      "outputs": [],
      "stateMutability": "nonpayable",
      "type": "function"
    },
    {
      "inputs": [
        {
          "internalType": "string",
          "name": "_location",
          "type": "string"
        },
        {
          "internalType": "enum SupplyChain.OrderItemState",
          "name": "_state",
          "type": "uint8"
        },
        {
          "internalType": "string",
          "name": "_stateInString",
          "type": "string"
        },
        {
          "internalType": "uint256",
          "name": "_productId",
          "type": "uint256"
        },
        {
          "internalType": "string",
          "name": "_createdByName",
          "type": "string"
        }
      ],
      "name": "addLog",
      "outputs": [],
      "stateMutability": "nonpayable",
      "type": "function"
    },
    {
      "inputs": [],
      "name": "getLogs",
      "outputs": [
        {
          "components": [
            {
              "internalType": "uint256",
              "name": "activityId",
              "type": "uint256"
            },
            {
              "internalType": "uint256",
              "name": "productId",
              "type": "uint256"
            },
            {
              "internalType": "address",
              "name": "createdBy",
              "type": "address"
            },
            {
              "internalType": "string",
              "name": "location",
              "type": "string"
            },
            {
              "internalType": "uint256",
              "name": "createdDateTime",
              "type": "uint256"
            },
            {
              "internalType": "enum SupplyChain.OrderItemState",
              "name": "currentState",
              "type": "uint8"
            },
            {
              "internalType": "string",
              "name": "stateInString",
              "type": "string"
            },
            {
              "internalType": "string",
              "name": "createdByName",
              "type": "string"
            }
          ],
          "internalType": "struct SupplyChain.ActivityLog[]",
          "name": "",
          "type": "tuple[]"
        }
      ],
      "stateMutability": "view",
      "type": "function",
      "constant": true
    },
    {
      "inputs": [],
      "name": "getProuducts",
      "outputs": [
        {
          "components": [
            {
              "internalType": "uint256",
              "name": "productId",
              "type": "uint256"
            },
            {
              "internalType": "string",
              "name": "productName",
              "type": "string"
            },
            {
              "internalType": "string",
              "name": "productDesc",
              "type": "string"
            },
            {
              "internalType": "string",
              "name": "producerName",
              "type": "string"
            },
            {
              "internalType": "uint256",
              "name": "price",
              "type": "uint256"
            },
            {
              "internalType": "int32",
              "name": "quantity",
              "type": "int32"
            },
            {
              "internalType": "address",
              "name": "createdBy",
              "type": "address"
            },
            {
              "internalType": "uint256",
              "name": "createdDate",
              "type": "uint256"
            },
            {
              "internalType": "bool",
              "name": "isDeleted",
              "type": "bool"
            }
          ],
          "internalType": "struct SupplyChain.Product[]",
          "name": "",
          "type": "tuple[]"
        }
      ],
      "stateMutability": "view",
      "type": "function",
      "constant": true
    },
    {
      "inputs": [
        {
          "internalType": "uint256",
          "name": "productId",
          "type": "uint256"
        }
      ],
      "name": "viewProduct",
      "outputs": [
        {
          "internalType": "uint256",
          "name": "",
          "type": "uint256"
        },
        {
          "internalType": "uint256",
          "name": "",
          "type": "uint256"
        },
        {
          "internalType": "string",
          "name": "",
          "type": "string"
        },
        {
          "internalType": "string",
          "name": "",
          "type": "string"
        }
      ],
      "stateMutability": "view",
      "type": "function",
      "constant": true
    },
    {
      "inputs": [
        {
          "internalType": "uint256",
          "name": "productId",
          "type": "uint256"
        },
        {
          "internalType": "string",
          "name": "_location",
          "type": "string"
        }
      ],
      "name": "addItemInCart",
      "outputs": [],
      "stateMutability": "nonpayable",
      "type": "function"
    },
    {
      "inputs": [
        {
          "internalType": "uint256",
          "name": "cartIndex",
          "type": "uint256"
        }
      ],
      "name": "viewCartItems",
      "outputs": [
        {
          "internalType": "uint256",
          "name": "",
          "type": "uint256"
        },
        {
          "internalType": "uint256",
          "name": "",
          "type": "uint256"
        },
        {
          "internalType": "string",
          "name": "",
          "type": "string"
        },
        {
          "internalType": "string",
          "name": "",
          "type": "string"
        },
        {
          "internalType": "uint256",
          "name": "",
          "type": "uint256"
        },
        {
          "internalType": "enum SupplyChain.OrderItemState",
          "name": "",
          "type": "uint8"
        }
      ],
      "stateMutability": "nonpayable",
      "type": "function"
    },
    {
      "inputs": [
        {
          "internalType": "string",
          "name": "_location",
          "type": "string"
        }
      ],
      "name": "createOrder",
      "outputs": [],
      "stateMutability": "nonpayable",
      "type": "function"
    },
    {
      "inputs": [
        {
          "internalType": "uint256",
          "name": "_orderItem",
          "type": "uint256"
        },
        {
          "internalType": "address",
          "name": "_distributor",
          "type": "address"
        },
        {
          "internalType": "string",
          "name": "_location",
          "type": "string"
        }
      ],
      "name": "addDistributorToOrderItem",
      "outputs": [],
      "stateMutability": "nonpayable",
      "type": "function"
    },
    {
      "inputs": [
        {
          "internalType": "uint256",
          "name": "_orderItem",
          "type": "uint256"
        }
      ],
      "name": "viewDistributor",
      "outputs": [
        {
          "internalType": "address",
          "name": "",
          "type": "address"
        }
      ],
      "stateMutability": "view",
      "type": "function",
      "constant": true
    },
    {
      "inputs": [
        {
          "internalType": "uint256",
          "name": "_orderItem",
          "type": "uint256"
        },
        {
          "internalType": "string",
          "name": "_location",
          "type": "string"
        }
      ],
      "name": "orderDelivered",
      "outputs": [],
      "stateMutability": "nonpayable",
      "type": "function"
    },
    {
      "inputs": [],
      "name": "viewOrder",
      "outputs": [
        {
          "components": [
            {
              "internalType": "uint256",
              "name": "orderId",
              "type": "uint256"
            },
            {
              "internalType": "uint256",
              "name": "price",
              "type": "uint256"
            },
            {
              "internalType": "string",
              "name": "productDesc",
              "type": "string"
            },
            {
              "internalType": "string",
              "name": "producerName",
              "type": "string"
            },
            {
              "internalType": "int32",
              "name": "quantity",
              "type": "int32"
            }
          ],
          "internalType": "struct SupplyChain.TempOrderDetail[]",
          "name": "",
          "type": "tuple[]"
        }
      ],
      "stateMutability": "view",
      "type": "function",
      "constant": true
    }
  ],
  "bytecode": "0x60806040523480156200001157600080fd5b50336000806101000a81548173ffffffffffffffffffffffffffffffffffffffff021916908373ffffffffffffffffffffffffffffffffffffffff16021790555060008054906101000a900473ffffffffffffffffffffffffffffffffffffffff1673ffffffffffffffffffffffffffffffffffffffff16600073ffffffffffffffffffffffffffffffffffffffff167f5c486528ec3e3f0ea91181cff8116f02bfa350e03b8b6f12e00765adbb5af85c60405160405180910390a3620000de336200010e60201b60201c565b620000ef336200016f60201b60201c565b6200010033620001d060201b60201c565b6001600681905550620004ca565b620001298160016200023160201b6200240d1790919060201c565b8073ffffffffffffffffffffffffffffffffffffffff167fddbf200aa634dc3fb81cfd68583dd1040d1c751d335e1d86b631bde3e977fea860405160405180910390a250565b6200018a8160026200023160201b6200240d1790919060201c565b8073ffffffffffffffffffffffffffffffffffffffff167f28b26e7a3d20aedbc5f8f2ebf7da671c0491723a2b78f47a097b0e46dee0714260405160405180910390a250565b620001eb8160036200023160201b6200240d1790919060201c565b8073ffffffffffffffffffffffffffffffffffffffff167f2977383b0207d39ef14220620b6cf3e6c9b6e78592af90baeef6614ed2fcd2c660405160405180910390a250565b620002438282620002e460201b60201c565b1562000286576040517f08c379a00000000000000000000000000000000000000000000000000000000081526004016200027d9062000410565b60405180910390fd5b60018260000160008373ffffffffffffffffffffffffffffffffffffffff1673ffffffffffffffffffffffffffffffffffffffff16815260200190815260200160002060006101000a81548160ff0219169083151502179055505050565b60008073ffffffffffffffffffffffffffffffffffffffff168273ffffffffffffffffffffffffffffffffffffffff16141562000358576040517f08c379a00000000000000000000000000000000000000000000000000000000081526004016200034f90620004a8565b60405180910390fd5b8260000160008373ffffffffffffffffffffffffffffffffffffffff1673ffffffffffffffffffffffffffffffffffffffff16815260200190815260200160002060009054906101000a900460ff16905092915050565b600082825260208201905092915050565b7f526f6c65733a206163636f756e7420616c72656164792068617320726f6c6500600082015250565b6000620003f8601f83620003af565b91506200040582620003c0565b602082019050919050565b600060208201905081810360008301526200042b81620003e9565b9050919050565b7f526f6c65733a206163636f756e7420697320746865207a65726f20616464726560008201527f7373000000000000000000000000000000000000000000000000000000000000602082015250565b600062000490602283620003af565b91506200049d8262000432565b604082019050919050565b60006020820190508181036000830152620004c38162000481565b9050919050565b613eeb80620004da6000396000f3fe608060405234801561001057600080fd5b50600436106101c45760003560e01c80638f32d59b116100f9578063eafd4bbd11610097578063f552102211610071578063f5521022146104de578063f92f030d1461050e578063f9b867d81461052c578063fe290ccb14610536576101c4565b8063eafd4bbd1461045a578063f26518ed1461048d578063f2fde38b146104c2576101c4565b8063c897d5a6116100d3578063c897d5a6146103cc578063d85fcb29146103ea578063ddf8016614610422578063dec3ca361461043e576101c4565b80638f32d59b14610376578063988c7717146103945780639e432ed5146103b0576101c4565b80636946b55c116101665780637250e224116101405780637250e224146102dc578063834ff739146102f85780638da5cb5b146103285780638f0c86fa14610346576101c4565b80636946b55c1461027f5780636e08cbac1461029b578063715018a6146102d2576101c4565b80633f0026c2116101a25780633f0026c214610231578063497a23b61461024d57806361e6982d1461026b578063644241db14610275576101c4565b806303b7c764146101c95780630f5e777b146101e5578063112940f914610215575b600080fd5b6101e360048036038101906101de9190612c7f565b610554565b005b6101ff60048036038101906101fa9190612cfe565b6106d7565b60405161020c9190612d6c565b60405180910390f35b61022f600480360381019061022a9190612db3565b61075f565b005b61024b60048036038101906102469190612de0565b61076b565b005b61025561091b565b604051610262919061302e565b60405180910390f35b610273610bc8565b005b61027d610bd3565b005b61029960048036038101906102949190612de0565b610bde565b005b6102b560048036038101906102b09190612cfe565b610cef565b6040516102c9989796959493929190613120565b60405180910390f35b6102da610efc565b005b6102f660048036038101906102f19190612db3565b610fcb565b005b610312600480360381019061030d9190612db3565b610fd7565b60405161031f91906131ce565b60405180910390f35b610330610ff4565b60405161033d9190612d6c565b60405180910390f35b610360600480360381019061035b9190612db3565b61101d565b60405161036d91906131ce565b60405180910390f35b61037e61103a565b60405161038b91906131ce565b60405180910390f35b6103ae60048036038101906103a991906131e9565b611091565b005b6103ca60048036038101906103c591906132b8565b6111a4565b005b6103d461154d565b6040516103e191906133b4565b60405180910390f35b61040460048036038101906103ff9190612cfe565b611553565b604051610419999897969594939291906133de565b60405180910390f35b61043c60048036038101906104379190612db3565b611773565b005b610458600480360381019061045391906134a5565b6117c7565b005b610474600480360381019061046f9190612cfe565b61196f565b6040516104849493929190613574565b60405180910390f35b6104a760048036038101906104a29190612cfe565b611af6565b6040516104b9969594939291906135c7565b60405180910390f35b6104dc60048036038101906104d79190612db3565b611d4f565b005b6104f860048036038101906104f39190612db3565b611d6c565b60405161050591906131ce565b60405180910390f35b610516611d89565b60405161052391906137e9565b60405180910390f35b6105346120d6565b005b61053e6120e1565b60405161054b919061399a565b60405180910390f35b61055d33610fd7565b61059c576040517f08c379a000000000000000000000000000000000000000000000000000000000815260040161059390613a2e565b60405180910390fd5b600060016009805490506105b09190613a7d565b9050806008600083815260200190815260200160002060000181905550336008600083815260200190815260200160002060010160006101000a81548173ffffffffffffffffffffffffffffffffffffffff021916908373ffffffffffffffffffffffffffffffffffffffff160217905550600e5460086000838152602001908152602001600020600201819055508160086000838152602001908152602001600020600301908051906020019061066992919061297c565b50600981908060018154018082558091505060019003906000526020600020016000909190919091505561069c816124b5565b7fffa896d8919f0556f53ace1395617969a3b53ab5271a085e28ac0c4a3724e63d816040516106cb91906133b4565b60405180910390a15050565b60006106e233611d6c565b610721576040517f08c379a000000000000000000000000000000000000000000000000000000000815260040161071890613b45565b60405180910390fd5b600a600083815260200190815260200160002060040160019054906101000a900473ffffffffffffffffffffffffffffffffffffffff169050919050565b610768816124fa565b50565b61077433610fd7565b6107b3576040517f08c379a00000000000000000000000000000000000000000000000000000000081526004016107aa90613a2e565b60405180910390fd5b60006001600b805490506107c79190613a7d565b905080600a60008381526020019081526020016000206000018190555082600a6000838152602001908152602001600020600201819055506001600a600083815260200190815260200160002060040160006101000a81548160ff02191690836004811115610839576108386130a9565b5b0217905550600b8190806001815401808255809150506001900390600052602060002001600090919091909150556108df8260016040518060400160405280600f81526020017f50726f64756374204f7264657265640000000000000000000000000000000000815250866040518060400160405280600881526020017f436f6e73756d65720000000000000000000000000000000000000000000000008152506117c7565b7f872a542432f777a3b4b905fd26f17613450da3996f2935ce1a06a2ac0948ea628160405161090e91906133b4565b60405180910390a1505050565b60606000600b8054905067ffffffffffffffff81111561093e5761093d612b54565b5b60405190808252806020026020018201604052801561097757816020015b610964612a02565b81526020019060019003908161095c5790505b50905060005b600b80549050811015610bc0576000600a600060018461099d9190613a7d565b815260200190815260200160002090506000600760006001856109c09190613a7d565b8152602001908152602001600020905081600101548484815181106109e8576109e7613b65565b5b60200260200101516000018181525050806001018054610a0790613bc3565b80601f0160208091040260200160405190810160405280929190818152602001828054610a3390613bc3565b8015610a805780601f10610a5557610100808354040283529160200191610a80565b820191906000526020600020905b815481529060010190602001808311610a6357829003601f168201915b5050505050848481518110610a9857610a97613b65565b5b602002602001015160400181905250806002018054610ab690613bc3565b80601f0160208091040260200160405190810160405280929190818152602001828054610ae290613bc3565b8015610b2f5780601f10610b0457610100808354040283529160200191610b2f565b820191906000526020600020905b815481529060010190602001808311610b1257829003601f168201915b5050505050848481518110610b4757610b46613b65565b5b6020026020010151606001819052508060040154848481518110610b6e57610b6d613b65565b5b602002602001015160200181815250506001848481518110610b9357610b92613b65565b5b60200260200101516080019060030b908160030b8152505050508080610bb890613bf5565b91505061097d565b508091505090565b610bd133612554565b565b610bdc336125ae565b565b610be73361101d565b610c26576040517f08c379a0000000000000000000000000000000000000000000000000000000008152600401610c1d90613cb0565b60405180910390fd5b7fd2f1cdd76b4e7bfba9c07af47c5c4f187ffbbd992b4fa1afce4df6a00a166e8582604051610c5591906133b4565b60405180910390a1610ceb8160016040518060400160405280601581526020017f44656c69766572656420746f20437573746f6d65720000000000000000000000815250600a6000878152602001908152602001600020600201546040518060400160405280600b81526020017f4469737472696275746f720000000000000000000000000000000000000000008152506117c7565b5050565b600c6020528060005260406000206000915090508060000154908060010154908060020160009054906101000a900473ffffffffffffffffffffffffffffffffffffffff1690806003018054610d4490613bc3565b80601f0160208091040260200160405190810160405280929190818152602001828054610d7090613bc3565b8015610dbd5780601f10610d9257610100808354040283529160200191610dbd565b820191906000526020600020905b815481529060010190602001808311610da057829003601f168201915b5050505050908060040154908060050160009054906101000a900460ff1690806006018054610deb90613bc3565b80601f0160208091040260200160405190810160405280929190818152602001828054610e1790613bc3565b8015610e645780601f10610e3957610100808354040283529160200191610e64565b820191906000526020600020905b815481529060010190602001808311610e4757829003601f168201915b505050505090806007018054610e7990613bc3565b80601f0160208091040260200160405190810160405280929190818152602001828054610ea590613bc3565b8015610ef25780601f10610ec757610100808354040283529160200191610ef2565b820191906000526020600020905b815481529060010190602001808311610ed557829003601f168201915b5050505050905088565b610f0461103a565b610f0d57600080fd5b600073ffffffffffffffffffffffffffffffffffffffff1660008054906101000a900473ffffffffffffffffffffffffffffffffffffffff1673ffffffffffffffffffffffffffffffffffffffff167f5c486528ec3e3f0ea91181cff8116f02bfa350e03b8b6f12e00765adbb5af85c60405160405180910390a360008060006101000a81548173ffffffffffffffffffffffffffffffffffffffff021916908373ffffffffffffffffffffffffffffffffffffffff160217905550565b610fd481612608565b50565b6000610fed82600261266290919063ffffffff16565b9050919050565b60008060009054906101000a900473ffffffffffffffffffffffffffffffffffffffff16905090565b600061103382600161266290919063ffffffff16565b9050919050565b60008060009054906101000a900473ffffffffffffffffffffffffffffffffffffffff1673ffffffffffffffffffffffffffffffffffffffff163373ffffffffffffffffffffffffffffffffffffffff1614905090565b61109a33611d6c565b6110d9576040517f08c379a00000000000000000000000000000000000000000000000000000000081526004016110d090613b45565b60405180910390fd5b81600a600085815260200190815260200160002060040160016101000a81548173ffffffffffffffffffffffffffffffffffffffff021916908373ffffffffffffffffffffffffffffffffffffffff16021790555061119f816001604051806060016040528060218152602001613e9560219139600a6000888152602001908152602001600020600201546040518060400160405280600f81526020017f50726f64756365722f4661726d657200000000000000000000000000000000008152506117c7565b505050565b6111ad33611d6c565b6111ec576040517f08c379a00000000000000000000000000000000000000000000000000000000081526004016111e390613b45565b60405180910390fd5b60405180610120016040528060065481526020018a8a8080601f016020809104026020016040519081016040528093929190818152602001838380828437600081840152601f19601f82011690508083019250505050505050815260200188888080601f016020809104026020016040519081016040528093929190818152602001838380828437600081840152601f19601f82011690508083019250505050505050815260200186868080601f016020809104026020016040519081016040528093929190818152602001838380828437600081840152601f19601f820116905080830192505050505050508152602001828152602001600160030b81526020013373ffffffffffffffffffffffffffffffffffffffff1681526020014281526020016000151581525060076000600654815260200190815260200160002060008201518160000155602082015181600101908051906020019061135292919061297c565b50604082015181600201908051906020019061136f92919061297c565b50606082015181600301908051906020019061138c92919061297c565b506080820151816004015560a08201518160050160006101000a81548163ffffffff021916908360030b63ffffffff16021790555060c08201518160050160046101000a81548173ffffffffffffffffffffffffffffffffffffffff021916908373ffffffffffffffffffffffffffffffffffffffff16021790555060e082015181600601556101008201518160070160006101000a81548160ff0219169083151502179055509050507f6fcd75c85744f5cca7f08ab44eac7bc7d9a892f9d67f3d038f9dc911cdeb531f60065460405161146791906133b4565b60405180910390a161152d83838080601f016020809104026020016040519081016040528093929190818152602001838380828437600081840152601f19601f8201169050808301925050505050505060006040518060400160405280600d81526020017f50726f64756374204164646564000000000000000000000000000000000000008152506006546040518060400160405280600f81526020017f50726f64756365722f4661726d657200000000000000000000000000000000008152506117c7565b600160065461153c9190613a7d565b600681905550505050505050505050565b60065481565b600760205280600052604060002060009150905080600001549080600101805461157c90613bc3565b80601f01602080910402602001604051908101604052809291908181526020018280546115a890613bc3565b80156115f55780601f106115ca576101008083540402835291602001916115f5565b820191906000526020600020905b8154815290600101906020018083116115d857829003601f168201915b50505050509080600201805461160a90613bc3565b80601f016020809104026020016040519081016040528092919081815260200182805461163690613bc3565b80156116835780601f1061165857610100808354040283529160200191611683565b820191906000526020600020905b81548152906001019060200180831161166657829003601f168201915b50505050509080600301805461169890613bc3565b80601f01602080910402602001604051908101604052809291908181526020018280546116c490613bc3565b80156117115780601f106116e657610100808354040283529160200191611711565b820191906000526020600020905b8154815290600101906020018083116116f457829003601f168201915b5050505050908060040154908060050160009054906101000a900460030b908060050160049054906101000a900473ffffffffffffffffffffffffffffffffffffffff16908060060154908060070160009054906101000a900460ff16905089565b61177c33611d6c565b6117bb576040517f08c379a00000000000000000000000000000000000000000000000000000000081526004016117b290613b45565b60405180910390fd5b6117c48161272a565b50565b6001600d546117d69190613a7d565b600c6000600d5481526020019081526020016000206000018190555033600c6000600d54815260200190815260200160002060020160006101000a81548173ffffffffffffffffffffffffffffffffffffffff021916908373ffffffffffffffffffffffffffffffffffffffff16021790555080600c6000600d548152602001908152602001600020600701908051906020019061187592919061297c565b5084600c6000600d54815260200190815260200160002060030190805190602001906118a292919061297c565b504263ffffffff16600c6000600d5481526020019081526020016000206004018190555083600c6000600d54815260200190815260200160002060050160006101000a81548160ff02191690836004811115611901576119006130a9565b5b021790555082600c6000600d548152602001908152602001600020600601908051906020019061193292919061297c565b5081600c6000600d54815260200190815260200160002060010181905550600d600081548092919061196390613bf5565b91905055505050505050565b6000806060806007600086815260200190815260200160002060000154600760008781526020019081526020016000206004015460076000888152602001908152602001600020600101600760008981526020019081526020016000206002018180546119db90613bc3565b80601f0160208091040260200160405190810160405280929190818152602001828054611a0790613bc3565b8015611a545780601f10611a2957610100808354040283529160200191611a54565b820191906000526020600020905b815481529060010190602001808311611a3757829003601f168201915b50505050509150808054611a6790613bc3565b80601f0160208091040260200160405190810160405280929190818152602001828054611a9390613bc3565b8015611ae05780601f10611ab557610100808354040283529160200191611ae0565b820191906000526020600020905b815481529060010190602001808311611ac357829003601f168201915b5050505050905093509350935093509193509193565b600080606080600080611b0833610fd7565b611b47576040517f08c379a0000000000000000000000000000000000000000000000000000000008152600401611b3e90613a2e565b60405180910390fd5b6000600a60008981526020019081526020016000206002015490506007600082815260200190815260200160002060040154600e54611b869190613a7d565b600e81905550600a60008981526020019081526020016000206002015460076000838152602001908152602001600020600401546007600084815260200190815260200160002060010160076000858152602001908152602001600020600201600a600086815260200190815260200160002060010154600a600087815260200190815260200160002060040160009054906101000a900460ff16838054611c2d90613bc3565b80601f0160208091040260200160405190810160405280929190818152602001828054611c5990613bc3565b8015611ca65780601f10611c7b57610100808354040283529160200191611ca6565b820191906000526020600020905b815481529060010190602001808311611c8957829003601f168201915b50505050509350828054611cb990613bc3565b80601f0160208091040260200160405190810160405280929190818152602001828054611ce590613bc3565b8015611d325780601f10611d0757610100808354040283529160200191611d32565b820191906000526020600020905b815481529060010190602001808311611d1557829003601f168201915b505050505092509650965096509650965096505091939550919395565b611d5761103a565b611d6057600080fd5b611d6981612784565b50565b6000611d8282600361266290919063ffffffff16565b9050919050565b606060006001600654611d9c9190613cd0565b67ffffffffffffffff811115611db557611db4612b54565b5b604051908082528060200260200182016040528015611dee57816020015b611ddb612a34565b815260200190600190039081611dd35790505b50905060005b6001600654611e039190613cd0565b8110156120ce57600060076000600184611e1d9190613a7d565b81526020019081526020016000209050806040518061012001604052908160008201548152602001600182018054611e5490613bc3565b80601f0160208091040260200160405190810160405280929190818152602001828054611e8090613bc3565b8015611ecd5780601f10611ea257610100808354040283529160200191611ecd565b820191906000526020600020905b815481529060010190602001808311611eb057829003601f168201915b50505050508152602001600282018054611ee690613bc3565b80601f0160208091040260200160405190810160405280929190818152602001828054611f1290613bc3565b8015611f5f5780601f10611f3457610100808354040283529160200191611f5f565b820191906000526020600020905b815481529060010190602001808311611f4257829003601f168201915b50505050508152602001600382018054611f7890613bc3565b80601f0160208091040260200160405190810160405280929190818152602001828054611fa490613bc3565b8015611ff15780601f10611fc657610100808354040283529160200191611ff1565b820191906000526020600020905b815481529060010190602001808311611fd457829003601f168201915b50505050508152602001600482015481526020016005820160009054906101000a900460030b60030b60030b81526020016005820160049054906101000a900473ffffffffffffffffffffffffffffffffffffffff1673ffffffffffffffffffffffffffffffffffffffff1673ffffffffffffffffffffffffffffffffffffffff168152602001600682015481526020016007820160009054906101000a900460ff1615151515815250508383815181106120af576120ae613b65565b5b60200260200101819052505080806120c690613bf5565b915050611df4565b508091505090565b6120df3361287b565b565b60606000600d5467ffffffffffffffff81111561210157612100612b54565b5b60405190808252806020026020018201604052801561213a57816020015b612127612a9b565b81526020019060019003908161211f5790505b50905060005b600d54811015612405576000600c60008381526020019081526020016000209050806040518061010001604052908160008201548152602001600182015481526020016002820160009054906101000a900473ffffffffffffffffffffffffffffffffffffffff1673ffffffffffffffffffffffffffffffffffffffff1673ffffffffffffffffffffffffffffffffffffffff1681526020016003820180546121e890613bc3565b80601f016020809104026020016040519081016040528092919081815260200182805461221490613bc3565b80156122615780601f1061223657610100808354040283529160200191612261565b820191906000526020600020905b81548152906001019060200180831161224457829003601f168201915b50505050508152602001600482015481526020016005820160009054906101000a900460ff166004811115612299576122986130a9565b5b60048111156122ab576122aa6130a9565b5b81526020016006820180546122bf90613bc3565b80601f01602080910402602001604051908101604052809291908181526020018280546122eb90613bc3565b80156123385780601f1061230d57610100808354040283529160200191612338565b820191906000526020600020905b81548152906001019060200180831161231b57829003601f168201915b5050505050815260200160078201805461235190613bc3565b80601f016020809104026020016040519081016040528092919081815260200182805461237d90613bc3565b80156123ca5780601f1061239f576101008083540402835291602001916123ca565b820191906000526020600020905b8154815290600101906020018083116123ad57829003601f168201915b5050505050815250508383815181106123e6576123e5613b65565b5b60200260200101819052505080806123fd90613bf5565b915050612140565b508091505090565b6124178282612662565b15612457576040517f08c379a000000000000000000000000000000000000000000000000000000000815260040161244e90613d50565b60405180910390fd5b60018260000160008373ffffffffffffffffffffffffffffffffffffffff1673ffffffffffffffffffffffffffffffffffffffff16815260200190815260200160002060006101000a81548160ff0219169083151502179055505050565b6000600190505b600b8054905081116124f65781600a60008381526020019081526020016000206001018190555080806124ee90613bf5565b9150506124bc565b5050565b61250e81600261240d90919063ffffffff16565b8073ffffffffffffffffffffffffffffffffffffffff167f28b26e7a3d20aedbc5f8f2ebf7da671c0491723a2b78f47a097b0e46dee0714260405160405180910390a250565b6125688160026128d590919063ffffffff16565b8073ffffffffffffffffffffffffffffffffffffffff167fe3f5ed5f263f1f01764a96edfc7d025f511ec5f7d180e8816908b78bcf74f09860405160405180910390a250565b6125c28160016128d590919063ffffffff16565b8073ffffffffffffffffffffffffffffffffffffffff167f126174f6cf49c81cdb4a9214c6b8f037bef55b4ec31e4fc776cea2a1c8a88d5960405160405180910390a250565b61261c81600161240d90919063ffffffff16565b8073ffffffffffffffffffffffffffffffffffffffff167fddbf200aa634dc3fb81cfd68583dd1040d1c751d335e1d86b631bde3e977fea860405160405180910390a250565b60008073ffffffffffffffffffffffffffffffffffffffff168273ffffffffffffffffffffffffffffffffffffffff1614156126d3576040517f08c379a00000000000000000000000000000000000000000000000000000000081526004016126ca90613de2565b60405180910390fd5b8260000160008373ffffffffffffffffffffffffffffffffffffffff1673ffffffffffffffffffffffffffffffffffffffff16815260200190815260200160002060009054906101000a900460ff16905092915050565b61273e81600361240d90919063ffffffff16565b8073ffffffffffffffffffffffffffffffffffffffff167f2977383b0207d39ef14220620b6cf3e6c9b6e78592af90baeef6614ed2fcd2c660405160405180910390a250565b600073ffffffffffffffffffffffffffffffffffffffff168173ffffffffffffffffffffffffffffffffffffffff1614156127be57600080fd5b8073ffffffffffffffffffffffffffffffffffffffff1660008054906101000a900473ffffffffffffffffffffffffffffffffffffffff1673ffffffffffffffffffffffffffffffffffffffff167f5c486528ec3e3f0ea91181cff8116f02bfa350e03b8b6f12e00765adbb5af85c60405160405180910390a3806000806101000a81548173ffffffffffffffffffffffffffffffffffffffff021916908373ffffffffffffffffffffffffffffffffffffffff16021790555050565b61288f8160036128d590919063ffffffff16565b8073ffffffffffffffffffffffffffffffffffffffff167fb78e9906c5bae930ccf756a5214c9855b1782f0eb30f9566de2384f034af48f360405160405180910390a250565b6128df8282612662565b61291e576040517f08c379a000000000000000000000000000000000000000000000000000000000815260040161291590613e74565b60405180910390fd5b60008260000160008373ffffffffffffffffffffffffffffffffffffffff1673ffffffffffffffffffffffffffffffffffffffff16815260200190815260200160002060006101000a81548160ff0219169083151502179055505050565b82805461298890613bc3565b90600052602060002090601f0160209004810192826129aa57600085556129f1565b82601f106129c357805160ff19168380011785556129f1565b828001600101855582156129f1579182015b828111156129f05782518255916020019190600101906129d5565b5b5090506129fe9190612b08565b5090565b6040518060a0016040528060008152602001600081526020016060815260200160608152602001600060030b81525090565b6040518061012001604052806000815260200160608152602001606081526020016060815260200160008152602001600060030b8152602001600073ffffffffffffffffffffffffffffffffffffffff168152602001600081526020016000151581525090565b6040518061010001604052806000815260200160008152602001600073ffffffffffffffffffffffffffffffffffffffff168152602001606081526020016000815260200160006004811115612af457612af36130a9565b5b815260200160608152602001606081525090565b5b80821115612b21576000816000905550600101612b09565b5090565b6000604051905090565b600080fd5b600080fd5b600080fd5b600080fd5b6000601f19601f8301169050919050565b7f4e487b7100000000000000000000000000000000000000000000000000000000600052604160045260246000fd5b612b8c82612b43565b810181811067ffffffffffffffff82111715612bab57612baa612b54565b5b80604052505050565b6000612bbe612b25565b9050612bca8282612b83565b919050565b600067ffffffffffffffff821115612bea57612be9612b54565b5b612bf382612b43565b9050602081019050919050565b82818337600083830152505050565b6000612c22612c1d84612bcf565b612bb4565b905082815260208101848484011115612c3e57612c3d612b3e565b5b612c49848285612c00565b509392505050565b600082601f830112612c6657612c65612b39565b5b8135612c76848260208601612c0f565b91505092915050565b600060208284031215612c9557612c94612b2f565b5b600082013567ffffffffffffffff811115612cb357612cb2612b34565b5b612cbf84828501612c51565b91505092915050565b6000819050919050565b612cdb81612cc8565b8114612ce657600080fd5b50565b600081359050612cf881612cd2565b92915050565b600060208284031215612d1457612d13612b2f565b5b6000612d2284828501612ce9565b91505092915050565b600073ffffffffffffffffffffffffffffffffffffffff82169050919050565b6000612d5682612d2b565b9050919050565b612d6681612d4b565b82525050565b6000602082019050612d816000830184612d5d565b92915050565b612d9081612d4b565b8114612d9b57600080fd5b50565b600081359050612dad81612d87565b92915050565b600060208284031215612dc957612dc8612b2f565b5b6000612dd784828501612d9e565b91505092915050565b60008060408385031215612df757612df6612b2f565b5b6000612e0585828601612ce9565b925050602083013567ffffffffffffffff811115612e2657612e25612b34565b5b612e3285828601612c51565b9150509250929050565b600081519050919050565b600082825260208201905092915050565b6000819050602082019050919050565b612e7181612cc8565b82525050565b600081519050919050565b600082825260208201905092915050565b60005b83811015612eb1578082015181840152602081019050612e96565b83811115612ec0576000848401525b50505050565b6000612ed182612e77565b612edb8185612e82565b9350612eeb818560208601612e93565b612ef481612b43565b840191505092915050565b60008160030b9050919050565b612f1581612eff565b82525050565b600060a083016000830151612f336000860182612e68565b506020830151612f466020860182612e68565b5060408301518482036040860152612f5e8282612ec6565b91505060608301518482036060860152612f788282612ec6565b9150506080830151612f8d6080860182612f0c565b508091505092915050565b6000612fa48383612f1b565b905092915050565b6000602082019050919050565b6000612fc482612e3c565b612fce8185612e47565b935083602082028501612fe085612e58565b8060005b8581101561301c5784840389528151612ffd8582612f98565b945061300883612fac565b925060208a01995050600181019050612fe4565b50829750879550505050505092915050565b600060208201905081810360008301526130488184612fb9565b905092915050565b61305981612cc8565b82525050565b600082825260208201905092915050565b600061307b82612e77565b613085818561305f565b9350613095818560208601612e93565b61309e81612b43565b840191505092915050565b7f4e487b7100000000000000000000000000000000000000000000000000000000600052602160045260246000fd5b600581106130e9576130e86130a9565b5b50565b60008190506130fa826130d8565b919050565b600061310a826130ec565b9050919050565b61311a816130ff565b82525050565b600061010082019050613136600083018b613050565b613143602083018a613050565b6131506040830189612d5d565b81810360608301526131628188613070565b90506131716080830187613050565b61317e60a0830186613111565b81810360c08301526131908185613070565b905081810360e08301526131a48184613070565b90509998505050505050505050565b60008115159050919050565b6131c8816131b3565b82525050565b60006020820190506131e360008301846131bf565b92915050565b60008060006060848603121561320257613201612b2f565b5b600061321086828701612ce9565b935050602061322186828701612d9e565b925050604084013567ffffffffffffffff81111561324257613241612b34565b5b61324e86828701612c51565b9150509250925092565b600080fd5b600080fd5b60008083601f84011261327857613277612b39565b5b8235905067ffffffffffffffff81111561329557613294613258565b5b6020830191508360018202830111156132b1576132b061325d565b5b9250929050565b600080600080600080600080600060a08a8c0312156132da576132d9612b2f565b5b60008a013567ffffffffffffffff8111156132f8576132f7612b34565b5b6133048c828d01613262565b995099505060208a013567ffffffffffffffff81111561332757613326612b34565b5b6133338c828d01613262565b975097505060408a013567ffffffffffffffff81111561335657613355612b34565b5b6133628c828d01613262565b955095505060608a013567ffffffffffffffff81111561338557613384612b34565b5b6133918c828d01613262565b935093505060806133a48c828d01612ce9565b9150509295985092959850929598565b60006020820190506133c96000830184613050565b92915050565b6133d881612eff565b82525050565b6000610120820190506133f4600083018c613050565b8181036020830152613406818b613070565b9050818103604083015261341a818a613070565b9050818103606083015261342e8189613070565b905061343d6080830188613050565b61344a60a08301876133cf565b61345760c0830186612d5d565b61346460e0830185613050565b6134726101008301846131bf565b9a9950505050505050505050565b6005811061348d57600080fd5b50565b60008135905061349f81613480565b92915050565b600080600080600060a086880312156134c1576134c0612b2f565b5b600086013567ffffffffffffffff8111156134df576134de612b34565b5b6134eb88828901612c51565b95505060206134fc88828901613490565b945050604086013567ffffffffffffffff81111561351d5761351c612b34565b5b61352988828901612c51565b935050606061353a88828901612ce9565b925050608086013567ffffffffffffffff81111561355b5761355a612b34565b5b61356788828901612c51565b9150509295509295909350565b60006080820190506135896000830187613050565b6135966020830186613050565b81810360408301526135a88185613070565b905081810360608301526135bc8184613070565b905095945050505050565b600060c0820190506135dc6000830189613050565b6135e96020830188613050565b81810360408301526135fb8187613070565b9050818103606083015261360f8186613070565b905061361e6080830185613050565b61362b60a0830184613111565b979650505050505050565b600081519050919050565b600082825260208201905092915050565b6000819050602082019050919050565b61366b81612d4b565b82525050565b61367a816131b3565b82525050565b6000610120830160008301516136996000860182612e68565b50602083015184820360208601526136b18282612ec6565b915050604083015184820360408601526136cb8282612ec6565b915050606083015184820360608601526136e58282612ec6565b91505060808301516136fa6080860182612e68565b5060a083015161370d60a0860182612f0c565b5060c083015161372060c0860182613662565b5060e083015161373360e0860182612e68565b50610100830151613748610100860182613671565b508091505092915050565b600061375f8383613680565b905092915050565b6000602082019050919050565b600061377f82613636565b6137898185613641565b93508360208202850161379b85613652565b8060005b858110156137d757848403895281516137b88582613753565b94506137c383613767565b925060208a0199505060018101905061379f565b50829750879550505050505092915050565b600060208201905081810360008301526138038184613774565b905092915050565b600081519050919050565b600082825260208201905092915050565b6000819050602082019050919050565b613840816130ff565b82525050565b60006101008301600083015161385f6000860182612e68565b5060208301516138726020860182612e68565b5060408301516138856040860182613662565b506060830151848203606086015261389d8282612ec6565b91505060808301516138b26080860182612e68565b5060a08301516138c560a0860182613837565b5060c083015184820360c08601526138dd8282612ec6565b91505060e083015184820360e08601526138f78282612ec6565b9150508091505092915050565b60006139108383613846565b905092915050565b6000602082019050919050565b60006139308261380b565b61393a8185613816565b93508360208202850161394c85613827565b8060005b8581101561398857848403895281516139698582613904565b945061397483613918565b925060208a01995050600181019050613950565b50829750879550505050505092915050565b600060208201905081810360008301526139b48184613925565b905092915050565b7f436f6e73756d6572526f6c653a2063616c6c657220646f6573206e6f7420686160008201527f76652074686520436f6e73756d657220726f6c65000000000000000000000000602082015250565b6000613a1860348361305f565b9150613a23826139bc565b604082019050919050565b60006020820190508181036000830152613a4781613a0b565b9050919050565b7f4e487b7100000000000000000000000000000000000000000000000000000000600052601160045260246000fd5b6000613a8882612cc8565b9150613a9383612cc8565b9250827fffffffffffffffffffffffffffffffffffffffffffffffffffffffffffffffff03821115613ac857613ac7613a4e565b5b828201905092915050565b7f50726f6475636572526f6c653a2063616c6c657220646f6573206e6f7420686160008201527f7665207468652050726f647563657220726f6c65000000000000000000000000602082015250565b6000613b2f60348361305f565b9150613b3a82613ad3565b604082019050919050565b60006020820190508181036000830152613b5e81613b22565b9050919050565b7f4e487b7100000000000000000000000000000000000000000000000000000000600052603260045260246000fd5b7f4e487b7100000000000000000000000000000000000000000000000000000000600052602260045260246000fd5b60006002820490506001821680613bdb57607f821691505b60208210811415613bef57613bee613b94565b5b50919050565b6000613c0082612cc8565b91507fffffffffffffffffffffffffffffffffffffffffffffffffffffffffffffffff821415613c3357613c32613a4e565b5b600182019050919050565b7f4469737472696275746f72526f6c653a2063616c6c657220646f6573206e6f7460008201527f206861766520746865204469737472696275746f7220726f6c65000000000000602082015250565b6000613c9a603a8361305f565b9150613ca582613c3e565b604082019050919050565b60006020820190508181036000830152613cc981613c8d565b9050919050565b6000613cdb82612cc8565b9150613ce683612cc8565b925082821015613cf957613cf8613a4e565b5b828203905092915050565b7f526f6c65733a206163636f756e7420616c72656164792068617320726f6c6500600082015250565b6000613d3a601f8361305f565b9150613d4582613d04565b602082019050919050565b60006020820190508181036000830152613d6981613d2d565b9050919050565b7f526f6c65733a206163636f756e7420697320746865207a65726f20616464726560008201527f7373000000000000000000000000000000000000000000000000000000000000602082015250565b6000613dcc60228361305f565b9150613dd782613d70565b604082019050919050565b60006020820190508181036000830152613dfb81613dbf565b9050919050565b7f526f6c65733a206163636f756e7420646f6573206e6f74206861766520726f6c60008201527f6500000000000000000000000000000000000000000000000000000000000000602082015250565b6000613e5e60218361305f565b9150613e6982613e02565b604082019050919050565b60006020820190508181036000830152613e8d81613e51565b905091905056fe41737369676e6564204469737472696275746f7220666f722044656c6976657279a264697066735822122079f1e9efa17dd008a9a14d633e38984ac465a11042ba3156d59b76ace3d35fbe64736f6c634300080c0033",
  "immutableReferences": {},
  "source": "// SPDX-License-Identifier: MIT\r\n\r\npragma solidity >=0.6.00;\r\n\r\n// Importing the necessary sol files\r\nimport \"../core/Ownable.sol\";\r\nimport \"../access/roles/ConsumerRole.sol\";\r\nimport \"../access/roles/DistributorRole.sol\";\r\nimport \"../access/roles/ProducerRole.sol\";\r\n\r\n// Define a contract 'Supplychain'\r\ncontract SupplyChain is\r\n    Ownable,\r\n    DistributorRole,\r\n    ConsumerRole,\r\n    ProducerRole\r\n{\r\n    enum OrderState {\r\n        Ordered,\r\n        PaymentCompleted,\r\n        Completed\r\n    }\r\n\r\n    enum OrderItemState {\r\n        Produced,\r\n        Ordered,\r\n        CustomerDeliveryConfirmed,\r\n        Delivered,\r\n        DistributorAdded\r\n    }\r\n\r\n    struct Order {\r\n        uint orderId;\r\n        address orderedBy; // consumer metamask address \r\n        uint totalAmount;\r\n        string location; // order placed location\r\n    }\r\n\r\n    struct OrderItem {\r\n        uint orderItemId;\r\n        uint orderId;\r\n        uint productId;\r\n        uint price;\r\n        OrderItemState itemState;\r\n        address distributor;   // distributor address \r\n        address dispatcher; // dispatcher address\r\n        string location;\r\n    }\r\n\r\n    struct Product {\r\n        uint productId;\r\n        string productName;\r\n        string productDesc;\r\n        string producerName;\r\n        uint price; \r\n        int32 quantity;\r\n        address createdBy;   // producer address\r\n        uint createdDate;\r\n        bool isDeleted;\r\n    }\r\n\r\n    struct ActivityLog {\r\n        uint activityId;\r\n        uint productId;\r\n        address createdBy; \r\n        string location;\r\n        uint256 createdDateTime;\r\n        OrderItemState currentState; \r\n        string stateInString;\r\n        string createdByName;\r\n    }\r\n\r\n    struct TempOrderDetail {\r\n        uint orderId;\r\n        uint price;\r\n        string productDesc;\r\n        string producerName;\r\n        int32 quantity;\r\n    }\r\n\r\n    // orderId -> Order\r\n    mapping(uint => TempOrderDetail) tempMapping;\r\n    uint[] tempIndexer;\r\n\r\n    // Define a variable called productIndex\r\n    uint256 public productIndex;\r\n\r\n    // productId -> product\r\n     mapping(uint256 => Product) public productMapping;\r\n\r\n    // orderId -> Order\r\n    mapping(uint => Order) orderMapping;\r\n    uint[] orderIndexer;\r\n\r\n    // orderItemId -> order item\r\n    mapping(uint => OrderItem) cartMapping;\r\n    uint[] cartIndexer; // cart indexer\r\n\r\n    // activityId -> activity log\r\n    mapping(uint => ActivityLog) public activityLog;\r\n    uint logIndexer; // cart indexer\r\n\r\n    // totalamount\r\n    uint totalAmount;\r\n   \r\n    // Define events of Oreder item\r\n    event ItemProduced(uint productId);\r\n    event ItemAddedInCart(uint productId);\r\n    event ItemDispatched(uint productId);\r\n    event ItemDelivered(uint productId);\r\n    event ItemDeliveredCustomerConfirmation(uint productId);\r\n\r\n    // Define events for order\r\n    event OrderPlaced(uint orderId);\r\n    event OrderComplete(uint orderId);\r\n\r\n    constructor() public {\r\n        productIndex = 1;\r\n    }\r\n\r\n    // adds a product in the list.\r\n    function addProducts(string calldata product_Name, string calldata product_Desc, string calldata producer_Name, string calldata _location, uint price) public onlyProducer\r\n    {\r\n        productMapping[productIndex] = Product (productIndex, product_Name, product_Desc, producer_Name, price,\r\n        1, msg.sender, block.timestamp, false);\r\n \r\n        emit ItemProduced(productIndex);\r\n\r\n        addLog(_location, OrderItemState.Produced, \"Product Added\", productIndex, \"Producer/Farmer\");\r\n\r\n        productIndex = productIndex + 1;\r\n\r\n    }\r\n\r\n    // create a log\r\n    function addLog(string memory _location, OrderItemState _state, string memory _stateInString, uint _productId, string memory _createdByName) public {\r\n     \r\n        activityLog[logIndexer].activityId = logIndexer + 1;\r\n        activityLog[logIndexer].createdBy = msg.sender;\r\n        activityLog[logIndexer].createdByName = _createdByName;\r\n        activityLog[logIndexer].location = _location;\r\n        activityLog[logIndexer].createdDateTime = uint32(block.timestamp);\r\n        activityLog[logIndexer].currentState = _state;\r\n        activityLog[logIndexer].stateInString = _stateInString;\r\n        activityLog[logIndexer].productId = _productId;\r\n\r\n        logIndexer++;\r\n    }\r\n\r\n    //return logs\r\n    function getLogs() public view returns (ActivityLog[] memory){\r\n        \r\n        ActivityLog[] memory logs = new ActivityLog[](logIndexer);\r\n        \r\n        for (uint i = 0; i < logIndexer; i++) {\r\n            ActivityLog storage log = activityLog[i];\r\n            logs[i] = log;\r\n        }\r\n\r\n        return logs;\r\n    }\r\n\r\n    //return products\r\n    function getProuducts() public view returns (Product[] memory){\r\n        \r\n        Product[] memory products = new Product[](productIndex-1);\r\n        \r\n        for (uint i = 0; i < productIndex-1 ; i++) {\r\n            Product storage product = productMapping[i+1];\r\n            products[i] = product;\r\n        }\r\n\r\n        return products;\r\n    }\r\n\r\n    // fetches the product.\r\n    function viewProduct(uint productId) public view returns(uint, uint256, string memory, string memory)\r\n    {\r\n        return (productMapping[productId].productId,\r\n                productMapping[productId].price, \r\n                productMapping[productId].productName, \r\n                productMapping[productId].productDesc);\r\n    }\r\n\r\n    // adds item in the cart.\r\n    function addItemInCart(uint productId, string memory _location) public onlyConsumer\r\n    {\r\n        uint index = cartIndexer.length + 1;   // cartinde\r\n\r\n        cartMapping[index].orderItemId = index;\r\n        cartMapping[index].productId = productId;\r\n        cartMapping[index].itemState = OrderItemState.Ordered;\r\n        cartIndexer.push(index);\r\n\r\n        addLog(_location, OrderItemState.Ordered, \"Product Ordered\", productId, \"Consumer\");  // product added.\r\n\r\n        emit ItemAddedInCart(index);  // item added event.\r\n    }\r\n\r\n    // view cart item\r\n    function viewCartItems(uint cartIndex) public onlyConsumer returns(uint, uint, string memory, string memory, uint, OrderItemState)\r\n    {\r\n        uint itemIndex = cartMapping[cartIndex].productId;\r\n\r\n        totalAmount = totalAmount + productMapping[itemIndex].price;\r\n\r\n        return (cartMapping[cartIndex].productId,\r\n                productMapping[itemIndex].price,\r\n                productMapping[itemIndex].productName, \r\n                productMapping[itemIndex].productDesc,\r\n                cartMapping[itemIndex].orderId,\r\n                cartMapping[itemIndex].itemState);\r\n    }\r\n\r\n    // creates order\r\n    function createOrder(string memory _location) public onlyConsumer\r\n    {\r\n        uint orderIndex = orderIndexer.length + 1;\r\n        \r\n        orderMapping[orderIndex].orderId = orderIndex;\r\n        orderMapping[orderIndex].orderedBy = msg.sender;\r\n        orderMapping[orderIndex].totalAmount = totalAmount;  // total order amount;\r\n        orderMapping[orderIndex].location = _location;\r\n\r\n        orderIndexer.push(orderIndex); \r\n        \r\n        linkCartItems(orderIndex); // link cart items with order.\r\n\r\n        emit OrderPlaced(orderIndex);     // emit event order placed.      \r\n    }\r\n\r\n    // add orderid to cartItems\r\n    function linkCartItems(uint _orderId) private\r\n    {\r\n        for (uint i = 1; i <= cartIndexer.length; i++) {\r\n            cartMapping[i].orderId = _orderId;\r\n        }\r\n    }\r\n\r\n    // add distributor \r\n    function addDistributorToOrderItem(uint _orderItem, address _distributor, string memory _location) public onlyProducer \r\n    {\r\n        cartMapping[_orderItem].distributor = _distributor;\r\n        addLog(_location, OrderItemState.Ordered, \"Assigned Distributor for Delivery\", cartMapping[_orderItem].productId, \"Producer/Farmer\");  // distributor added.\r\n    }\r\n\r\n    // view distributor\r\n    function viewDistributor(uint _orderItem) public view onlyProducer returns (address)\r\n    {\r\n        return (cartMapping[_orderItem].distributor);\r\n    }\r\n\r\n    // item delivered distributor confirmation\r\n    function orderDelivered(uint _orderItem, string memory _location) public onlyDistributor \r\n    {\r\n        // if(cartMapping[_orderItem].itemState == OrderItemState.CustomerDeliveryConfirmed)\r\n        //     cartMapping[_orderItem].itemState = OrderItemState.Delivered;\r\n        \r\n        emit ItemDelivered(_orderItem);\r\n        addLog(_location, OrderItemState.Ordered, \"Delivered to Customer\", cartMapping[_orderItem].productId, \"Distributor\");  // delivered.\r\n\r\n    }\r\n\r\n    // item delivery customer confirmation\r\n    // function customerConfirmation(uint _orderItem, string memory _location) public onlyConsumer \r\n    // {\r\n    //     cartMapping[_orderItem].itemState = OrderItemState.CustomerDeliveryConfirmed;\r\n\r\n    //     emit ItemDeliveredCustomerConfirmation(_orderItem);\r\n    //     addLog(_location, OrderItemState.CustomerDeliveryConfirmed, \"Customer Confirmation\", cartMapping[_orderItem].productId); // customer confirmation.\r\n    // }\r\n\r\n    // fetches order details\r\n    function viewOrder() public view returns(TempOrderDetail[] memory)\r\n    {\r\n        TempOrderDetail[] memory tempItems = new TempOrderDetail[](cartIndexer.length);\r\n\r\n        for (uint i = 0; i < cartIndexer.length ; i++) {\r\n            \r\n            OrderItem storage item = cartMapping[i+1];\r\n            Product storage product = productMapping[i+1];\r\n\r\n            tempItems[i].orderId = item.orderId;\r\n            tempItems[i].productDesc = product.productName;\r\n            tempItems[i].producerName = product.productDesc;\r\n            tempItems[i].price = product.price;\r\n            tempItems[i].quantity = 1;\r\n\r\n        }\r\n\r\n        return tempItems;\r\n    }\r\n\r\n}\r\n\r\n",
  "sourcePath": "C:\\Blockchain_POC\\smart-contracts\\contracts\\base\\SupplyChain.sol",
  "compiler": {
    "name": "solc",
    "version": "0.8.12+commit.f00d7308.Emscripten.clang"
  },
  "schemaVersion": "3.4.6",
  "updatedAt": "2022-04-27T07:19:20.288Z",
  "networkType": "ethereum",
  "devdoc": {
    "kind": "dev",
    "methods": {},
    "version": 1
  },
  "userdoc": {
    "kind": "user",
    "methods": {
      "isOwner()": {
        "notice": "Check if the calling address is the owner of the contract"
      },
      "owner()": {
        "notice": "Look up the address of the owner"
      },
      "renounceOwnership()": {
        "notice": "Define a function to renounce ownerhip"
      },
      "transferOwnership(address)": {
        "notice": "Define a public function to transfer ownership"
      }
    },
    "version": 1
  }
}