{
  "contractName": "SupplyChain",
  "abi": [
    {
      "inputs": [],
      "stateMutability": "payable",
      "type": "constructor",
      "payable": true
    },
    {
      "anonymous": false,
      "inputs": [
        {
          "indexed": true,
          "internalType": "address",
          "name": "account",
          "type": "address"
        }
      ],
      "name": "ConsumerAdded",
      "type": "event"
    },
    {
      "anonymous": false,
      "inputs": [
        {
          "indexed": true,
          "internalType": "address",
          "name": "account",
          "type": "address"
        }
      ],
      "name": "ConsumerRemoved",
      "type": "event"
    },
    {
      "anonymous": false,
      "inputs": [
        {
          "indexed": true,
          "internalType": "address",
          "name": "account",
          "type": "address"
        }
      ],
      "name": "DistributorAdded",
      "type": "event"
    },
    {
      "anonymous": false,
      "inputs": [
        {
          "indexed": true,
          "internalType": "address",
          "name": "account",
          "type": "address"
        }
      ],
      "name": "DistributorRemoved",
      "type": "event"
    },
    {
      "anonymous": false,
      "inputs": [
        {
          "indexed": true,
          "internalType": "address",
          "name": "account",
          "type": "address"
        }
      ],
      "name": "FarmerAdded",
      "type": "event"
    },
    {
      "anonymous": false,
      "inputs": [
        {
          "indexed": true,
          "internalType": "address",
          "name": "account",
          "type": "address"
        }
      ],
      "name": "FarmerRemoved",
      "type": "event"
    },
    {
      "anonymous": false,
      "inputs": [
        {
          "indexed": false,
          "internalType": "uint256",
          "name": "grapeUpc",
          "type": "uint256"
        }
      ],
      "name": "GrapeAudited",
      "type": "event"
    },
    {
      "anonymous": false,
      "inputs": [
        {
          "indexed": false,
          "internalType": "uint256",
          "name": "grapeUpc",
          "type": "uint256"
        }
      ],
      "name": "GrapeHarvested",
      "type": "event"
    },
    {
      "anonymous": false,
      "inputs": [
        {
          "indexed": false,
          "internalType": "uint256",
          "name": "grapeUpc",
          "type": "uint256"
        }
      ],
      "name": "GrapePlanted",
      "type": "event"
    },
    {
      "anonymous": false,
      "inputs": [
        {
          "indexed": false,
          "internalType": "uint256",
          "name": "grapeUpc",
          "type": "uint256"
        }
      ],
      "name": "GrapeProcessed",
      "type": "event"
    },
    {
      "anonymous": false,
      "inputs": [
        {
          "indexed": true,
          "internalType": "address",
          "name": "account",
          "type": "address"
        }
      ],
      "name": "InspectorAdded",
      "type": "event"
    },
    {
      "anonymous": false,
      "inputs": [
        {
          "indexed": true,
          "internalType": "address",
          "name": "account",
          "type": "address"
        }
      ],
      "name": "InspectorRemoved",
      "type": "event"
    },
    {
      "anonymous": false,
      "inputs": [
        {
          "indexed": false,
          "internalType": "uint256",
          "name": "juiceUpc",
          "type": "uint256"
        },
        {
          "indexed": false,
          "internalType": "uint256",
          "name": "grapeUpc",
          "type": "uint256"
        }
      ],
      "name": "JuiceBlended",
      "type": "event"
    },
    {
      "anonymous": false,
      "inputs": [
        {
          "indexed": false,
          "internalType": "uint256",
          "name": "juiceUpc",
          "type": "uint256"
        }
      ],
      "name": "JuiceCertified",
      "type": "event"
    },
    {
      "anonymous": false,
      "inputs": [
        {
          "indexed": false,
          "internalType": "uint256",
          "name": "juiceUpc",
          "type": "uint256"
        }
      ],
      "name": "JuiceCreated",
      "type": "event"
    },
    {
      "anonymous": false,
      "inputs": [
        {
          "indexed": false,
          "internalType": "uint256",
          "name": "juiceUpc",
          "type": "uint256"
        }
      ],
      "name": "JuiceForSale",
      "type": "event"
    },
    {
      "anonymous": false,
      "inputs": [
        {
          "indexed": false,
          "internalType": "uint256",
          "name": "juiceUpc",
          "type": "uint256"
        }
      ],
      "name": "JuicePacked",
      "type": "event"
    },
    {
      "anonymous": false,
      "inputs": [
        {
          "indexed": false,
          "internalType": "uint256",
          "name": "juiceUpc",
          "type": "uint256"
        }
      ],
      "name": "JuiceProduced",
      "type": "event"
    },
    {
      "anonymous": false,
      "inputs": [
        {
          "indexed": false,
          "internalType": "uint256",
          "name": "juiceUpc",
          "type": "uint256"
        }
      ],
      "name": "JuicePurchased",
      "type": "event"
    },
    {
      "anonymous": false,
      "inputs": [
        {
          "indexed": true,
          "internalType": "address",
          "name": "account",
          "type": "address"
        }
      ],
      "name": "ProducerAdded",
      "type": "event"
    },
    {
      "anonymous": false,
      "inputs": [
        {
          "indexed": true,
          "internalType": "address",
          "name": "account",
          "type": "address"
        }
      ],
      "name": "ProducerRemoved",
      "type": "event"
    },
    {
      "anonymous": false,
      "inputs": [
        {
          "indexed": true,
          "internalType": "address",
          "name": "oldOwner",
          "type": "address"
        },
        {
          "indexed": true,
          "internalType": "address",
          "name": "newOwner",
          "type": "address"
        }
      ],
      "name": "TransferOwnership",
      "type": "event"
    },
    {
      "inputs": [
        {
          "internalType": "address",
          "name": "account",
          "type": "address"
        }
      ],
      "name": "addConsumer",
      "outputs": [],
      "stateMutability": "nonpayable",
      "type": "function"
    },
    {
      "inputs": [
        {
          "internalType": "address",
          "name": "account",
          "type": "address"
        }
      ],
      "name": "addDistributor",
      "outputs": [],
      "stateMutability": "nonpayable",
      "type": "function"
    },
    {
      "inputs": [
        {
          "internalType": "address",
          "name": "account",
          "type": "address"
        }
      ],
      "name": "addFarmer",
      "outputs": [],
      "stateMutability": "nonpayable",
      "type": "function"
    },
    {
      "inputs": [
        {
          "internalType": "address",
          "name": "account",
          "type": "address"
        }
      ],
      "name": "addInspector",
      "outputs": [],
      "stateMutability": "nonpayable",
      "type": "function"
    },
    {
      "inputs": [
        {
          "internalType": "address",
          "name": "account",
          "type": "address"
        }
      ],
      "name": "addProducer",
      "outputs": [],
      "stateMutability": "nonpayable",
      "type": "function"
    },
    {
      "inputs": [
        {
          "internalType": "address",
          "name": "account",
          "type": "address"
        }
      ],
      "name": "isConsumer",
      "outputs": [
        {
          "internalType": "bool",
          "name": "",
          "type": "bool"
        }
      ],
      "stateMutability": "view",
      "type": "function",
      "constant": true
    },
    {
      "inputs": [
        {
          "internalType": "address",
          "name": "account",
          "type": "address"
        }
      ],
      "name": "isDistributor",
      "outputs": [
        {
          "internalType": "bool",
          "name": "",
          "type": "bool"
        }
      ],
      "stateMutability": "view",
      "type": "function",
      "constant": true
    },
    {
      "inputs": [
        {
          "internalType": "address",
          "name": "account",
          "type": "address"
        }
      ],
      "name": "isFarmer",
      "outputs": [
        {
          "internalType": "bool",
          "name": "",
          "type": "bool"
        }
      ],
      "stateMutability": "view",
      "type": "function",
      "constant": true
    },
    {
      "inputs": [
        {
          "internalType": "address",
          "name": "account",
          "type": "address"
        }
      ],
      "name": "isInspector",
      "outputs": [
        {
          "internalType": "bool",
          "name": "",
          "type": "bool"
        }
      ],
      "stateMutability": "view",
      "type": "function",
      "constant": true
    },
    {
      "inputs": [],
      "name": "isOwner",
      "outputs": [
        {
          "internalType": "bool",
          "name": "",
          "type": "bool"
        }
      ],
      "stateMutability": "view",
      "type": "function",
      "constant": true
    },
    {
      "inputs": [
        {
          "internalType": "address",
          "name": "account",
          "type": "address"
        }
      ],
      "name": "isProducer",
      "outputs": [
        {
          "internalType": "bool",
          "name": "",
          "type": "bool"
        }
      ],
      "stateMutability": "view",
      "type": "function",
      "constant": true
    },
    {
      "inputs": [],
      "name": "owner",
      "outputs": [
        {
          "internalType": "address",
          "name": "",
          "type": "address"
        }
      ],
      "stateMutability": "view",
      "type": "function",
      "constant": true
    },
    {
      "inputs": [],
      "name": "renounceConsumer",
      "outputs": [],
      "stateMutability": "nonpayable",
      "type": "function"
    },
    {
      "inputs": [],
      "name": "renounceDistributor",
      "outputs": [],
      "stateMutability": "nonpayable",
      "type": "function"
    },
    {
      "inputs": [],
      "name": "renounceFarmer",
      "outputs": [],
      "stateMutability": "nonpayable",
      "type": "function"
    },
    {
      "inputs": [],
      "name": "renounceInspector",
      "outputs": [],
      "stateMutability": "nonpayable",
      "type": "function"
    },
    {
      "inputs": [],
      "name": "renounceOwnership",
      "outputs": [],
      "stateMutability": "nonpayable",
      "type": "function"
    },
    {
      "inputs": [],
      "name": "renounceProducer",
      "outputs": [],
      "stateMutability": "nonpayable",
      "type": "function"
    },
    {
      "inputs": [
        {
          "internalType": "address",
          "name": "newOwner",
          "type": "address"
        }
      ],
      "name": "transferOwnership",
      "outputs": [],
      "stateMutability": "nonpayable",
      "type": "function"
    },
    {
      "inputs": [],
      "name": "kill",
      "outputs": [],
      "stateMutability": "nonpayable",
      "type": "function"
    },
    {
      "inputs": [
        {
          "internalType": "uint256",
          "name": "_grapeUpc",
          "type": "uint256"
        },
        {
          "internalType": "address",
          "name": "_originFarmerID",
          "type": "address"
        },
        {
          "internalType": "string",
          "name": "_originFarmName",
          "type": "string"
        },
        {
          "internalType": "string",
          "name": "_originFarmInformation",
          "type": "string"
        },
        {
          "internalType": "string",
          "name": "_originFarmLatitude",
          "type": "string"
        },
        {
          "internalType": "string",
          "name": "_originFarmLongitude",
          "type": "string"
        }
      ],
      "name": "grapePlantItem",
      "outputs": [],
      "stateMutability": "nonpayable",
      "type": "function"
    },
    {
      "inputs": [
        {
          "internalType": "uint256",
          "name": "_grapeUpc",
          "type": "uint256"
        },
        {
          "internalType": "string",
          "name": "_harvestNotes",
          "type": "string"
        }
      ],
      "name": "grapeHarvestItem",
      "outputs": [],
      "stateMutability": "nonpayable",
      "type": "function"
    },
    {
      "inputs": [
        {
          "internalType": "uint256",
          "name": "_grapeUpc",
          "type": "uint256"
        },
        {
          "internalType": "string",
          "name": "_auditNotes",
          "type": "string"
        }
      ],
      "name": "grapeAuditItem",
      "outputs": [],
      "stateMutability": "nonpayable",
      "type": "function"
    },
    {
      "inputs": [
        {
          "internalType": "uint256",
          "name": "_grapeUpc",
          "type": "uint256"
        }
      ],
      "name": "grapeProcessItem",
      "outputs": [],
      "stateMutability": "nonpayable",
      "type": "function"
    },
    {
      "inputs": [
        {
          "internalType": "uint256",
          "name": "_grapeUpc",
          "type": "uint256"
        },
        {
          "internalType": "uint256",
          "name": "_productID",
          "type": "uint256"
        }
      ],
      "name": "juiceCreateItem",
      "outputs": [],
      "stateMutability": "nonpayable",
      "type": "function"
    },
    {
      "inputs": [
        {
          "internalType": "uint256",
          "name": "_juiceUpc",
          "type": "uint256"
        },
        {
          "internalType": "uint256",
          "name": "_grapeUpc",
          "type": "uint256"
        }
      ],
      "name": "juiceBlendItem",
      "outputs": [],
      "stateMutability": "nonpayable",
      "type": "function"
    },
    {
      "inputs": [
        {
          "internalType": "uint256",
          "name": "_juiceUpc",
          "type": "uint256"
        },
        {
          "internalType": "string",
          "name": "_productNotes",
          "type": "string"
        },
        {
          "internalType": "uint256",
          "name": "_productPrice",
          "type": "uint256"
        }
      ],
      "name": "juiceProduceItem",
      "outputs": [],
      "stateMutability": "nonpayable",
      "type": "function"
    },
    {
      "inputs": [
        {
          "internalType": "uint256",
          "name": "_juiceUpc",
          "type": "uint256"
        },
        {
          "internalType": "string",
          "name": "_certifyNotes",
          "type": "string"
        }
      ],
      "name": "juiceCertifyItem",
      "outputs": [],
      "stateMutability": "nonpayable",
      "type": "function"
    },
    {
      "inputs": [
        {
          "internalType": "uint256",
          "name": "_juiceUpc",
          "type": "uint256"
        }
      ],
      "name": "juicePackItem",
      "outputs": [],
      "stateMutability": "nonpayable",
      "type": "function"
    },
    {
      "inputs": [
        {
          "internalType": "uint256",
          "name": "_juiceUpc",
          "type": "uint256"
        }
      ],
      "name": "juiceSellItem",
      "outputs": [],
      "stateMutability": "nonpayable",
      "type": "function"
    },
    {
      "inputs": [
        {
          "internalType": "uint256",
          "name": "_juiceUpc",
          "type": "uint256"
        }
      ],
      "name": "juiceBuyItem",
      "outputs": [],
      "stateMutability": "payable",
      "type": "function",
      "payable": true
    },
    {
      "inputs": [
        {
          "internalType": "uint256",
          "name": "_juiceUpc",
          "type": "uint256"
        }
      ],
      "name": "fetchJuiceItemBufferOne",
      "outputs": [
        {
          "internalType": "uint256",
          "name": "sku",
          "type": "uint256"
        },
        {
          "internalType": "uint256",
          "name": "upc",
          "type": "uint256"
        },
        {
          "internalType": "address",
          "name": "ownerID",
          "type": "address"
        },
        {
          "internalType": "uint256",
          "name": "productID",
          "type": "uint256"
        },
        {
          "internalType": "string",
          "name": "productNotes",
          "type": "string"
        },
        {
          "internalType": "uint256",
          "name": "productPrice",
          "type": "uint256"
        },
        {
          "internalType": "address",
          "name": "producerID",
          "type": "address"
        },
        {
          "internalType": "address",
          "name": "distributorID",
          "type": "address"
        },
        {
          "internalType": "address",
          "name": "consumerID",
          "type": "address"
        },
        {
          "internalType": "string",
          "name": "certifyNotes",
          "type": "string"
        },
        {
          "internalType": "uint256[]",
          "name": "grapes",
          "type": "uint256[]"
        },
        {
          "internalType": "uint256",
          "name": "itemState",
          "type": "uint256"
        }
      ],
      "stateMutability": "view",
      "type": "function",
      "constant": true
    },
    {
      "inputs": [
        {
          "internalType": "uint256",
          "name": "_grapeUpc",
          "type": "uint256"
        }
      ],
      "name": "fetchGrapeItemBufferOne",
      "outputs": [
        {
          "internalType": "uint256",
          "name": "sku",
          "type": "uint256"
        },
        {
          "internalType": "uint256",
          "name": "upc",
          "type": "uint256"
        },
        {
          "internalType": "address",
          "name": "ownerID",
          "type": "address"
        },
        {
          "internalType": "address",
          "name": "originFarmerID",
          "type": "address"
        },
        {
          "internalType": "string",
          "name": "originFarmName",
          "type": "string"
        },
        {
          "internalType": "string",
          "name": "originFarmInformation",
          "type": "string"
        },
        {
          "internalType": "string",
          "name": "originFarmLatitude",
          "type": "string"
        },
        {
          "internalType": "string",
          "name": "originFarmLongitude",
          "type": "string"
        }
      ],
      "stateMutability": "view",
      "type": "function",
      "constant": true
    },
    {
      "inputs": [
        {
          "internalType": "uint256",
          "name": "_grapeUpc",
          "type": "uint256"
        }
      ],
      "name": "fetchGrapeItemBufferTwo",
      "outputs": [
        {
          "internalType": "string",
          "name": "harvestNotes",
          "type": "string"
        },
        {
          "internalType": "string",
          "name": "auditNotes",
          "type": "string"
        },
        {
          "internalType": "uint256",
          "name": "itemState",
          "type": "uint256"
        }
      ],
      "stateMutability": "view",
      "type": "function",
      "constant": true
    }
  ],
  "bytecode": "0x6080604052336000806101000a81548173ffffffffffffffffffffffffffffffffffffffff021916908373ffffffffffffffffffffffffffffffffffffffff16021790555060008054906101000a900473ffffffffffffffffffffffffffffffffffffffff1673ffffffffffffffffffffffffffffffffffffffff16600073ffffffffffffffffffffffffffffffffffffffff167f5c486528ec3e3f0ea91181cff8116f02bfa350e03b8b6f12e00765adbb5af85c60405160405180910390a3620000d0336200012260201b60201c565b620000e1336200018360201b60201c565b620000f233620001e460201b60201c565b62000103336200024560201b60201c565b6200011433620002a660201b60201c565b6001600681905550620005a0565b6200013d8160016200030760201b6200293d1790919060201c565b8073ffffffffffffffffffffffffffffffffffffffff167f2e0ded4123377a3c2bc9a26f1717655a129e2f20752924d42e730ec89c83dbd060405160405180910390a250565b6200019e8160026200030760201b6200293d1790919060201c565b8073ffffffffffffffffffffffffffffffffffffffff167f9ca2a3611f65b351a79d20d5314a16e37fe9b947d2a36232e101bd615994450360405160405180910390a250565b620001ff8160036200030760201b6200293d1790919060201c565b8073ffffffffffffffffffffffffffffffffffffffff167fddbf200aa634dc3fb81cfd68583dd1040d1c751d335e1d86b631bde3e977fea860405160405180910390a250565b620002608160046200030760201b6200293d1790919060201c565b8073ffffffffffffffffffffffffffffffffffffffff167f28b26e7a3d20aedbc5f8f2ebf7da671c0491723a2b78f47a097b0e46dee0714260405160405180910390a250565b620002c18160056200030760201b6200293d1790919060201c565b8073ffffffffffffffffffffffffffffffffffffffff167f2977383b0207d39ef14220620b6cf3e6c9b6e78592af90baeef6614ed2fcd2c660405160405180910390a250565b620003198282620003ba60201b60201c565b156200035c576040517f08c379a00000000000000000000000000000000000000000000000000000000081526004016200035390620004e6565b60405180910390fd5b60018260000160008373ffffffffffffffffffffffffffffffffffffffff1673ffffffffffffffffffffffffffffffffffffffff16815260200190815260200160002060006101000a81548160ff0219169083151502179055505050565b60008073ffffffffffffffffffffffffffffffffffffffff168273ffffffffffffffffffffffffffffffffffffffff1614156200042e576040517f08c379a000000000000000000000000000000000000000000000000000000000815260040162000425906200057e565b60405180910390fd5b8260000160008373ffffffffffffffffffffffffffffffffffffffff1673ffffffffffffffffffffffffffffffffffffffff16815260200190815260200160002060009054906101000a900460ff16905092915050565b600082825260208201905092915050565b7f526f6c65733a206163636f756e7420616c72656164792068617320726f6c6500600082015250565b6000620004ce601f8362000485565b9150620004db8262000496565b602082019050919050565b600060208201905081810360008301526200050181620004bf565b9050919050565b7f526f6c65733a206163636f756e7420697320746865207a65726f20616464726560008201527f7373000000000000000000000000000000000000000000000000000000000000602082015250565b60006200056660228362000485565b9150620005738262000508565b604082019050919050565b60006020820190508181036000830152620005998162000557565b9050919050565b6141cc80620005b06000396000f3fe6080604052600436106101f95760003560e01c80638da5cb5b1161010d578063d2454909116100a0578063ebf1b58e1161006f578063ebf1b58e146106ce578063f2fde38b146106f7578063f3d1164814610720578063f552102214610749578063f9b867d814610786576101f9565b8063d245490914610614578063dd2ad5ef1461063d578063ddf8016614610666578063de99fdda1461068f576101f9565b8063a628e20b116100dc578063a628e20b14610541578063b2e8b95014610585578063b9429069146105ae578063c5f58a9f146105eb576101f9565b80638da5cb5b146104665780638f0c86fa146104915780638f32d59b146104ce578063997109dc146104f9576101f9565b8063644241db116101905780637250e2241161015f5780637250e224146103975780637e458492146103c057806380c3f96d146103e957806380fc0ce414610412578063834ff73914610429576101f9565b8063644241db14610317578063669282291461032e5780636c5882e414610357578063715018a614610380576101f9565b80633a4f0b12116101cc5780633a4f0b12146102a45780633d423307146102c057806341c0e1b5146102e957806361e6982d14610300576101f9565b80630b20dbbe146101fe5780630c2f237814610215578063112940f91461023e5780632cdad41c14610267575b600080fd5b34801561020a57600080fd5b5061021361079d565b005b34801561022157600080fd5b5061023c60048036038101906102379190613117565b6107a8565b005b34801561024a57600080fd5b50610265600480360381019061026091906131d5565b610972565b005b34801561027357600080fd5b5061028e600480360381019061028991906131d5565b6109c6565b60405161029b919061321d565b60405180910390f35b6102be60048036038101906102b99190613238565b6109e3565b005b3480156102cc57600080fd5b506102e760048036038101906102e29190613265565b610d7a565b005b3480156102f557600080fd5b506102fe610f73565b005b34801561030c57600080fd5b50610315610fa4565b005b34801561032357600080fd5b5061032c610faf565b005b34801561033a57600080fd5b5061035560048036038101906103509190613117565b610fba565b005b34801561036357600080fd5b5061037e600480360381019061037991906132a5565b61112f565b005b34801561038c57600080fd5b50610395611388565b005b3480156103a357600080fd5b506103be60048036038101906103b991906131d5565b611457565b005b3480156103cc57600080fd5b506103e760048036038101906103e291906131d5565b6114ab565b005b3480156103f557600080fd5b50610410600480360381019061040b91906131d5565b6114ff565b005b34801561041e57600080fd5b50610427611553565b005b34801561043557600080fd5b50610450600480360381019061044b91906131d5565b61155e565b60405161045d919061321d565b60405180910390f35b34801561047257600080fd5b5061047b61157b565b60405161048891906133c4565b60405180910390f35b34801561049d57600080fd5b506104b860048036038101906104b391906131d5565b6115a4565b6040516104c5919061321d565b60405180910390f35b3480156104da57600080fd5b506104e36115c1565b6040516104f0919061321d565b60405180910390f35b34801561050557600080fd5b50610520600480360381019061051b9190613238565b611618565b6040516105389c9b9a99989796959493929190613545565b60405180910390f35b34801561054d57600080fd5b5061056860048036038101906105639190613238565b611960565b60405161057c989796959493929190613614565b60405180910390f35b34801561059157600080fd5b506105ac60048036038101906105a79190613238565b611c9f565b005b3480156105ba57600080fd5b506105d560048036038101906105d091906131d5565b611e92565b6040516105e2919061321d565b60405180910390f35b3480156105f757600080fd5b50610612600480360381019061060d9190613238565b611eaf565b005b34801561062057600080fd5b5061063b60048036038101906106369190613238565b612051565b005b34801561064957600080fd5b50610664600480360381019061065f91906136ae565b61219e565b005b34801561067257600080fd5b5061068d600480360381019061068891906131d5565b61242a565b005b34801561069b57600080fd5b506106b660048036038101906106b19190613238565b61247e565b6040516106c593929190613722565b60405180910390f35b3480156106da57600080fd5b506106f560048036038101906106f09190613117565b612604565b005b34801561070357600080fd5b5061071e600480360381019061071991906131d5565b612779565b005b34801561072c57600080fd5b5061074760048036038101906107429190613265565b612796565b005b34801561075557600080fd5b50610770600480360381019061076b91906131d5565b612915565b60405161077d919061321d565b60405180910390f35b34801561079257600080fd5b5061079b612932565b005b6107a6336129e5565b565b6107b133611e92565b6107f0576040517f08c379a00000000000000000000000000000000000000000000000000000000081526004016107e7906137d9565b60405180910390fd5b8260006003811115610805576108046137f9565b5b60076000838152602001908152602001600020600a0160009054906101000a900460ff16600381111561083b5761083a6137f9565b5b1461087b576040517f08c379a000000000000000000000000000000000000000000000000000000000815260040161087290613874565b60405180910390fd5b336007600086815260200190815260200160002060020160006101000a81548173ffffffffffffffffffffffffffffffffffffffff021916908373ffffffffffffffffffffffffffffffffffffffff16021790555082826007600087815260200190815260200160002060080191906108f5929190612fcf565b50600160076000868152602001908152602001600020600a0160006101000a81548160ff021916908360038111156109305761092f6137f9565b5b02179055507fe98cb48b7c65f60e2a8d0b20a8dbaac7cc3c2c897044fe92d5f5d3f97382ca75846040516109649190613894565b60405180910390a150505050565b61097b3361155e565b6109ba576040517f08c379a00000000000000000000000000000000000000000000000000000000081526004016109b190613921565b60405180910390fd5b6109c381612a3f565b50565b60006109dc826002612a9990919063ffffffff16565b9050919050565b6109ec3361155e565b610a2b576040517f08c379a0000000000000000000000000000000000000000000000000000000008152600401610a2290613921565b60405180910390fd5b8060056006811115610a4057610a3f6137f9565b5b60086000838152602001908152602001600020600a0160009054906101000a900460ff166006811115610a7657610a756137f9565b5b14610ab6576040517f08c379a0000000000000000000000000000000000000000000000000000000008152600401610aad9061398d565b60405180910390fd5b600860008381526020019081526020016000206005015480341015610b10576040517f08c379a0000000000000000000000000000000000000000000000000000000008152600401610b07906139f9565b60405180910390fd5b82336008600086815260200190815260200160002060020160006101000a81548173ffffffffffffffffffffffffffffffffffffffff021916908373ffffffffffffffffffffffffffffffffffffffff160217905550336008600086815260200190815260200160002060080160006101000a81548173ffffffffffffffffffffffffffffffffffffffff021916908373ffffffffffffffffffffffffffffffffffffffff160217905550600660086000868152602001908152602001600020600a0160006101000a81548160ff02191690836006811115610bf557610bf46137f9565b5b02179055506000600860008681526020019081526020016000206005015490506008600086815260200190815260200160002060060160009054906101000a900473ffffffffffffffffffffffffffffffffffffffff1673ffffffffffffffffffffffffffffffffffffffff166108fc829081150290604051600060405180830381858888f19350505050158015610c91573d6000803e3d6000fd5b507f68d806f23ccebab1976d22a3c77b3089b54bf90aeb47e735422454cf3bc5d3fb85604051610cc19190613894565b60405180910390a15060006008600083815260200190815260200160002060050154905060008134610cf39190613a48565b90506008600084815260200190815260200160002060080160009054906101000a900473ffffffffffffffffffffffffffffffffffffffff1673ffffffffffffffffffffffffffffffffffffffff166108fc829081150290604051600060405180830381858888f19350505050158015610d71573d6000803e3d6000fd5b50505050505050565b610d8333612915565b610dc2576040517f08c379a0000000000000000000000000000000000000000000000000000000008152600401610db990613aee565b60405180910390fd5b6008600083815260200190815260200160002060020160009054906101000a900473ffffffffffffffffffffffffffffffffffffffff168073ffffffffffffffffffffffffffffffffffffffff163373ffffffffffffffffffffffffffffffffffffffff1614610e67576040517f08c379a0000000000000000000000000000000000000000000000000000000008152600401610e5e90613b5a565b60405180910390fd5b336007600085815260200190815260200160002060020160006101000a81548173ffffffffffffffffffffffffffffffffffffffff021916908373ffffffffffffffffffffffffffffffffffffffff16021790555060096000848152602001908152602001600020829080600181540180825580915050600190039060005260206000200160009091909190915055600160086000858152602001908152602001600020600a0160006101000a81548160ff02191690836006811115610f3057610f2f6137f9565b5b02179055507f3fc3372c329dc8c3d06ffc2e65491165ae4659f52beb5945107b6b0a9baec7bf8383604051610f66929190613b7a565b60405180910390a1505050565b610f7b6115c1565b610f8457600080fd5b610f8c61157b565b73ffffffffffffffffffffffffffffffffffffffff16ff5b610fad33612b61565b565b610fb833612bbb565b565b610fc3336109c6565b611002576040517f08c379a0000000000000000000000000000000000000000000000000000000008152600401610ff990613c15565b60405180910390fd5b8260016003811115611017576110166137f9565b5b60076000838152602001908152602001600020600a0160009054906101000a900460ff16600381111561104d5761104c6137f9565b5b1461108d576040517f08c379a000000000000000000000000000000000000000000000000000000000815260040161108490613c81565b60405180910390fd5b82826007600087815260200190815260200160002060090191906110b2929190612fcf565b50600260076000868152602001908152602001600020600a0160006101000a81548160ff021916908360038111156110ed576110ec6137f9565b5b02179055507f4a8d6d050aeb6de09587761141e9b6b451ae876df923c658f9b00c5eb7f72467846040516111219190613894565b60405180910390a150505050565b61113833611e92565b611177576040517f08c379a000000000000000000000000000000000000000000000000000000000815260040161116e906137d9565b60405180910390fd5b600654600760008c81526020019081526020016000206000018190555089600760008c81526020019081526020016000206001018190555033600760008c815260200190815260200160002060020160006101000a81548173ffffffffffffffffffffffffffffffffffffffff021916908373ffffffffffffffffffffffffffffffffffffffff16021790555088600760008c815260200190815260200160002060030160006101000a81548173ffffffffffffffffffffffffffffffffffffffff021916908373ffffffffffffffffffffffffffffffffffffffff1602179055508787600760008d8152602001908152602001600020600401919061127e929190612fcf565b508585600760008d815260200190815260200160002060050191906112a4929190612fcf565b508383600760008d815260200190815260200160002060060191906112ca929190612fcf565b508181600760008d815260200190815260200160002060070191906112f0929190612fcf565b506000600760008c8152602001908152602001600020600a0160006101000a81548160ff0219169083600381111561132b5761132a6137f9565b5b0217905550600160065461133f9190613ca1565b6006819055507f173268d759c246aee7601a066dfffa9534c95fc0036bcc9802f2219d632de6638a6040516113749190613894565b60405180910390a150505050505050505050565b6113906115c1565b61139957600080fd5b600073ffffffffffffffffffffffffffffffffffffffff1660008054906101000a900473ffffffffffffffffffffffffffffffffffffffff1673ffffffffffffffffffffffffffffffffffffffff167f5c486528ec3e3f0ea91181cff8116f02bfa350e03b8b6f12e00765adbb5af85c60405160405180910390a360008060006101000a81548173ffffffffffffffffffffffffffffffffffffffff021916908373ffffffffffffffffffffffffffffffffffffffff160217905550565b611460336115a4565b61149f576040517f08c379a000000000000000000000000000000000000000000000000000000000815260040161149690613d69565b60405180910390fd5b6114a881612c15565b50565b6114b4336109c6565b6114f3576040517f08c379a00000000000000000000000000000000000000000000000000000000081526004016114ea90613c15565b60405180910390fd5b6114fc81612c6f565b50565b61150833611e92565b611547576040517f08c379a000000000000000000000000000000000000000000000000000000000815260040161153e906137d9565b60405180910390fd5b61155081612cc9565b50565b61155c33612d23565b565b6000611574826004612a9990919063ffffffff16565b9050919050565b60008060009054906101000a900473ffffffffffffffffffffffffffffffffffffffff16905090565b60006115ba826003612a9990919063ffffffff16565b9050919050565b60008060009054906101000a900473ffffffffffffffffffffffffffffffffffffffff1673ffffffffffffffffffffffffffffffffffffffff163373ffffffffffffffffffffffffffffffffffffffff1614905090565b60008060008060606000806000806060806000600860008e8152602001908152602001600020600001549b50600860008e8152602001908152602001600020600101549a50600860008e815260200190815260200160002060020160009054906101000a900473ffffffffffffffffffffffffffffffffffffffff169950600860008e8152602001908152602001600020600301549850600860008e815260200190815260200160002060040180546116d090613db8565b80601f01602080910402602001604051908101604052809291908181526020018280546116fc90613db8565b80156117495780601f1061171e57610100808354040283529160200191611749565b820191906000526020600020905b81548152906001019060200180831161172c57829003601f168201915b50505050509750600860008e8152602001908152602001600020600501549650600860008e815260200190815260200160002060060160009054906101000a900473ffffffffffffffffffffffffffffffffffffffff169550600860008e815260200190815260200160002060070160009054906101000a900473ffffffffffffffffffffffffffffffffffffffff169450600860008e815260200190815260200160002060080160009054906101000a900473ffffffffffffffffffffffffffffffffffffffff169350600860008e8152602001908152602001600020600901805461183590613db8565b80601f016020809104026020016040519081016040528092919081815260200182805461186190613db8565b80156118ae5780601f10611883576101008083540402835291602001916118ae565b820191906000526020600020905b81548152906001019060200180831161189157829003601f168201915b50505050509250600960008e815260200190815260200160002080548060200260200160405190810160405280929190818152602001828054801561191257602002820191906000526020600020905b8154815260200190600101908083116118fe575b50505050509150600860008e8152602001908152602001600020600a0160009054906101000a900460ff16600681111561194f5761194e6137f9565b5b905091939597999b5091939597999b565b600080600080606080606080600760008a8152602001908152602001600020600001549750600760008a8152602001908152602001600020600101549650600760008a815260200190815260200160002060020160009054906101000a900473ffffffffffffffffffffffffffffffffffffffff169550600760008a815260200190815260200160002060030160009054906101000a900473ffffffffffffffffffffffffffffffffffffffff169450600760008a81526020019081526020016000206004018054611a3190613db8565b80601f0160208091040260200160405190810160405280929190818152602001828054611a5d90613db8565b8015611aaa5780601f10611a7f57610100808354040283529160200191611aaa565b820191906000526020600020905b815481529060010190602001808311611a8d57829003601f168201915b50505050509350600760008a81526020019081526020016000206005018054611ad290613db8565b80601f0160208091040260200160405190810160405280929190818152602001828054611afe90613db8565b8015611b4b5780601f10611b2057610100808354040283529160200191611b4b565b820191906000526020600020905b815481529060010190602001808311611b2e57829003601f168201915b50505050509250600760008a81526020019081526020016000206006018054611b7390613db8565b80601f0160208091040260200160405190810160405280929190818152602001828054611b9f90613db8565b8015611bec5780601f10611bc157610100808354040283529160200191611bec565b820191906000526020600020905b815481529060010190602001808311611bcf57829003601f168201915b50505050509150600760008a81526020019081526020016000206007018054611c1490613db8565b80601f0160208091040260200160405190810160405280929190818152602001828054611c4090613db8565b8015611c8d5780601f10611c6257610100808354040283529160200191611c8d565b820191906000526020600020905b815481529060010190602001808311611c7057829003601f168201915b50505050509050919395975091939597565b611ca833612915565b611ce7576040517f08c379a0000000000000000000000000000000000000000000000000000000008152600401611cde90613aee565b60405180910390fd5b6007600082815260200190815260200160002060020160009054906101000a900473ffffffffffffffffffffffffffffffffffffffff168073ffffffffffffffffffffffffffffffffffffffff163373ffffffffffffffffffffffffffffffffffffffff1614611d8c576040517f08c379a0000000000000000000000000000000000000000000000000000000008152600401611d8390613b5a565b60405180910390fd5b8160036006811115611da157611da06137f9565b5b60086000838152602001908152602001600020600a0160009054906101000a900460ff166006811115611dd757611dd66137f9565b5b14611e17576040517f08c379a0000000000000000000000000000000000000000000000000000000008152600401611e0e90613e36565b60405180910390fd5b600460086000858152602001908152602001600020600a0160006101000a81548160ff02191690836006811115611e5157611e506137f9565b5b02179055507f3f0323156def3fee736fa2ab99104aa6246b1609557ef2a77b75e2f2d72074d883604051611e859190613894565b60405180910390a1505050565b6000611ea8826001612a9990919063ffffffff16565b9050919050565b611eb8336115a4565b611ef7576040517f08c379a0000000000000000000000000000000000000000000000000000000008152600401611eee90613d69565b60405180910390fd5b8060046006811115611f0c57611f0b6137f9565b5b60086000838152602001908152602001600020600a0160009054906101000a900460ff166006811115611f4257611f416137f9565b5b14611f82576040517f08c379a0000000000000000000000000000000000000000000000000000000008152600401611f7990613ea2565b60405180910390fd5b336008600084815260200190815260200160002060070160006101000a81548173ffffffffffffffffffffffffffffffffffffffff021916908373ffffffffffffffffffffffffffffffffffffffff160217905550600560086000848152602001908152602001600020600a0160006101000a81548160ff02191690836006811115612011576120106137f9565b5b02179055507fffd5fb19c00fe32aef95ab28b8dba01c4fa5a8c09d9e7ad3a1e2cf3179b2418d826040516120459190613894565b60405180910390a15050565b61205a33611e92565b612099576040517f08c379a0000000000000000000000000000000000000000000000000000000008152600401612090906137d9565b60405180910390fd5b80600260038111156120ae576120ad6137f9565b5b60076000838152602001908152602001600020600a0160009054906101000a900460ff1660038111156120e4576120e36137f9565b5b14612124576040517f08c379a000000000000000000000000000000000000000000000000000000000815260040161211b90613f0e565b60405180910390fd5b600360076000848152602001908152602001600020600a0160006101000a81548160ff0219169083600381111561215e5761215d6137f9565b5b02179055507ff8c7ec46393fe9b36bc23e8c027899f70fe0e57008ad56fbc93f526c193257ea826040516121929190613894565b60405180910390a15050565b6121a733612915565b6121e6576040517f08c379a00000000000000000000000000000000000000000000000000000000081526004016121dd90613aee565b60405180910390fd5b6008600085815260200190815260200160002060020160009054906101000a900473ffffffffffffffffffffffffffffffffffffffff168073ffffffffffffffffffffffffffffffffffffffff163373ffffffffffffffffffffffffffffffffffffffff161461228b576040517f08c379a000000000000000000000000000000000000000000000000000000000815260040161228290613b5a565b60405180910390fd5b84600160068111156122a05761229f6137f9565b5b60086000838152602001908152602001600020600a0160009054906101000a900460ff1660068111156122d6576122d56137f9565b5b14612316576040517f08c379a000000000000000000000000000000000000000000000000000000000815260040161230d90613f7a565b60405180910390fd5b336008600088815260200190815260200160002060060160006101000a81548173ffffffffffffffffffffffffffffffffffffffff021916908373ffffffffffffffffffffffffffffffffffffffff1602179055508484600860008981526020019081526020016000206004019190612390929190612fcf565b50826008600088815260200190815260200160002060050181905550600260086000888152602001908152602001600020600a0160006101000a81548160ff021916908360068111156123e6576123e56137f9565b5b02179055507fbf34e611b2b30b70bb3900a838a1a54927d9804907c453e1c38723221b6f6d648660405161241a9190613894565b60405180910390a1505050505050565b61243333612915565b612472576040517f08c379a000000000000000000000000000000000000000000000000000000000815260040161246990613aee565b60405180910390fd5b61247b81612d7d565b50565b60608060006007600085815260200190815260200160002060080180546124a490613db8565b80601f01602080910402602001604051908101604052809291908181526020018280546124d090613db8565b801561251d5780601f106124f25761010080835404028352916020019161251d565b820191906000526020600020905b81548152906001019060200180831161250057829003601f168201915b5050505050925060076000858152602001908152602001600020600901805461254590613db8565b80601f016020809104026020016040519081016040528092919081815260200182805461257190613db8565b80156125be5780601f10612593576101008083540402835291602001916125be565b820191906000526020600020905b8154815290600101906020018083116125a157829003601f168201915b5050505050915060076000858152602001908152602001600020600a0160009054906101000a900460ff1660038111156125fb576125fa6137f9565b5b90509193909250565b61260d336109c6565b61264c576040517f08c379a000000000000000000000000000000000000000000000000000000000815260040161264390613c15565b60405180910390fd5b8260026006811115612661576126606137f9565b5b60086000838152602001908152602001600020600a0160009054906101000a900460ff166006811115612697576126966137f9565b5b146126d7576040517f08c379a00000000000000000000000000000000000000000000000000000000081526004016126ce90613fe6565b60405180910390fd5b82826008600087815260200190815260200160002060090191906126fc929190612fcf565b50600360086000868152602001908152602001600020600a0160006101000a81548160ff02191690836006811115612737576127366137f9565b5b02179055507f3e63fde7fd3604b6e9bdacdf3dada6e9adda382179893fc6db77ea2dbc5b07038460405161276b9190613894565b60405180910390a150505050565b6127816115c1565b61278a57600080fd5b61279381612dd7565b50565b61279f33612915565b6127de576040517f08c379a00000000000000000000000000000000000000000000000000000000081526004016127d590613aee565b60405180910390fd5b6006546008600084815260200190815260200160002060000181905550816008600084815260200190815260200160002060010181905550806008600084815260200190815260200160002060030181905550336008600084815260200190815260200160002060020160006101000a81548173ffffffffffffffffffffffffffffffffffffffff021916908373ffffffffffffffffffffffffffffffffffffffff160217905550600060086000848152602001908152602001600020600a0160006101000a81548160ff021916908360068111156128c0576128bf6137f9565b5b021790555060016006546128d49190613ca1565b6006819055507f12600f571c4c1b65bc9a13f37a0c4c8cbf33d798f418d5fe7df7c758e2245225826040516129099190613894565b60405180910390a15050565b600061292b826005612a9990919063ffffffff16565b9050919050565b61293b33612ece565b565b6129478282612a99565b15612987576040517f08c379a000000000000000000000000000000000000000000000000000000000815260040161297e90614052565b60405180910390fd5b60018260000160008373ffffffffffffffffffffffffffffffffffffffff1673ffffffffffffffffffffffffffffffffffffffff16815260200190815260200160002060006101000a81548160ff0219169083151502179055505050565b6129f9816002612f2890919063ffffffff16565b8073ffffffffffffffffffffffffffffffffffffffff167f737c9e54b555afb1794817809534974cb61ead2136d82d4a8fecb34d0932922060405160405180910390a250565b612a5381600461293d90919063ffffffff16565b8073ffffffffffffffffffffffffffffffffffffffff167f28b26e7a3d20aedbc5f8f2ebf7da671c0491723a2b78f47a097b0e46dee0714260405160405180910390a250565b60008073ffffffffffffffffffffffffffffffffffffffff168273ffffffffffffffffffffffffffffffffffffffff161415612b0a576040517f08c379a0000000000000000000000000000000000000000000000000000000008152600401612b01906140e4565b60405180910390fd5b8260000160008373ffffffffffffffffffffffffffffffffffffffff1673ffffffffffffffffffffffffffffffffffffffff16815260200190815260200160002060009054906101000a900460ff16905092915050565b612b75816004612f2890919063ffffffff16565b8073ffffffffffffffffffffffffffffffffffffffff167fe3f5ed5f263f1f01764a96edfc7d025f511ec5f7d180e8816908b78bcf74f09860405160405180910390a250565b612bcf816003612f2890919063ffffffff16565b8073ffffffffffffffffffffffffffffffffffffffff167f126174f6cf49c81cdb4a9214c6b8f037bef55b4ec31e4fc776cea2a1c8a88d5960405160405180910390a250565b612c2981600361293d90919063ffffffff16565b8073ffffffffffffffffffffffffffffffffffffffff167fddbf200aa634dc3fb81cfd68583dd1040d1c751d335e1d86b631bde3e977fea860405160405180910390a250565b612c8381600261293d90919063ffffffff16565b8073ffffffffffffffffffffffffffffffffffffffff167f9ca2a3611f65b351a79d20d5314a16e37fe9b947d2a36232e101bd615994450360405160405180910390a250565b612cdd81600161293d90919063ffffffff16565b8073ffffffffffffffffffffffffffffffffffffffff167f2e0ded4123377a3c2bc9a26f1717655a129e2f20752924d42e730ec89c83dbd060405160405180910390a250565b612d37816001612f2890919063ffffffff16565b8073ffffffffffffffffffffffffffffffffffffffff167fa5e0f060af304ab17dd418c7927e3da3ae7868189bf387aee09ab179ccc572f260405160405180910390a250565b612d9181600561293d90919063ffffffff16565b8073ffffffffffffffffffffffffffffffffffffffff167f2977383b0207d39ef14220620b6cf3e6c9b6e78592af90baeef6614ed2fcd2c660405160405180910390a250565b600073ffffffffffffffffffffffffffffffffffffffff168173ffffffffffffffffffffffffffffffffffffffff161415612e1157600080fd5b8073ffffffffffffffffffffffffffffffffffffffff1660008054906101000a900473ffffffffffffffffffffffffffffffffffffffff1673ffffffffffffffffffffffffffffffffffffffff167f5c486528ec3e3f0ea91181cff8116f02bfa350e03b8b6f12e00765adbb5af85c60405160405180910390a3806000806101000a81548173ffffffffffffffffffffffffffffffffffffffff021916908373ffffffffffffffffffffffffffffffffffffffff16021790555050565b612ee2816005612f2890919063ffffffff16565b8073ffffffffffffffffffffffffffffffffffffffff167fb78e9906c5bae930ccf756a5214c9855b1782f0eb30f9566de2384f034af48f360405160405180910390a250565b612f328282612a99565b612f71576040517f08c379a0000000000000000000000000000000000000000000000000000000008152600401612f6890614176565b60405180910390fd5b60008260000160008373ffffffffffffffffffffffffffffffffffffffff1673ffffffffffffffffffffffffffffffffffffffff16815260200190815260200160002060006101000a81548160ff0219169083151502179055505050565b828054612fdb90613db8565b90600052602060002090601f016020900481019282612ffd5760008555613044565b82601f1061301657803560ff1916838001178555613044565b82800160010185558215613044579182015b82811115613043578235825591602001919060010190613028565b5b5090506130519190613055565b5090565b5b8082111561306e576000816000905550600101613056565b5090565b600080fd5b600080fd5b6000819050919050565b61308f8161307c565b811461309a57600080fd5b50565b6000813590506130ac81613086565b92915050565b600080fd5b600080fd5b600080fd5b60008083601f8401126130d7576130d66130b2565b5b8235905067ffffffffffffffff8111156130f4576130f36130b7565b5b6020830191508360018202830111156131105761310f6130bc565b5b9250929050565b6000806000604084860312156131305761312f613072565b5b600061313e8682870161309d565b935050602084013567ffffffffffffffff81111561315f5761315e613077565b5b61316b868287016130c1565b92509250509250925092565b600073ffffffffffffffffffffffffffffffffffffffff82169050919050565b60006131a282613177565b9050919050565b6131b281613197565b81146131bd57600080fd5b50565b6000813590506131cf816131a9565b92915050565b6000602082840312156131eb576131ea613072565b5b60006131f9848285016131c0565b91505092915050565b60008115159050919050565b61321781613202565b82525050565b6000602082019050613232600083018461320e565b92915050565b60006020828403121561324e5761324d613072565b5b600061325c8482850161309d565b91505092915050565b6000806040838503121561327c5761327b613072565b5b600061328a8582860161309d565b925050602061329b8582860161309d565b9150509250929050565b60008060008060008060008060008060c08b8d0312156132c8576132c7613072565b5b60006132d68d828e0161309d565b9a505060206132e78d828e016131c0565b99505060408b013567ffffffffffffffff81111561330857613307613077565b5b6133148d828e016130c1565b985098505060608b013567ffffffffffffffff81111561333757613336613077565b5b6133438d828e016130c1565b965096505060808b013567ffffffffffffffff81111561336657613365613077565b5b6133728d828e016130c1565b945094505060a08b013567ffffffffffffffff81111561339557613394613077565b5b6133a18d828e016130c1565b92509250509295989b9194979a5092959850565b6133be81613197565b82525050565b60006020820190506133d960008301846133b5565b92915050565b6133e88161307c565b82525050565b600081519050919050565b600082825260208201905092915050565b60005b8381101561342857808201518184015260208101905061340d565b83811115613437576000848401525b50505050565b6000601f19601f8301169050919050565b6000613459826133ee565b61346381856133f9565b935061347381856020860161340a565b61347c8161343d565b840191505092915050565b600081519050919050565b600082825260208201905092915050565b6000819050602082019050919050565b6134bc8161307c565b82525050565b60006134ce83836134b3565b60208301905092915050565b6000602082019050919050565b60006134f282613487565b6134fc8185613492565b9350613507836134a3565b8060005b8381101561353857815161351f88826134c2565b975061352a836134da565b92505060018101905061350b565b5085935050505092915050565b60006101808201905061355b600083018f6133df565b613568602083018e6133df565b613575604083018d6133b5565b613582606083018c6133df565b8181036080830152613594818b61344e565b90506135a360a083018a6133df565b6135b060c08301896133b5565b6135bd60e08301886133b5565b6135cb6101008301876133b5565b8181036101208301526135de818661344e565b90508181036101408301526135f381856134e7565b90506136036101608301846133df565b9d9c50505050505050505050505050565b60006101008201905061362a600083018b6133df565b613637602083018a6133df565b61364460408301896133b5565b61365160608301886133b5565b8181036080830152613663818761344e565b905081810360a0830152613677818661344e565b905081810360c083015261368b818561344e565b905081810360e083015261369f818461344e565b90509998505050505050505050565b600080600080606085870312156136c8576136c7613072565b5b60006136d68782880161309d565b945050602085013567ffffffffffffffff8111156136f7576136f6613077565b5b613703878288016130c1565b935093505060406137168782880161309d565b91505092959194509250565b6000606082019050818103600083015261373c818661344e565b90508181036020830152613750818561344e565b905061375f60408301846133df565b949350505050565b7f4661726d6572526f6c653a2063616c6c657220646f6573206e6f74206861766560008201527f20746865204661726d657220726f6c6500000000000000000000000000000000602082015250565b60006137c36030836133f9565b91506137ce82613767565b604082019050919050565b600060208201905081810360008301526137f2816137b6565b9050919050565b7f4e487b7100000000000000000000000000000000000000000000000000000000600052602160045260246000fd5b7f6e6f7420506c616e746564000000000000000000000000000000000000000000600082015250565b600061385e600b836133f9565b915061386982613828565b602082019050919050565b6000602082019050818103600083015261388d81613851565b9050919050565b60006020820190506138a960008301846133df565b92915050565b7f436f6e73756d6572526f6c653a2063616c6c657220646f6573206e6f7420686160008201527f76652074686520436f6e73756d657220726f6c65000000000000000000000000602082015250565b600061390b6034836133f9565b9150613916826138af565b604082019050919050565b6000602082019050818103600083015261393a816138fe565b9050919050565b7f6e6f7420466f7253616c65000000000000000000000000000000000000000000600082015250565b6000613977600b836133f9565b915061398282613941565b602082019050919050565b600060208201905081810360008301526139a68161396a565b9050919050565b7f70616964456e6f75676800000000000000000000000000000000000000000000600082015250565b60006139e3600a836133f9565b91506139ee826139ad565b602082019050919050565b60006020820190508181036000830152613a12816139d6565b9050919050565b7f4e487b7100000000000000000000000000000000000000000000000000000000600052601160045260246000fd5b6000613a538261307c565b9150613a5e8361307c565b925082821015613a7157613a70613a19565b5b828203905092915050565b7f50726f6475636572526f6c653a2063616c6c657220646f6573206e6f7420686160008201527f7665207468652050726f647563657220726f6c65000000000000000000000000602082015250565b6000613ad86034836133f9565b9150613ae382613a7c565b604082019050919050565b60006020820190508181036000830152613b0781613acb565b9050919050565b7f76657269667943616c6c65723a20756e65787065637465642063616c6c657200600082015250565b6000613b44601f836133f9565b9150613b4f82613b0e565b602082019050919050565b60006020820190508181036000830152613b7381613b37565b9050919050565b6000604082019050613b8f60008301856133df565b613b9c60208301846133df565b9392505050565b7f496e73706563746f72526f6c653a2063616c6c657220646f6573206e6f74206860008201527f6176652074686520496e73706563746f7220726f6c6500000000000000000000602082015250565b6000613bff6036836133f9565b9150613c0a82613ba3565b604082019050919050565b60006020820190508181036000830152613c2e81613bf2565b9050919050565b7f6e6f742048617276657374656400000000000000000000000000000000000000600082015250565b6000613c6b600d836133f9565b9150613c7682613c35565b602082019050919050565b60006020820190508181036000830152613c9a81613c5e565b9050919050565b6000613cac8261307c565b9150613cb78361307c565b9250827fffffffffffffffffffffffffffffffffffffffffffffffffffffffffffffffff03821115613cec57613ceb613a19565b5b828201905092915050565b7f4469737472696275746f72526f6c653a2063616c6c657220646f6573206e6f7460008201527f206861766520746865204469737472696275746f7220726f6c65000000000000602082015250565b6000613d53603a836133f9565b9150613d5e82613cf7565b604082019050919050565b60006020820190508181036000830152613d8281613d46565b9050919050565b7f4e487b7100000000000000000000000000000000000000000000000000000000600052602260045260246000fd5b60006002820490506001821680613dd057607f821691505b60208210811415613de457613de3613d89565b5b50919050565b7f6e6f742043657274696669656400000000000000000000000000000000000000600082015250565b6000613e20600d836133f9565b9150613e2b82613dea565b602082019050919050565b60006020820190508181036000830152613e4f81613e13565b9050919050565b7f6e6f74205061636b656400000000000000000000000000000000000000000000600082015250565b6000613e8c600a836133f9565b9150613e9782613e56565b602082019050919050565b60006020820190508181036000830152613ebb81613e7f565b9050919050565b7f6e6f742041756469746564000000000000000000000000000000000000000000600082015250565b6000613ef8600b836133f9565b9150613f0382613ec2565b602082019050919050565b60006020820190508181036000830152613f2781613eeb565b9050919050565b7f6e6f7420426c656e646564000000000000000000000000000000000000000000600082015250565b6000613f64600b836133f9565b9150613f6f82613f2e565b602082019050919050565b60006020820190508181036000830152613f9381613f57565b9050919050565b7f6e6f742050726f64756365640000000000000000000000000000000000000000600082015250565b6000613fd0600c836133f9565b9150613fdb82613f9a565b602082019050919050565b60006020820190508181036000830152613fff81613fc3565b9050919050565b7f526f6c65733a206163636f756e7420616c72656164792068617320726f6c6500600082015250565b600061403c601f836133f9565b915061404782614006565b602082019050919050565b6000602082019050818103600083015261406b8161402f565b9050919050565b7f526f6c65733a206163636f756e7420697320746865207a65726f20616464726560008201527f7373000000000000000000000000000000000000000000000000000000000000602082015250565b60006140ce6022836133f9565b91506140d982614072565b604082019050919050565b600060208201905081810360008301526140fd816140c1565b9050919050565b7f526f6c65733a206163636f756e7420646f6573206e6f74206861766520726f6c60008201527f6500000000000000000000000000000000000000000000000000000000000000602082015250565b60006141606021836133f9565b915061416b82614104565b604082019050919050565b6000602082019050818103600083015261418f81614153565b905091905056fea2646970667358221220a2e699f2d4329a4807fd286d8170a3b3edadb14f05a22118819d47b41679d92b64736f6c634300080c0033",
  "immutableReferences": {},
  "source": "// SPDX-License-Identifier: MIT\n\npragma solidity >=0.6.00;\n\n// Importing the necessary sol files\nimport \"../core/Ownable.sol\";\nimport \"../access/roles/ConsumerRole.sol\";\nimport \"../access/roles/DistributorRole.sol\";\nimport \"../access/roles/FarmerRole.sol\";\nimport \"../access/roles/ProducerRole.sol\";\nimport \"../access/roles/InspectorRole.sol\";\n\n// Define a contract 'Supplychain'\ncontract SupplyChain is\n    Ownable,\n    FarmerRole,\n    InspectorRole,\n    DistributorRole,\n    ConsumerRole,\n    ProducerRole\n{\n    // Define a variable called 'sku' for Stock Keeping Unit (SKU)\n    uint256 sku_cnt;\n\n    // grape_upc -> grapeItem\n    mapping(uint256 => GrapeItem) grapeItems;\n    // juice_upc -> juiceItems\n    mapping(uint256 => JuiceItem) juiceItems;\n    // juice_upc -> grape_upc[]\n    mapping(uint256 => uint256[]) juiceGrapes;\n\n    // Define enum 'State' with the following values:\n    enum GrapeState {\n\t\tPlanted,\n\t\tHarvested,\n\t\tAudited,\n\t\tProcessed\n\t}\n    GrapeState constant defaultGrapeState = GrapeState.Planted;\n\n    enum JuiceState {\n        Created,\n        Blended,\n        Produced,\n        Certified,\n        Packed,\n        ForSale,\n        Purchased\n    }\n    JuiceState constant defaultJuiceState = JuiceState.Created;\n\n    // Define a struct 'GrapeItem' with the following fields:\n    struct GrapeItem {\n        uint256 sku; // Stock Keeping Unit (SKU)\n        uint256 upc; // Universal Product Code (UPC), generated by the Farmer, goes on the package, can be verified by the Consumer\n        address ownerID; // Metamask-Ethereum address of the current owner as the product moves through stages\n        address originFarmerID; // Metamask-Ethereum address of the Farmer\n        string originFarmName; // Farmer Name\n        string originFarmInformation; // Farmer Information\n        string originFarmLatitude; // Farm Latitude\n        string originFarmLongitude; // Farm Longitude\n        string harvestNotes; // Harvest Notes\n        string auditNotes; // Autit Notes\n        GrapeState itemState; // Product State as represented in the enum above\n    }\n\n    // Define a struct 'JuiceItem' with the following fields:\n    struct JuiceItem {\n        uint256 sku; // Stock Keeping Unit (SKU)\n        uint256 upc; // Universal Product Code (UPC), generated by the Procuder, goes on the package, can be verified by the Consumer\n        address ownerID; // Metamask-Ethereum address of the current owner as the product moves through stages\n        uint256 productID; // Product ID potentially a combination of upc + sku\n        string productNotes; // Product Notes\n        uint256 productPrice; // Product Price\n        address producerID; // Metamask-Ethereum address of the Producer\n        address distributorID; // Metamask-Ethereum address of the Distributor\n        address consumerID; // Metamask-Ethereum address of the Consumer\n        string certifyNotes; // Certify Notes\n        JuiceState itemState; // Product State as represented in the enum above\n    }\n\n    // Define events of Grapes\n    event GrapePlanted(uint256 grapeUpc);\n    event GrapeHarvested(uint256 grapeUpc);\n    event GrapeAudited(uint256 grapeUpc);\n    event GrapeProcessed(uint256 grapeUpc);\n\n    // Define events of Juices\n    event JuiceCreated(uint256 juiceUpc);\n    event JuiceBlended(uint256 juiceUpc, uint256 grapeUpc);\n    event JuiceProduced(uint256 juiceUpc);\n    event JuicePacked(uint256 juiceUpc);\n    event JuiceCertified(uint256 juiceUpc);\n    event JuiceForSale(uint256 juiceUpc);\n    event JuicePurchased(uint256 juiceUpc);\n\n    // Define a modifer that verifies the Caller\n    modifier verifyCaller(address _address) {\n        require(msg.sender == _address, \"verifyCaller: unexpected caller\");\n        _;\n    }\n\n    // Define a modifier that checks if the paid amount is sufficient to cover the price\n    modifier paidEnough(uint256 _price) {\n        require(msg.value >= _price, \"paidEnough\");\n        _;\n    }\n\n    // Define a modifier that checks the price and refunds the remaining balance\n    modifier checkValue(uint256 _juiceUpc) {\n        _;\n        uint256 _price = juiceItems[_juiceUpc].productPrice;\n        uint256 amountToReturn = msg.value - _price;\n        payable(juiceItems[_juiceUpc].consumerID).transfer(amountToReturn);\n    }\n\n    // Define a modifier that checks if an grapeItem.state of a upc is Planted\n    modifier isPlanted(uint256 _grapeUpc) {\n        require(grapeItems[_grapeUpc].itemState == GrapeState.Planted, \"not Planted\");\n        _;\n    }\n\n    // Define a modifier that checks if an grapeItem.state of a upc is Harvested\n    modifier isHarvested(uint256 _grapeUpc) {\n        require(grapeItems[_grapeUpc].itemState == GrapeState.Harvested, \"not Harvested\");\n        _;\n    }\n\n    // Define a modifier that checks if an grapeItem.state of a upc is Audited\n    modifier isAudited(uint256 _grapeUpc) {\n        require(grapeItems[_grapeUpc].itemState == GrapeState.Audited, \"not Audited\");\n        _;\n    }\n\n    // Define a modifier that checks if an grapeItem.state of a upc is Processed\n    modifier isProcessed(uint256 _grapeUpc) {\n        require(grapeItems[_grapeUpc].itemState == GrapeState.Processed, \"not Processed\");\n        _;\n    }\n\n    // Define a modifier that checks if an juiceItem.state of a upc is Created\n    modifier isCreated(uint256 _juiceUpc) {\n        require(juiceItems[_juiceUpc].itemState == JuiceState.Created, \"not Created\");\n        _;\n    }\n\n    // Define a modifier that checks if an juiceItem.state of a upc is Blended\n    modifier isBlended(uint256 _juiceUpc) {\n        require(juiceItems[_juiceUpc].itemState == JuiceState.Blended, \"not Blended\");\n        _;\n    }\n\n    // Define a modifier that checks if an juiceItem.state of a upc is Produced\n    modifier isProduced(uint256 _juiceUpc) {\n        require(juiceItems[_juiceUpc].itemState == JuiceState.Produced, \"not Produced\");\n        _;\n    }\n\n    // Define a modifier that checks if an juiceItem.state of a upc is Packed\n    modifier isPacked(uint256 _juiceUpc) {\n        require(juiceItems[_juiceUpc].itemState == JuiceState.Packed, \"not Packed\");\n        _;\n    }\n\n    // Define a modifier that checks if an juiceItem.state of a upc is Certified\n    modifier isCertified(uint256 _juiceUpc) {\n        require(juiceItems[_juiceUpc].itemState == JuiceState.Certified, \"not Certified\");\n        _;\n    }\n\n    // Define a modifier that checks if an juiceItem.state of a upc is ForSale\n    modifier isForSale(uint256 _juiceUpc) {\n        require(juiceItems[_juiceUpc].itemState == JuiceState.ForSale, \"not ForSale\");\n        _;\n    }\n\n    // Define a modifier that checks if an juiceItem.state of a upc is Purchased\n    modifier isPurchased(uint256 _juiceUpc) {\n        require(juiceItems[_juiceUpc].itemState == JuiceState.Purchased, \"not Purchased\");\n        _;\n    }\n\n    // In the constructor\n    // set 'sku' to 1\n    // set 'upc' to 1\n    constructor() public payable {\n        sku_cnt = 1;\n    }\n\n    // Transfer Eth to owner and terminate contract\n    function kill() public onlyOwner {\n        selfdestruct(payable(owner()));\n    }\n\n    // Define a function 'grapePlantItem' that allows a farmer to mark an item 'Planted'\n    function grapePlantItem(\n        uint256 _grapeUpc,\n        address _originFarmerID,\n        string calldata _originFarmName,\n        string calldata _originFarmInformation,\n        string calldata _originFarmLatitude,\n        string calldata _originFarmLongitude\n    ) public onlyFarmer {\n        // Add the new item as part of Harvest\n        grapeItems[_grapeUpc].sku = sku_cnt;\n        grapeItems[_grapeUpc].upc = _grapeUpc;\n        grapeItems[_grapeUpc].ownerID = msg.sender;\n        grapeItems[_grapeUpc].originFarmerID = _originFarmerID;\n        grapeItems[_grapeUpc].originFarmName = _originFarmName;\n        grapeItems[_grapeUpc].originFarmInformation = _originFarmInformation;\n        grapeItems[_grapeUpc].originFarmLatitude = _originFarmLatitude;\n        grapeItems[_grapeUpc].originFarmLongitude = _originFarmLongitude;\n        // Update state\n        grapeItems[_grapeUpc].itemState = GrapeState.Planted;\n        // Increment sku\n        sku_cnt = sku_cnt + 1;\n        // Emit the appropriate event\n        emit GrapePlanted(_grapeUpc);\n    }\n\n    // Define a function 'grapeHarvestItem' that allows a farmer to mark an item 'Harvested'\n    function grapeHarvestItem(uint256 _grapeUpc, string calldata _harvestNotes)\n        public\n        onlyFarmer\n        isPlanted(_grapeUpc)\n    {\n        // Add the new item as part of Harvest\n        grapeItems[_grapeUpc].ownerID = msg.sender;\n        grapeItems[_grapeUpc].harvestNotes = _harvestNotes;\n        // Update state\n        grapeItems[_grapeUpc].itemState = GrapeState.Harvested;\n        // Emit the appropriate event\n        emit GrapeHarvested(_grapeUpc);\n    }\n\n    // Define a function 'grapeAuditItem' that allows a Inspector to mark an item 'Audited'\n    function grapeAuditItem(uint256 _grapeUpc, string calldata _auditNotes)\n        public\n        onlyInspector\n        isHarvested(_grapeUpc)\n    {\n        // Add the new item as part of Harvest\n        grapeItems[_grapeUpc].auditNotes = _auditNotes;\n        // Update state\n        grapeItems[_grapeUpc].itemState = GrapeState.Audited;\n        // Emit the appropriate event\n        emit GrapeAudited(_grapeUpc);\n    }\n\n    // Define a function 'grapeProcessItem' that allows a farmer to mark an item 'Processed'\n    function grapeProcessItem(uint256 _grapeUpc)\n        public\n        onlyFarmer\n        isAudited(_grapeUpc)\n        // verifyCaller(grapeItems[_grapeUpc].ownerID) // Call modifier to verify caller of this function\n    {\n        // Update the appropriate fields\n        grapeItems[_grapeUpc].itemState = GrapeState.Processed;\n        // Emit the appropriate event\n        emit GrapeProcessed(_grapeUpc);\n    }\n\n    function juiceCreateItem(\n        uint256 _grapeUpc,\n        uint256 _productID\n    ) public onlyProducer {\n        // Add the new item as part of Harvest\n        juiceItems[_grapeUpc].sku = sku_cnt;\n        juiceItems[_grapeUpc].upc = _grapeUpc;\n        juiceItems[_grapeUpc].productID = _productID;\n        juiceItems[_grapeUpc].ownerID = msg.sender;\n\t\t// Update state\n        juiceItems[_grapeUpc].itemState = JuiceState.Created;\n        // Increment sku\n        sku_cnt = sku_cnt + 1;\n        // Emit the appropriate event\n        emit JuiceCreated(_grapeUpc);\n    }\n\n    function juiceBlendItem(uint256 _juiceUpc, uint256 _grapeUpc)\n        public\n        onlyProducer\n\t\tverifyCaller(juiceItems[_juiceUpc].ownerID)\n    {\n\t\t// Take ownership of grape\n\t\tgrapeItems[_juiceUpc].ownerID = msg.sender;\n\t\t// Blend the '_juiceUpc' juice with '_grapeUpc' grape\n\t\tjuiceGrapes[_juiceUpc].push(_grapeUpc);\n\t\t// Update state\n        juiceItems[_juiceUpc].itemState = JuiceState.Blended;\n        // Emit the appropriate event\n        emit JuiceBlended(_juiceUpc, _grapeUpc);\n    }\n\n\tfunction juiceProduceItem(uint256 _juiceUpc, string calldata _productNotes, uint256 _productPrice)\n        public\n        onlyProducer\n\t\tverifyCaller(juiceItems[_juiceUpc].ownerID)\n\t\tisBlended(_juiceUpc)\n    {\n        juiceItems[_juiceUpc].producerID = msg.sender;\n        juiceItems[_juiceUpc].productNotes = _productNotes;\n        juiceItems[_juiceUpc].productPrice = _productPrice;\n\t\t// Update state\n        juiceItems[_juiceUpc].itemState = JuiceState.Produced;\n        // Emit the appropriate event\n        emit JuiceProduced(_juiceUpc);\n    }\n\n\tfunction juiceCertifyItem(uint256 _juiceUpc, string calldata _certifyNotes)\n        public\n        onlyInspector\n\t\tisProduced(_juiceUpc)\n    {\n\t\tjuiceItems[_juiceUpc].certifyNotes = _certifyNotes;\n\t\t// Update state\n        juiceItems[_juiceUpc].itemState = JuiceState.Certified;\n        // Emit the appropriate event\n        emit JuiceCertified(_juiceUpc);\n    }\n\n\tfunction juicePackItem(uint256 _juiceUpc)\n        public\n        onlyProducer\n\t\tverifyCaller(grapeItems[_juiceUpc].ownerID)\n\t\tisCertified(_juiceUpc)\n    {\n\t\t// Update state\n        juiceItems[_juiceUpc].itemState = JuiceState.Packed;\n        // Emit the appropriate event\n        emit JuicePacked(_juiceUpc);\n    }\n\n\tfunction juiceSellItem(uint256 _juiceUpc)\n        public\n        onlyDistributor\n\t\tisPacked(_juiceUpc)\n    {\n        juiceItems[_juiceUpc].distributorID = msg.sender;\n\t\t// Update state\n        juiceItems[_juiceUpc].itemState = JuiceState.ForSale;\n        // Emit the appropriate event\n        emit JuiceForSale(_juiceUpc);\n    }\n\n\tfunction juiceBuyItem(uint256 _juiceUpc)\n        public\n\t\tpayable\n        onlyConsumer\n\t\tisForSale(_juiceUpc)\n\t\tpaidEnough(juiceItems[_juiceUpc].productPrice)\n\t\tcheckValue(_juiceUpc)\n    {\n\t\tjuiceItems[_juiceUpc].ownerID = msg.sender;\n        juiceItems[_juiceUpc].consumerID = msg.sender;\n\t\t// Update state\n        juiceItems[_juiceUpc].itemState = JuiceState.Purchased;\n        // Transfer money to producer\n        uint256 price = juiceItems[_juiceUpc].productPrice;\n        payable(juiceItems[_juiceUpc].producerID).transfer(price);\n        // Emit the appropriate event\n\t    emit JuicePurchased(_juiceUpc);\n    }\n\n    // Functions to fetch data\n    function fetchJuiceItemBufferOne(uint256 _juiceUpc)\n        external\n        view\n        returns (\n\t\t\tuint256 sku,\n\t\t\tuint256 upc,\n\t\t\taddress ownerID,\n\t\t\tuint256 productID,\n\t\t\tstring memory productNotes,\n\t\t\tuint256 productPrice,\n\t\t\taddress producerID,\n\t\t\taddress distributorID,\n\t\t\taddress consumerID,\n\t\t\tstring memory certifyNotes,\n\t\t\tuint256[] memory grapes,\n\t\t\tuint256 itemState\n        )\n    {\n\t\t\tsku\t\t\t= juiceItems[_juiceUpc].sku;\n\t\t\tupc\t\t\t= juiceItems[_juiceUpc].upc;\n\t\t\townerID\t\t= juiceItems[_juiceUpc].ownerID;\n\t\t\tproductID\t\t= juiceItems[_juiceUpc].productID;\n\t\t\tproductNotes\t= juiceItems[_juiceUpc].productNotes;\n\t\t\tproductPrice\t= juiceItems[_juiceUpc].productPrice;\n\t\t\tproducerID\t\t= juiceItems[_juiceUpc].producerID;\n\t\t\tdistributorID\t= juiceItems[_juiceUpc].distributorID;\n\t\t\tconsumerID\t\t= juiceItems[_juiceUpc].consumerID;\n\t\t\tcertifyNotes\t= juiceItems[_juiceUpc].certifyNotes;\n\t\t\tgrapes\t\t\t= juiceGrapes[_juiceUpc];\n\t\t\titemState\t\t= uint256(juiceItems[_juiceUpc].itemState);\n        return (\n\t\t\tsku,\n\t\t\tupc,\n\t\t\townerID,\n\t\t\tproductID,\n\t\t\tproductNotes,\n\t\t\tproductPrice,\n\t\t\tproducerID,\n\t\t\tdistributorID,\n\t\t\tconsumerID,\n\t\t\tcertifyNotes,\n\t\t\tgrapes,\n\t\t\titemState\n        );\n    }\n\n    // Functions to fetch data\n    function fetchGrapeItemBufferOne(uint256 _grapeUpc)\n        public\n        view\n        returns (\n\t\t\tuint256 sku,\n\t\t\tuint256 upc,\n\t\t\taddress ownerID,\n\t\t\taddress originFarmerID,\n\t\t\tstring memory originFarmName,\n\t\t\tstring memory originFarmInformation,\n\t\t\tstring memory originFarmLatitude,\n\t\t\tstring memory originFarmLongitude\n        )\n    {\n\t\t\tsku\t\t\t= grapeItems[_grapeUpc].sku;\n\t\t\tupc\t\t\t= grapeItems[_grapeUpc].upc;\n\t\t\townerID\t\t\t= grapeItems[_grapeUpc].ownerID;\n\t\t\toriginFarmerID\t= grapeItems[_grapeUpc].originFarmerID;\n\t\t\toriginFarmName\t= grapeItems[_grapeUpc].originFarmName;\n\t\t\toriginFarmInformation\t= grapeItems[_grapeUpc].originFarmInformation;\n\t\t\toriginFarmLatitude\t\t= grapeItems[_grapeUpc].originFarmLatitude;\n\t\t\toriginFarmLongitude\t\t= grapeItems[_grapeUpc].originFarmLongitude;\n        return (\n\t\t\tsku,\n\t\t\tupc,\n\t\t\townerID,\n\t\t\toriginFarmerID,\n\t\t\toriginFarmName,\n\t\t\toriginFarmInformation,\n\t\t\toriginFarmLatitude,\n\t\t\toriginFarmLongitude\n        );\n    }\n\n\n    // Functions to fetch data\n    function fetchGrapeItemBufferTwo(uint256 _grapeUpc)\n        public\n        view\n        returns (\n\t\t\tstring memory harvestNotes,\n\t\t\tstring memory auditNotes,\n\t\t\tuint256 itemState\n        )\n    {\n\t\t\tharvestNotes\t= grapeItems[_grapeUpc].harvestNotes;\n\t\t\tauditNotes\t\t= grapeItems[_grapeUpc].auditNotes;\n\t\t\titemState \t\t= uint256(grapeItems[_grapeUpc].itemState);\n        return (\n\t\t\tharvestNotes,\n\t\t\tauditNotes,\n\t\t\titemState\n        );\n    }\n\n}\n",
  "sourcePath": "C:\\Users\\jawalsam\\Ethereum_Projects\\supplychain\\contracts\\base\\SupplyChain.sol",
  "compiler": {
    "name": "solc",
    "version": "0.8.12+commit.f00d7308.Emscripten.clang"
  },
  "schemaVersion": "3.4.6",
  "updatedAt": "2022-03-26T16:11:48.295Z",
  "networkType": "ethereum",
  "devdoc": {
    "kind": "dev",
    "methods": {},
    "version": 1
  },
  "userdoc": {
    "kind": "user",
    "methods": {
      "isOwner()": {
        "notice": "Check if the calling address is the owner of the contract"
      },
      "owner()": {
        "notice": "Look up the address of the owner"
      },
      "renounceOwnership()": {
        "notice": "Define a function to renounce ownerhip"
      },
      "transferOwnership(address)": {
        "notice": "Define a public function to transfer ownership"
      }
    },
    "version": 1
  }
}